{
  "address": "0xce3F3C90970C08Fe451998441b30879560AA6757",
  "abi": [
    {
      "inputs": [
        {
          "internalType": "address",
          "name": "bookManager_",
          "type": "address"
        }
      ],
      "stateMutability": "nonpayable",
      "type": "constructor"
    },
    {
      "inputs": [
        {
          "internalType": "address",
          "name": "target",
          "type": "address"
        }
      ],
      "name": "AddressEmptyCode",
      "type": "error"
    },
    {
      "inputs": [],
      "name": "ControllerSlippage",
      "type": "error"
    },
    {
      "inputs": [],
      "name": "Deadline",
      "type": "error"
    },
    {
      "inputs": [],
      "name": "ERC20TransferFailed",
      "type": "error"
    },
    {
      "inputs": [],
      "name": "FailedCall",
      "type": "error"
    },
    {
      "inputs": [
        {
          "internalType": "uint256",
          "name": "balance",
          "type": "uint256"
        },
        {
          "internalType": "uint256",
          "name": "needed",
          "type": "uint256"
        }
      ],
      "name": "InsufficientBalance",
      "type": "error"
    },
    {
      "inputs": [],
      "name": "InvalidAccess",
      "type": "error"
    },
    {
      "inputs": [],
      "name": "InvalidAction",
      "type": "error"
    },
    {
      "inputs": [],
      "name": "InvalidLength",
      "type": "error"
    },
    {
      "inputs": [],
      "name": "InvalidPrice",
      "type": "error"
    },
    {
      "inputs": [],
      "name": "InvalidTick",
      "type": "error"
    },
    {
      "inputs": [],
      "name": "NativeTransferFailed",
      "type": "error"
    },
    {
      "inputs": [],
      "name": "ReentrancyGuardReentrantCall",
      "type": "error"
    },
    {
      "inputs": [
        {
          "internalType": "uint8",
          "name": "bits",
          "type": "uint8"
        },
        {
          "internalType": "uint256",
          "name": "value",
          "type": "uint256"
        }
      ],
      "name": "SafeCastOverflowedUintDowncast",
      "type": "error"
    },
    {
      "inputs": [
        {
          "internalType": "address",
          "name": "token",
          "type": "address"
        }
      ],
      "name": "SafeERC20FailedOperation",
      "type": "error"
    },
    {
      "inputs": [],
      "name": "bookManager",
      "outputs": [
        {
          "internalType": "contract IBookManager",
          "name": "",
          "type": "address"
        }
      ],
      "stateMutability": "view",
      "type": "function"
    },
    {
      "inputs": [
        {
          "components": [
            {
              "internalType": "OrderId",
              "name": "id",
              "type": "uint256"
            },
            {
              "internalType": "uint256",
              "name": "leftQuoteAmount",
              "type": "uint256"
            },
            {
              "internalType": "bytes",
              "name": "hookData",
              "type": "bytes"
            }
          ],
          "internalType": "struct IController.CancelOrderParams[]",
          "name": "orderParamsList",
          "type": "tuple[]"
        },
        {
          "internalType": "address[]",
          "name": "tokensToSettle",
          "type": "address[]"
        },
        {
          "components": [
            {
              "internalType": "uint256",
              "name": "tokenId",
              "type": "uint256"
            },
            {
              "components": [
                {
                  "internalType": "uint256",
                  "name": "deadline",
                  "type": "uint256"
                },
                {
                  "internalType": "uint8",
                  "name": "v",
                  "type": "uint8"
                },
                {
                  "internalType": "bytes32",
                  "name": "r",
                  "type": "bytes32"
                },
                {
                  "internalType": "bytes32",
                  "name": "s",
                  "type": "bytes32"
                }
              ],
              "internalType": "struct IController.PermitSignature",
              "name": "signature",
              "type": "tuple"
            }
          ],
          "internalType": "struct IController.ERC721PermitParams[]",
          "name": "permitParamsList",
          "type": "tuple[]"
        },
        {
          "internalType": "uint64",
          "name": "deadline",
          "type": "uint64"
        }
      ],
      "name": "cancel",
      "outputs": [],
      "stateMutability": "nonpayable",
      "type": "function"
    },
    {
      "inputs": [
        {
          "components": [
            {
              "internalType": "OrderId",
              "name": "id",
              "type": "uint256"
            },
            {
              "internalType": "bytes",
              "name": "hookData",
              "type": "bytes"
            }
          ],
          "internalType": "struct IController.ClaimOrderParams[]",
          "name": "orderParamsList",
          "type": "tuple[]"
        },
        {
          "internalType": "address[]",
          "name": "tokensToSettle",
          "type": "address[]"
        },
        {
          "components": [
            {
              "internalType": "uint256",
              "name": "tokenId",
              "type": "uint256"
            },
            {
              "components": [
                {
                  "internalType": "uint256",
                  "name": "deadline",
                  "type": "uint256"
                },
                {
                  "internalType": "uint8",
                  "name": "v",
                  "type": "uint8"
                },
                {
                  "internalType": "bytes32",
                  "name": "r",
                  "type": "bytes32"
                },
                {
                  "internalType": "bytes32",
                  "name": "s",
                  "type": "bytes32"
                }
              ],
              "internalType": "struct IController.PermitSignature",
              "name": "signature",
              "type": "tuple"
            }
          ],
          "internalType": "struct IController.ERC721PermitParams[]",
          "name": "permitParamsList",
          "type": "tuple[]"
        },
        {
          "internalType": "uint64",
          "name": "deadline",
          "type": "uint64"
        }
      ],
      "name": "claim",
      "outputs": [],
      "stateMutability": "nonpayable",
      "type": "function"
    },
    {
      "inputs": [
        {
          "internalType": "enum IController.Action[]",
          "name": "actionList",
          "type": "uint8[]"
        },
        {
          "internalType": "bytes[]",
          "name": "paramsDataList",
          "type": "bytes[]"
        },
        {
          "internalType": "address[]",
          "name": "tokensToSettle",
          "type": "address[]"
        },
        {
          "components": [
            {
              "internalType": "address",
              "name": "token",
              "type": "address"
            },
            {
              "internalType": "uint256",
              "name": "permitAmount",
              "type": "uint256"
            },
            {
              "components": [
                {
                  "internalType": "uint256",
                  "name": "deadline",
                  "type": "uint256"
                },
                {
                  "internalType": "uint8",
                  "name": "v",
                  "type": "uint8"
                },
                {
                  "internalType": "bytes32",
                  "name": "r",
                  "type": "bytes32"
                },
                {
                  "internalType": "bytes32",
                  "name": "s",
                  "type": "bytes32"
                }
              ],
              "internalType": "struct IController.PermitSignature",
              "name": "signature",
              "type": "tuple"
            }
          ],
          "internalType": "struct IController.ERC20PermitParams[]",
          "name": "erc20PermitParamsList",
          "type": "tuple[]"
        },
        {
          "components": [
            {
              "internalType": "uint256",
              "name": "tokenId",
              "type": "uint256"
            },
            {
              "components": [
                {
                  "internalType": "uint256",
                  "name": "deadline",
                  "type": "uint256"
                },
                {
                  "internalType": "uint8",
                  "name": "v",
                  "type": "uint8"
                },
                {
                  "internalType": "bytes32",
                  "name": "r",
                  "type": "bytes32"
                },
                {
                  "internalType": "bytes32",
                  "name": "s",
                  "type": "bytes32"
                }
              ],
              "internalType": "struct IController.PermitSignature",
              "name": "signature",
              "type": "tuple"
            }
          ],
          "internalType": "struct IController.ERC721PermitParams[]",
          "name": "erc721PermitParamsList",
          "type": "tuple[]"
        },
        {
          "internalType": "uint64",
          "name": "deadline",
          "type": "uint64"
        }
      ],
      "name": "execute",
      "outputs": [
        {
          "internalType": "OrderId[]",
          "name": "ids",
          "type": "uint256[]"
        }
      ],
      "stateMutability": "payable",
      "type": "function"
    },
    {
      "inputs": [
        {
          "internalType": "uint256",
          "name": "price",
          "type": "uint256"
        }
      ],
      "name": "fromPrice",
      "outputs": [
        {
          "internalType": "Tick",
          "name": "",
          "type": "int24"
        }
      ],
      "stateMutability": "pure",
      "type": "function"
    },
    {
      "inputs": [
        {
          "internalType": "BookId",
          "name": "id",
          "type": "uint192"
        },
        {
          "internalType": "Tick",
          "name": "tick",
          "type": "int24"
        }
      ],
      "name": "getDepth",
      "outputs": [
        {
          "internalType": "uint256",
          "name": "",
          "type": "uint256"
        }
      ],
      "stateMutability": "view",
      "type": "function"
    },
    {
      "inputs": [
        {
          "internalType": "BookId",
          "name": "id",
          "type": "uint192"
        }
      ],
      "name": "getHighestPrice",
      "outputs": [
        {
          "internalType": "uint256",
          "name": "",
          "type": "uint256"
        }
      ],
      "stateMutability": "view",
      "type": "function"
    },
    {
      "inputs": [
        {
          "internalType": "OrderId",
          "name": "orderId",
          "type": "uint256"
        }
      ],
      "name": "getOrder",
      "outputs": [
        {
          "internalType": "address",
          "name": "provider",
          "type": "address"
        },
        {
          "internalType": "uint256",
          "name": "price",
          "type": "uint256"
        },
        {
          "internalType": "uint256",
          "name": "openAmount",
          "type": "uint256"
        },
        {
          "internalType": "uint256",
          "name": "claimableAmount",
          "type": "uint256"
        }
      ],
      "stateMutability": "view",
      "type": "function"
    },
    {
      "inputs": [
        {
          "components": [
            {
              "internalType": "BookId",
              "name": "takeBookId",
              "type": "uint192"
            },
            {
              "internalType": "BookId",
              "name": "makeBookId",
              "type": "uint192"
            },
            {
              "internalType": "uint256",
              "name": "limitPrice",
              "type": "uint256"
            },
            {
              "internalType": "Tick",
              "name": "tick",
              "type": "int24"
            },
            {
              "internalType": "uint256",
              "name": "quoteAmount",
              "type": "uint256"
            },
            {
              "internalType": "bytes",
              "name": "takeHookData",
              "type": "bytes"
            },
            {
              "internalType": "bytes",
              "name": "makeHookData",
              "type": "bytes"
            }
          ],
          "internalType": "struct IController.LimitOrderParams[]",
          "name": "orderParamsList",
          "type": "tuple[]"
        },
        {
          "internalType": "address[]",
          "name": "tokensToSettle",
          "type": "address[]"
        },
        {
          "components": [
            {
              "internalType": "address",
              "name": "token",
              "type": "address"
            },
            {
              "internalType": "uint256",
              "name": "permitAmount",
              "type": "uint256"
            },
            {
              "components": [
                {
                  "internalType": "uint256",
                  "name": "deadline",
                  "type": "uint256"
                },
                {
                  "internalType": "uint8",
                  "name": "v",
                  "type": "uint8"
                },
                {
                  "internalType": "bytes32",
                  "name": "r",
                  "type": "bytes32"
                },
                {
                  "internalType": "bytes32",
                  "name": "s",
                  "type": "bytes32"
                }
              ],
              "internalType": "struct IController.PermitSignature",
              "name": "signature",
              "type": "tuple"
            }
          ],
          "internalType": "struct IController.ERC20PermitParams[]",
          "name": "permitParamsList",
          "type": "tuple[]"
        },
        {
          "internalType": "uint64",
          "name": "deadline",
          "type": "uint64"
        }
      ],
      "name": "limit",
      "outputs": [
        {
          "internalType": "OrderId[]",
          "name": "ids",
          "type": "uint256[]"
        }
      ],
      "stateMutability": "payable",
      "type": "function"
    },
    {
      "inputs": [
        {
          "internalType": "address",
          "name": "sender",
          "type": "address"
        },
        {
          "internalType": "bytes",
          "name": "data",
          "type": "bytes"
        }
      ],
      "name": "lockAcquired",
      "outputs": [
        {
          "internalType": "bytes",
          "name": "returnData",
          "type": "bytes"
        }
      ],
      "stateMutability": "nonpayable",
      "type": "function"
    },
    {
      "inputs": [
        {
          "components": [
            {
              "internalType": "BookId",
              "name": "id",
              "type": "uint192"
            },
            {
              "internalType": "Tick",
              "name": "tick",
              "type": "int24"
            },
            {
              "internalType": "uint256",
              "name": "quoteAmount",
              "type": "uint256"
            },
            {
              "internalType": "bytes",
              "name": "hookData",
              "type": "bytes"
            }
          ],
          "internalType": "struct IController.MakeOrderParams[]",
          "name": "orderParamsList",
          "type": "tuple[]"
        },
        {
          "internalType": "address[]",
          "name": "tokensToSettle",
          "type": "address[]"
        },
        {
          "components": [
            {
              "internalType": "address",
              "name": "token",
              "type": "address"
            },
            {
              "internalType": "uint256",
              "name": "permitAmount",
              "type": "uint256"
            },
            {
              "components": [
                {
                  "internalType": "uint256",
                  "name": "deadline",
                  "type": "uint256"
                },
                {
                  "internalType": "uint8",
                  "name": "v",
                  "type": "uint8"
                },
                {
                  "internalType": "bytes32",
                  "name": "r",
                  "type": "bytes32"
                },
                {
                  "internalType": "bytes32",
                  "name": "s",
                  "type": "bytes32"
                }
              ],
              "internalType": "struct IController.PermitSignature",
              "name": "signature",
              "type": "tuple"
            }
          ],
          "internalType": "struct IController.ERC20PermitParams[]",
          "name": "permitParamsList",
          "type": "tuple[]"
        },
        {
          "internalType": "uint64",
          "name": "deadline",
          "type": "uint64"
        }
      ],
      "name": "make",
      "outputs": [
        {
          "internalType": "OrderId[]",
          "name": "ids",
          "type": "uint256[]"
        }
      ],
      "stateMutability": "payable",
      "type": "function"
    },
    {
      "inputs": [
        {
          "components": [
            {
              "components": [
                {
                  "internalType": "Currency",
                  "name": "base",
                  "type": "address"
                },
                {
                  "internalType": "uint64",
                  "name": "unitSize",
                  "type": "uint64"
                },
                {
                  "internalType": "Currency",
                  "name": "quote",
                  "type": "address"
                },
                {
                  "internalType": "FeePolicy",
                  "name": "makerPolicy",
                  "type": "uint24"
                },
                {
                  "internalType": "contract IHooks",
                  "name": "hooks",
                  "type": "address"
                },
                {
                  "internalType": "FeePolicy",
                  "name": "takerPolicy",
                  "type": "uint24"
                }
              ],
              "internalType": "struct IBookManager.BookKey",
              "name": "key",
              "type": "tuple"
            },
            {
              "internalType": "bytes",
              "name": "hookData",
              "type": "bytes"
            }
          ],
          "internalType": "struct IController.OpenBookParams[]",
          "name": "openBookParamsList",
          "type": "tuple[]"
        },
        {
          "internalType": "uint64",
          "name": "deadline",
          "type": "uint64"
        }
      ],
      "name": "open",
      "outputs": [],
      "stateMutability": "nonpayable",
      "type": "function"
    },
    {
      "inputs": [
        {
          "components": [
            {
              "internalType": "BookId",
              "name": "id",
              "type": "uint192"
            },
            {
              "internalType": "uint256",
              "name": "limitPrice",
              "type": "uint256"
            },
            {
              "internalType": "uint256",
              "name": "baseAmount",
              "type": "uint256"
            },
            {
              "internalType": "uint256",
              "name": "minQuoteAmount",
              "type": "uint256"
            },
            {
              "internalType": "bytes",
              "name": "hookData",
              "type": "bytes"
            }
          ],
          "internalType": "struct IController.SpendOrderParams[]",
          "name": "orderParamsList",
          "type": "tuple[]"
        },
        {
          "internalType": "address[]",
          "name": "tokensToSettle",
          "type": "address[]"
        },
        {
          "components": [
            {
              "internalType": "address",
              "name": "token",
              "type": "address"
            },
            {
              "internalType": "uint256",
              "name": "permitAmount",
              "type": "uint256"
            },
            {
              "components": [
                {
                  "internalType": "uint256",
                  "name": "deadline",
                  "type": "uint256"
                },
                {
                  "internalType": "uint8",
                  "name": "v",
                  "type": "uint8"
                },
                {
                  "internalType": "bytes32",
                  "name": "r",
                  "type": "bytes32"
                },
                {
                  "internalType": "bytes32",
                  "name": "s",
                  "type": "bytes32"
                }
              ],
              "internalType": "struct IController.PermitSignature",
              "name": "signature",
              "type": "tuple"
            }
          ],
          "internalType": "struct IController.ERC20PermitParams[]",
          "name": "permitParamsList",
          "type": "tuple[]"
        },
        {
          "internalType": "uint64",
          "name": "deadline",
          "type": "uint64"
        }
      ],
      "name": "spend",
      "outputs": [],
      "stateMutability": "payable",
      "type": "function"
    },
    {
      "inputs": [
        {
          "components": [
            {
              "internalType": "BookId",
              "name": "id",
              "type": "uint192"
            },
            {
              "internalType": "uint256",
              "name": "limitPrice",
              "type": "uint256"
            },
            {
              "internalType": "uint256",
              "name": "quoteAmount",
              "type": "uint256"
            },
            {
              "internalType": "uint256",
              "name": "maxBaseAmount",
              "type": "uint256"
            },
            {
              "internalType": "bytes",
              "name": "hookData",
              "type": "bytes"
            }
          ],
          "internalType": "struct IController.TakeOrderParams[]",
          "name": "orderParamsList",
          "type": "tuple[]"
        },
        {
          "internalType": "address[]",
          "name": "tokensToSettle",
          "type": "address[]"
        },
        {
          "components": [
            {
              "internalType": "address",
              "name": "token",
              "type": "address"
            },
            {
              "internalType": "uint256",
              "name": "permitAmount",
              "type": "uint256"
            },
            {
              "components": [
                {
                  "internalType": "uint256",
                  "name": "deadline",
                  "type": "uint256"
                },
                {
                  "internalType": "uint8",
                  "name": "v",
                  "type": "uint8"
                },
                {
                  "internalType": "bytes32",
                  "name": "r",
                  "type": "bytes32"
                },
                {
                  "internalType": "bytes32",
                  "name": "s",
                  "type": "bytes32"
                }
              ],
              "internalType": "struct IController.PermitSignature",
              "name": "signature",
              "type": "tuple"
            }
          ],
          "internalType": "struct IController.ERC20PermitParams[]",
          "name": "permitParamsList",
          "type": "tuple[]"
        },
        {
          "internalType": "uint64",
          "name": "deadline",
          "type": "uint64"
        }
      ],
      "name": "take",
      "outputs": [],
      "stateMutability": "payable",
      "type": "function"
    },
    {
      "inputs": [
        {
          "internalType": "Tick",
          "name": "tick",
          "type": "int24"
        }
      ],
      "name": "toPrice",
      "outputs": [
        {
          "internalType": "uint256",
          "name": "",
          "type": "uint256"
        }
      ],
      "stateMutability": "pure",
      "type": "function"
    },
    {
      "stateMutability": "payable",
      "type": "receive"
    }
  ],
  "transactionHash": "0x38f98456bd4e8e59d19d0b409592ae7cf8f9b3ee5c08d222a22b02036cc02ce7",
  "args": [
    "0x874b1B795993653fbFC3f1c1fc0469214cC9F4A5"
  ],
  "numDeployments": 1,
  "solcInputHash": "799ea93859bcbd8fb7e92ac887ce3b48",
  "bytecode": "0x60a0604052348015600e575f80fd5b50604051615815380380615815833981016040819052602b91603b565b6001600160a01b03166080526066565b5f60208284031215604a575f80fd5b81516001600160a01b0381168114605f575f80fd5b9392505050565b60805161568661018f5f395f818161017a015281816104e6015281816105850152818161076901528181610a5801528181610ae901528181610bb301528181610d0e01528181610f81015281816111e6015281816115a3015281816117eb015281816118ae01528181611d0a01528181611d9201528181611e7201528181612025015281816120c80152818161216301528181612270015281816123be01528181612457015281816124f9015281816126160152818161276701528181612826015281816128c701528181612941015281816129fd01528181612af801528181612b7001528181612bc801528181612c5901528181612d1301528181612dbd01528181612e3801528181612eb201528181612f4301528181612fb801526135b301526156865ff3fe6080604052600436106100e7575f3560e01c80637658ab0511610087578063a183a10411610057578063a183a10414610295578063c0e8e89a146102b4578063d09ef241146102c7578063fe81574614610310575f80fd5b80637658ab05146102245780637d773110146102445780638feb85b714610257578063a04c796b14610276575f80fd5b80633f322bc9116100c25780633f322bc91461016957806341a8bb88146101b4578063483f9f2f146101d35780635083585814610205575f80fd5b806309ae2c13146100f257806315c7afb4146101075780631ae45a121461013c575f80fd5b366100ee57005b5f80fd5b610105610100366004613e30565b610323565b005b348015610112575f80fd5b50610126610121366004613fe1565b610570565b604051610133919061409b565b60405180910390f35b348015610147575f80fd5b5061015b6101563660046140c1565b610a2c565b604051908152602001610133565b348015610174575f80fd5b5061019c7f000000000000000000000000000000000000000000000000000000000000000081565b6040516001600160a01b039091168152602001610133565b3480156101bf575f80fd5b5061015b6101ce3660046140f5565b610ac9565b3480156101de575f80fd5b506101f26101ed36600461412c565b610c36565b60405160029190910b8152602001610133565b348015610210575f80fd5b5061015b61021f366004614143565b610c40565b61023761023236600461419e565b610c4d565b6040516101339190614292565b610237610252366004613e30565b610dba565b348015610262575f80fd5b506101056102713660046142d5565b611025565b348015610281575f80fd5b506101056102903660046142d5565b61126e565b3480156102a0575f80fd5b506101056102af366004614356565b6113ed565b6101056102c2366004613e30565b611628565b3480156102d2575f80fd5b506102e66102e136600461412c565b6117a9565b604080516001600160a01b0390951685526020850193909352918301526060820152608001610133565b61023761031e366004613e30565b6119ca565b80806001600160401b031642111561034e5760405163637910d560e11b815260040160405180910390fd5b838361035a8282611b4d565b885f816001600160401b0381111561037457610374613ee9565b60405190808252806020026020018201604052801561039d578160200160208202803683370190505b5090505f826001600160401b038111156103b9576103b9613ee9565b6040519080825280602002602001820160405280156103ec57816020015b60608152602001906001900390816103d75790505b5090505f5b838110156104a457600383828151811061040d5761040d6143a8565b60200260200101906006811115610426576104266143bc565b90816006811115610439576104396143bc565b9052508d8d8281811061044e5761044e6143a8565b905060200281019061046091906143d0565b60405160200161047091906144b9565b604051602081830303815290604052828281518110610491576104916143a8565b60209081029190910101526001016103f1565b505f3383838e8e6040516020016104bf9594939291906145c4565b60408051601f19818403018152908290526313942f3360e31b825291506001600160a01b037f00000000000000000000000000000000000000000000000000000000000000001690639ca179989061051d903090859060040161460c565b5f604051808303815f875af1158015610538573d5f803e3d5ffd5b505050506040513d5f823e601f3d908101601f1916820160405261055f919081019061467a565b505050505050505050505050505050565b606061057a611c54565b336001600160a01b037f0000000000000000000000000000000000000000000000000000000000000000161415806105bb57506001600160a01b0383163014155b156105f2576040517fc0185c6400000000000000000000000000000000000000000000000000000000815260040160405180910390fd5b5f805f808580602001905181019061060a91906147c3565b8251939750919550935091505f816001600160401b0381111561062f5761062f613ee9565b604051908082528060200260200182016040528015610658578160200160208202803683370190505b5090505f805b838110156109e7575f878281518110610679576106796143a8565b602002602001015190505f6006811115610695576106956143bc565b8160068111156106a7576106a76143bc565b036106e6576106e18783815181106106c1576106c16143a8565b60200260200101518060200190518101906106dc9190614976565b611cd3565b6109de565b60018160068111156106fa576106fa6143bc565b036107f2575f610735888481518110610715576107156143a8565b60200260200101518060200190518101906107309190614a05565b611d6d565b905080156107ec576040516323b872dd60e01b81523060048201526001600160a01b038b81166024830152604482018390527f000000000000000000000000000000000000000000000000000000000000000016906323b872dd906064015f604051808303815f87803b1580156107aa575f80fd5b505af11580156107bc573d5f803e3d5ffd5b50505050808585806107cd90614ab0565b9650815181106107df576107df6143a8565b6020026020010181815250505b506109de565b6002816006811115610806576108066143bc565b03610841575f610735888481518110610821576108216143a8565b602002602001015180602001905181019061083c9190614ac8565b611f46565b6003816006811115610855576108556143bc565b036108965761088f87838151811061086f5761086f6143a8565b602002602001015180602001905181019061088a9190614c2e565b611ffe565b50506109de565b60048160068111156108aa576108aa6143bc565b036108e45761088f8783815181106108c4576108c46143a8565b60200260200101518060200190518101906108df9190614c2e565b61238d565b60058160068111156108f8576108f86143bc565b03610948575f878381518110610910576109106143a8565b602002602001015180602001905181019061092b9190614c5f565b905061093a815f01518b612734565b156107ec576107ec81612890565b600681600681111561095c5761095c6143bc565b036109ac575f878381518110610974576109746143a8565b602002602001015180602001905181019061098f9190614cb5565b905061099e815f01518b612734565b156107ec576107ec8161293e565b6040517f4a7f394f00000000000000000000000000000000000000000000000000000000815260040160405180910390fd5b5060010161065e565b506109f28785612ad0565b80825281604051602001610a069190614292565b604051602081830303815290604052975050505050505050610a266131d9565b92915050565b60405163cdc92f2d60e01b81526001600160c01b03821660048201525f90610a26906001600160a01b037f0000000000000000000000000000000000000000000000000000000000000000169063cdc92f2d90602401602060405180830381865afa158015610a9d573d5f803e3d5ffd5b505050506040513d601f19601f82011682018060405250810190610ac19190614d30565b60020b6131fe565b604051639b22917d60e01b81526001600160c01b03831660048201525f907f00000000000000000000000000000000000000000000000000000000000000006001600160a01b031690639b22917d9060240160c060405180830381865afa158015610b36573d5f803e3d5ffd5b505050506040513d601f19601f82011682018060405250810190610b5a9190614d4b565b602001516040517f41a8bb880000000000000000000000000000000000000000000000000000000081526001600160c01b0385166004820152600284900b60248201526001600160401b03909116906001600160a01b037f000000000000000000000000000000000000000000000000000000000000000016906341a8bb8890604401602060405180830381865afa158015610bf8573d5f803e3d5ffd5b505050506040513d601f19601f82011682018060405250810190610c1c9190614d65565b6001600160401b0316610c2f9190614d80565b9392505050565b5f610a26826134bc565b5f610a268260020b6131fe565b606081806001600160401b0316421115610c7a5760405163637910d560e11b815260040160405180910390fd5b8b8a14610cb3576040517f947d5a8400000000000000000000000000000000000000000000000000000000815260040160405180910390fd5b610cbd8787611b4d565b610cc78585613571565b5f338e8e8e8e8e8e604051602001610ce59796959493929190614d97565b60408051601f19818403018152908290526313942f3360e31b825291505f906001600160a01b037f00000000000000000000000000000000000000000000000000000000000000001690639ca1799890610d45903090869060040161460c565b5f604051808303815f875af1158015610d60573d5f803e3d5ffd5b505050506040513d5f823e601f3d908101601f19168201604052610d87919081019061467a565b905080515f14610da85780806020019051810190610da59190614e66565b93505b5050509b9a5050505050505050505050565b606081806001600160401b0316421115610de75760405163637910d560e11b815260040160405180910390fd5b8484610df38282611b4d565b895f816001600160401b03811115610e0d57610e0d613ee9565b604051908082528060200260200182016040528015610e36578160200160208202803683370190505b5090505f826001600160401b03811115610e5257610e52613ee9565b604051908082528060200260200182016040528015610e8557816020015b6060815260200190600190039081610e705790505b5090505f5b83811015610f3d576001838281518110610ea657610ea66143a8565b60200260200101906006811115610ebf57610ebf6143bc565b90816006811115610ed257610ed26143bc565b9052508e8e82818110610ee757610ee76143a8565b9050602002810190610ef99190614ef1565b604051602001610f099190614f05565b604051602081830303815290604052828281518110610f2a57610f2a6143a8565b6020908102919091010152600101610e8a565b505f3383838f8f604051602001610f589594939291906145c4565b60408051601f19818403018152908290526313942f3360e31b825291505f906001600160a01b037f00000000000000000000000000000000000000000000000000000000000000001690639ca1799890610fb8903090869060040161460c565b5f604051808303815f875af1158015610fd3573d5f803e3d5ffd5b505050506040513d5f823e601f3d908101601f19168201604052610ffa919081019061467a565b9050808060200190518101906110109190614e66565b98505050505050505050979650505050505050565b80806001600160401b03164211156110505760405163637910d560e11b815260040160405180910390fd5b61105a8484613571565b865f816001600160401b0381111561107457611074613ee9565b60405190808252806020026020018201604052801561109d578160200160208202803683370190505b5090505f826001600160401b038111156110b9576110b9613ee9565b6040519080825280602002602001820160405280156110ec57816020015b60608152602001906001900390816110d75790505b5090505f5b838110156111a457600583828151811061110d5761110d6143a8565b60200260200101906006811115611126576111266143bc565b90816006811115611139576111396143bc565b9052508b8b8281811061114e5761114e6143a8565b90506020028101906111609190614f68565b6040516020016111709190614f7c565b604051602081830303815290604052828281518110611191576111916143a8565b60209081029190910101526001016110f1565b505f3383838c8c6040516020016111bf9594939291906145c4565b60408051601f19818403018152908290526313942f3360e31b825291506001600160a01b037f00000000000000000000000000000000000000000000000000000000000000001690639ca179989061121d903090859060040161460c565b5f604051808303815f875af1158015611238573d5f803e3d5ffd5b505050506040513d5f823e601f3d908101601f1916820160405261125f919081019061467a565b50505050505050505050505050565b80806001600160401b03164211156112995760405163637910d560e11b815260040160405180910390fd5b6112a38484613571565b865f816001600160401b038111156112bd576112bd613ee9565b6040519080825280602002602001820160405280156112e6578160200160208202803683370190505b5090505f826001600160401b0381111561130257611302613ee9565b60405190808252806020026020018201604052801561133557816020015b60608152602001906001900390816113205790505b5090505f5b838110156111a4576006838281518110611356576113566143a8565b6020026020010190600681111561136f5761136f6143bc565b90816006811115611382576113826143bc565b9052508b8b82818110611397576113976143a8565b90506020028101906113a99190614fa9565b6040516020016113b99190614fbd565b6040516020818303038152906040528282815181106113da576113da6143a8565b602090810291909101015260010161133a565b80806001600160401b03164211156114185760405163637910d560e11b815260040160405180910390fd5b825f816001600160401b0381111561143257611432613ee9565b60405190808252806020026020018201604052801561145b578160200160208202803683370190505b5090505f826001600160401b0381111561147757611477613ee9565b6040519080825280602002602001820160405280156114aa57816020015b60608152602001906001900390816114955790505b5090505f5b83811015611561575f8382815181106114ca576114ca6143a8565b602002602001019060068111156114e3576114e36143bc565b908160068111156114f6576114f66143bc565b90525087878281811061150b5761150b6143a8565b905060200281019061151d9190614ff4565b60405160200161152d919061501e565b60405160208183030381529060405282828151811061154e5761154e6143a8565b60209081029190910101526001016114af565b5060605f3384848460405160200161157c94939291906150e5565b60408051601f19818403018152908290526313942f3360e31b825291506001600160a01b037f00000000000000000000000000000000000000000000000000000000000000001690639ca17998906115da903090859060040161460c565b5f604051808303815f875af11580156115f5573d5f803e3d5ffd5b505050506040513d5f823e601f3d908101601f1916820160405261161c919081019061467a565b50505050505050505050565b80806001600160401b03164211156116535760405163637910d560e11b815260040160405180910390fd5b838361165f8282611b4d565b885f816001600160401b0381111561167957611679613ee9565b6040519080825280602002602001820160405280156116a2578160200160208202803683370190505b5090505f826001600160401b038111156116be576116be613ee9565b6040519080825280602002602001820160405280156116f157816020015b60608152602001906001900390816116dc5790505b5090505f5b838110156104a4576004838281518110611712576117126143a8565b6020026020010190600681111561172b5761172b6143bc565b9081600681111561173e5761173e6143bc565b9052508d8d82818110611753576117536143a8565b905060200281019061176591906143d0565b60405160200161177591906144b9565b604051602081830303815290604052828281518110611796576117966143a8565b60209081029190910101526001016116f6565b5f8080808080604087901c62ffffff602889901c16604051639b22917d60e01b81526001600160c01b038316600482015291935091505f906001600160a01b037f00000000000000000000000000000000000000000000000000000000000000001690639b22917d9060240160c060405180830381865afa158015611830573d5f803e3d5ffd5b505050506040513d601f19601f820116820180604052508101906118549190614d4b565b60208101519091506001600160401b0316611872600284900b6131fe565b6040517fd09ef241000000000000000000000000000000000000000000000000000000008152600481018b90529097505f906001600160a01b037f0000000000000000000000000000000000000000000000000000000000000000169063d09ef24190602401606060405180830381865afa1580156118f3573d5f803e3d5ffd5b505050506040513d601f19601f820116820180604052508101906119179190615163565b80516020820151909a50909150611937906001600160401b031683614d80565b60608401516040830151919850906119689061195c906001600160401b031685614d80565b600287900b905f6136a0565b96506119798162ffffff1660171c90565b6119bd575f61198e62ffffff831689836136ca565b90505f81136119af576119a0816151b5565b6119aa90896151eb565b6119b9565b6119b981896151fe565b9750505b5050505050509193509193565b606081806001600160401b03164211156119f75760405163637910d560e11b815260040160405180910390fd5b8484611a038282611b4d565b895f816001600160401b03811115611a1d57611a1d613ee9565b604051908082528060200260200182016040528015611a46578160200160208202803683370190505b5090505f826001600160401b03811115611a6257611a62613ee9565b604051908082528060200260200182016040528015611a9557816020015b6060815260200190600190039081611a805790505b5090505f5b83811015610f3d576002838281518110611ab657611ab66143a8565b60200260200101906006811115611acf57611acf6143bc565b90816006811115611ae257611ae26143bc565b9052508e8e82818110611af757611af76143a8565b9050602002810190611b099190614ff4565b604051602001611b199190615211565b604051602081830303815290604052828281518110611b3a57611b3a6143a8565b6020908102919091010152600101611a9a565b5f5b81811015611c4f575f838383818110611b6a57611b6a6143a8565b905060c00201803603810190611b80919061531b565b60408101515190915015611c465780516020808301516040808501518051938101518183015160609092015192517fd505accf0000000000000000000000000000000000000000000000000000000081523360048201523060248201526044810194909452606484019490945260ff909316608483015260a482019290925260c48101919091526001600160a01b039091169063d505accf9060e4015f604051808303815f87803b158015611c33575f80fd5b505af1925050508015611c44575060015b505b50600101611b4f565b505050565b7f8e94fed44239eb2314ab7a406345e6c5a8f0ccedf3b600de3d004e672c33abf45c15611cad576040517f3ee5aeb500000000000000000000000000000000000000000000000000000000815260040160405180910390fd5b60017f8e94fed44239eb2314ab7a406345e6c5a8f0ccedf3b600de3d004e672c33abf45d565b805160208201516040517ffefc7c510000000000000000000000000000000000000000000000000000000081526001600160a01b037f0000000000000000000000000000000000000000000000000000000000000000169263fefc7c5192611d3d92600401615357565b5f604051808303815f87803b158015611d54575f80fd5b505af1158015611d66573d5f803e3d5ffd5b5050505050565b8051604051639b22917d60e01b81526001600160c01b0390911660048201525f9081907f00000000000000000000000000000000000000000000000000000000000000006001600160a01b031690639b22917d9060240160c060405180830381865afa158015611ddf573d5f803e3d5ffd5b505050506040513d601f19601f82011682018060405250810190611e039190614d4b565b90505f83604001519050611e20826060015162ffffff1660171c90565b15611e3d576060820151611e3a9062ffffff16825f61374a565b90505b5f611e5f83602001516001600160401b031683611e5a91906153e2565b613797565b90506001600160401b03811615611f3e577f00000000000000000000000000000000000000000000000000000000000000006001600160a01b0316631dbef4886040518060800160405280868152602001886020015160020b8152602001846001600160401b031681526020015f6001600160a01b031681525087606001516040518363ffffffff1660e01b8152600401611efb929190615401565b60408051808303815f875af1158015611f16573d5f803e3d5ffd5b505050506040513d601f19601f82011682018060405250810190611f3a91906154af565b5093505b505050919050565b5f805f611f906040518060a00160405280865f01516001600160c01b0316815260200186604001518152602001866080015181526020015f81526020018660a0015181525061238d565b915091508084608001818151611fa691906151fe565b9052508115611ff757611ff4604051806080016040528086602001516001600160c01b03168152602001866060015160020b8152602001866080015181526020018660c00151815250611d6d565b92505b5050919050565b8051604051639b22917d60e01b81526001600160c01b0390911660048201525f90819081907f00000000000000000000000000000000000000000000000000000000000000006001600160a01b031690639b22917d9060240160c060405180830381865afa158015612072573d5f803e3d5ffd5b505050506040513d601f19601f820116820180604052508101906120969190614d4b565b90505b82846040015111801561213b5750835160405163fcc8fc9b60e01b81526001600160c01b0390911660048201527f00000000000000000000000000000000000000000000000000000000000000006001600160a01b03169063fcc8fc9b90602401602060405180830381865afa158015612115573d5f803e3d5ffd5b505050506040513d601f19601f8201168201806040525081019061213991906154d1565b155b1561236257835160405163cdc92f2d60e01b81526001600160c01b0390911660048201525f907f00000000000000000000000000000000000000000000000000000000000000006001600160a01b03169063cdc92f2d90602401602060405180830381865afa1580156121b0573d5f803e3d5ffd5b505050506040513d601f19601f820116820180604052508101906121d49190614d30565b90506121e28160020b6131fe565b856020015111156121f35750612362565b5f6122078360a0015162ffffff1660171c90565b15612238576122318587604001510360018560a0015162ffffff1661374a9092919063ffffffff16565b9050612242565b8486604001510390505b60208301516001600160401b03168082049082061515600116019050805f0361226c575050612362565b5f807f00000000000000000000000000000000000000000000000000000000000000006001600160a01b0316633b9500b060405180606001604052808881526020018760020b81526020016122c087613797565b6001600160401b03168152508a608001516040518363ffffffff1660e01b81526004016122ee9291906154f0565b60408051808303815f875af1158015612309573d5f803e3d5ffd5b505050506040513d601f19601f8201168201806040525081019061232d91906154af565b91509150815f036123415750505050612362565b61234b82886151eb565b965061235781876151eb565b955050505050612099565b818460600151101561238757604051630f271b5560e41b815260040160405180910390fd5b50915091565b8051604051639b22917d60e01b81526001600160c01b0390911660048201525f908190819081906001600160a01b037f00000000000000000000000000000000000000000000000000000000000000001690639b22917d9060240160c060405180830381865afa158015612403573d5f803e3d5ffd5b505050506040513d601f19601f820116820180604052508101906124279190614d4b565b90505b846040015183101561270857845160405163fcc8fc9b60e01b81526001600160c01b0390911660048201527f00000000000000000000000000000000000000000000000000000000000000006001600160a01b03169063fcc8fc9b90602401602060405180830381865afa1580156124a4573d5f803e3d5ffd5b505050506040513d601f19601f820116820180604052508101906124c891906154d1565b156124d65760019350612708565b845160405163cdc92f2d60e01b81526001600160c01b0390911660048201525f907f00000000000000000000000000000000000000000000000000000000000000006001600160a01b03169063cdc92f2d90602401602060405180830381865afa158015612546573d5f803e3d5ffd5b505050506040513d601f19601f8201168201806040525081019061256a9190614d30565b90506125788160020b6131fe565b8660200151111561258d576001945050612708565b5f6125a18360a0015162ffffff1660171c90565b156125b4578487604001510390506125db565b6125d8858860400151035f8560a0015162ffffff1661374a9092919063ffffffff16565b90505b60208301516001600160401b03166125f8600284900b835f6137ee565b61260291906153e2565b9050805f03612612575050612708565b5f807f00000000000000000000000000000000000000000000000000000000000000006001600160a01b0316633b9500b060405180606001604052808881526020018760020b815260200161266687613797565b6001600160401b03168152508b608001516040518363ffffffff1660e01b81526004016126949291906154f0565b60408051808303815f875af11580156126af573d5f803e3d5ffd5b505050506040513d601f19601f820116820180604052508101906126d391906154af565b91509150805f036126e75750505050612708565b6126f182876151eb565b95506126fd81886151eb565b96505050505061242a565b818560600151111561272d57604051630f271b5560e41b815260040160405180910390fd5b5050915091565b6040517f6352211e000000000000000000000000000000000000000000000000000000008152600481018390525f9083907f00000000000000000000000000000000000000000000000000000000000000006001600160a01b031690636352211e90602401602060405180830381865afa9250505080156127d2575060408051601f3d908101601f191682019092526127cf9181019061558a565b60015b6127df575f915050610a26565b6040517f2f584a6d0000000000000000000000000000000000000000000000000000000081526001600160a01b0382811660048301528581166024830152604482018490527f00000000000000000000000000000000000000000000000000000000000000001690632f584a6d906064015f6040518083038186803b158015612866575f80fd5b505afa925050508015612877575060015b612885575f92505050610a26565b600192505050610a26565b805160208201516040517f38926b6d0000000000000000000000000000000000000000000000000000000081526001600160a01b037f000000000000000000000000000000000000000000000000000000000000000016926338926b6d926128fa926004016155a5565b6020604051808303815f875af1158015612916573d5f803e3d5ffd5b505050506040513d601f19601f8201168201806040525081019061293a91906155bd565b5050565b5f7f00000000000000000000000000000000000000000000000000000000000000006001600160a01b0316639b22917d61297b845f015160401c90565b6040517fffffffff0000000000000000000000000000000000000000000000000000000060e084901b1681526001600160c01b03909116600482015260240160c060405180830381865afa1580156129d5573d5f803e3d5ffd5b505050506040513d601f19601f820116820180604052508101906129f99190614d4b565b90507f00000000000000000000000000000000000000000000000000000000000000006001600160a01b03166314d6a9eb6040518060400160405280855f01518152602001612a5e85602001516001600160401b03168760200151611e5a91906153e2565b6001600160401b031681525084604001516040518363ffffffff1660e01b8152600401612a8c9291906155d4565b6020604051808303815f875af1925050508015612ac6575060408051601f3d908101601f19168201909252612ac3918101906155bd565b60015b1561293a57505050565b60405163258473db60e21b81523060048201525f602482018190529081906001600160a01b037f00000000000000000000000000000000000000000000000000000000000000001690639611cf6c90604401602060405180830381865afa158015612b3d573d5f803e3d5ffd5b505050506040513d601f19601f82011682018060405250810190612b6191906155bd565b90505f811215612c3457612ba97f0000000000000000000000000000000000000000000000000000000000000000612b98836151b5565b6001600160a01b0385169190613830565b604051636a256b2960e01b81526001600160a01b0383811660048301527f00000000000000000000000000000000000000000000000000000000000000001690636a256b29906024016020604051808303815f875af1158015612c0e573d5f803e3d5ffd5b505050506040513d601f19601f82011682018060405250810190612c3291906155bd565b505b60405163258473db60e21b81523060048201526001600160a01b0383811660248301527f00000000000000000000000000000000000000000000000000000000000000001690639611cf6c90604401602060405180830381865afa158015612c9e573d5f803e3d5ffd5b505050506040513d601f19601f82011682018060405250810190612cc291906155bd565b90505f811315612d6b576040517fd9caed120000000000000000000000000000000000000000000000000000000081526001600160a01b0383811660048301528581166024830152604482018390527f0000000000000000000000000000000000000000000000000000000000000000169063d9caed12906064015f604051808303815f87803b158015612d54575f80fd5b505af1158015612d66573d5f803e3d5ffd5b505050505b82515f5b818110156131be575f858281518110612d8a57612d8a6143a8565b602090810291909101015160405163258473db60e21b81523060048201526001600160a01b0380831660248301529192507f000000000000000000000000000000000000000000000000000000000000000090911690639611cf6c90604401602060405180830381865afa158015612e04573d5f803e3d5ffd5b505050506040513d601f19601f82011682018060405250810190612e2891906155bd565b93505f841215612f1e57612e93877f0000000000000000000000000000000000000000000000000000000000000000612e60876151b5565b898681518110612e7257612e726143a8565b60200260200101516001600160a01b03166138ff909392919063ffffffff16565b604051636a256b2960e01b81526001600160a01b0382811660048301527f00000000000000000000000000000000000000000000000000000000000000001690636a256b29906024016020604051808303815f875af1158015612ef8573d5f803e3d5ffd5b505050506040513d601f19601f82011682018060405250810190612f1c91906155bd565b505b60405163258473db60e21b81523060048201526001600160a01b0382811660248301527f00000000000000000000000000000000000000000000000000000000000000001690639611cf6c90604401602060405180830381865afa158015612f88573d5f803e3d5ffd5b505050506040513d601f19601f82011682018060405250810190612fac91906155bd565b93505f84131561307e577f00000000000000000000000000000000000000000000000000000000000000006001600160a01b031663d9caed12878481518110612ff757612ff76143a8565b60209081029190910101516040517fffffffff0000000000000000000000000000000000000000000000000000000060e084901b1681526001600160a01b039182166004820152908a166024820152604481018790526064015f604051808303815f87803b158015613067575f80fd5b505af1158015613079573d5f803e3d5ffd5b505050505b5f868381518110613091576130916143a8565b60209081029190910101516040517f70a082310000000000000000000000000000000000000000000000000000000081523060048201526001600160a01b03909116906370a0823190602401602060405180830381865afa1580156130f8573d5f803e3d5ffd5b505050506040513d601f19601f8201168201806040525081019061311c91906155bd565b905080156131b457868381518110613136576131366143a8565b602090810291909101015160405163a9059cbb60e01b81526001600160a01b038a81166004830152602482018490529091169063a9059cbb906044016020604051808303815f875af115801561318e573d5f803e3d5ffd5b505050506040513d601f19601f820116820180604052508101906131b291906154d1565b505b5050600101612d6f565b504715611d6657611d666001600160a01b0384168647613830565b5f7f8e94fed44239eb2314ab7a406345e6c5a8f0ccedf3b600de3d004e672c33abf45d565b5f6132088261396e565b815f600282900b811361321b5781613224565b61322482615600565b62ffffff8116915060011615613248576bfff97272373d413259a469909250613259565b6c0100000000000000000000000092505b60028116156132785760606bfff2e50f5f656932ef12357c8402901c92505b60048116156132975760606bffe5caca7e10e4e61c3624ea8402901c92505b60088116156132b65760606bffcb9843d60f6159c9db58838402901c92505b60108116156132d55760606bff973b41fa98c081472e68968402901c92505b60208116156132f45760606bff2ea16466c96a3843ec78b38402901c92505b60408116156133135760606bfe5dee046a99a2a811c461f18402901c92505b60808116156133325760606bfcbe86c7900a88aedcffc83b8402901c92505b6101008116156133525760606bf987a7253ac413176f2b074c8402901c92505b6102008116156133725760606bf3392b0822b70005940c7a398402901c92505b6104008116156133925760606be7159475a2c29b7443b29c7f8402901c92505b6108008116156133b25760606bd097f3bdfd2022b8845ad8f78402901c92505b6110008116156133d25760606ba9f746462d870fdf8a65dc1f8402901c92505b6120008116156133f25760606b70d869a156d2a1b890bb3df68402901c92505b6140008116156134125760606b31be135f97d08fd9812315058402901c92505b6180008116156134325760606b09aa508b5b7a84e1c677de548402901c92505b620100008116156134525760606a5d6af8dedb81196699c3298402901c92505b62020000811615613471576060692216e584f5fa1ea926048402901c92505b6204000081161561348e57606067048a170391f7dc428402901c92505b5f8260020b1315611ff757611ff48378010000000000000000000000000000000000000000000000006153e2565b5f81750c6c1313451aab317fb9b67e11777e9a5a6ccdb2ebae8111806134e4575062149bbb81105b1561351a576040517ebfc92100000000000000000000000000000000000000000000000000000000815260040160405180910390fd5b5f700100000000000000000000000000000000613536856139cd565b6527107fff7434028161354b5761354b6153ce565b05905083613558826131fe565b1115613568575f1901915061356b565b91505b50919050565b5f5b81811015611c4f575f83838381811061358e5761358e6143a8565b905060a002016020018036038101906135a79190615620565b805190915015613697577f00000000000000000000000000000000000000000000000000000000000000006001600160a01b0316637ac2ff7b308686868181106135f3576135f36143a8565b865160208801516040808a015160608b015191517fffffffff0000000000000000000000000000000000000000000000000000000060e08b901b1681526001600160a01b03909816600489015260a090940295909501356024870152604486019190915260ff16606485015260848401525060a482015260c4015f604051808303815f87803b158015613684575f80fd5b505af1925050508015613695575060015b505b50600101613573565b5f6136c2606084901b6136b58660020b6131fe565b8082061515851691040190565b949350505050565b5f6207a11f19627fffff851601600281900b821282816136ec57825f036136ee565b825b62ffffff1690505f6137276137038389614d80565b620f424088613719578581830615151691040190565b808206151586151691040190565b90508261373c57613737816151b5565b61373e565b805b98975050505050505050565b5f6207a11f19627fffff85160181831561376457815f0391505b81620f424001905061378d620f42408661377e9190614d80565b82810615158616908390040190565b9695505050505050565b5f6001600160401b038211156137ea57604080517f6dfcc6500000000000000000000000000000000000000000000000000000000081526004810191909152602481018390526044015b60405180910390fd5b5090565b5f6136c26137fe8560020b6131fe565b6138089085614d80565b6bffffffffffffffffffffffff8116151584166c010000000000000000000000009091040190565b5f6001600160a01b038416613885575f805f8085875af1905080613880576040517ff4b3b1bc00000000000000000000000000000000000000000000000000000000815260040160405180910390fd5b6138f9565b60405163a9059cbb60e01b81526001600160a01b038416600482015282602482015260205f6044835f895af13d15601f3d1160015f5114161716915050806138f9576040517ff27f64e400000000000000000000000000000000000000000000000000000000815260040160405180910390fd5b50505050565b604080516001600160a01b0385811660248301528416604482015260648082018490528251808303909101815260849091019091526020810180517bffffffffffffffffffffffffffffffffffffffffffffffffffffffff166323b872dd60e01b1790526138f9908590613be6565b6207ffff600282900b1380613993575061398a6207ffff615600565b60020b8160020b125b156139ca576040517fce8ef7fc00000000000000000000000000000000000000000000000000000000815260040160405180910390fd5b50565b6fffffffffffffffffffffffffffffffff811160071b81811c6001600160401b031060061b1781811c63ffffffff1060051b1781811c61ffff1060041b1781811c60ff1060031b175f8213613a2957631615e6385f526004601cfd5b7103782dace9d90000000000000000000000007ff8f9f9faf9fdfafbf9fdfcfdfafbfcfef9fafdfafcfcfbfefafafcfbffffffff6f8421084210842108cc6318c6db6d54be84841c1c601f161a90911891821b609f90811c6c465772b2bbbb5f824b15207a3081018102606090811d6d0388eaa27412d5aca026815d636e018202811d6d0df99ac502031bf953eff472fdcc018202811d6d13cdffb29d51d99322bdff5f2211018202811d6d0a0f742023def783a307a986912e018202811d6d01920d8043ca89b5239253284e42018202811d6c0b7a86d7375468fac667a0a527016c29508e458543d8aa4df2abee7883018302821d6d0139601a2efabe717e604cbb4894018302821d6d02247f7a7b6594320649aa03aba1018302821d6c8c3f38e95a6b1ff2ab1c3b343619018302821d6d02384773bdf1ac5676facced60901901830290911d6cb9a025d814b29c212b8b1a07cd19019091027ffffffffffffffff5f6af8f7b3396644f18e157960000000000000000000000000105711340daa0d5f769dba1915cef59f0815a5506029290037d0267a36c0c95b3975ab3ee5b203a7614a3f75373f047d803ae7b6687f2b302919091010590565b5f613bfa6001600160a01b03841683613c60565b905080515f14158015613c1e575080806020019051810190613c1c91906154d1565b155b15611c4f576040517f5274afe70000000000000000000000000000000000000000000000000000000081526001600160a01b03841660048201526024016137e1565b6060610c2f83835f845f80856001600160a01b03168486604051613c84919061563a565b5f6040518083038185875af1925050503d805f8114613cbe576040519150601f19603f3d011682016040523d82523d5f602084013e613cc3565b606091505b509150915061378d868383606082613ce357613cde82613d43565b610c2f565b8151158015613cfa57506001600160a01b0384163b155b15613d3c576040517f9996b3150000000000000000000000000000000000000000000000000000000081526001600160a01b03851660048201526024016137e1565b5080610c2f565b805115613d535780518082602001fd5b6040517fd6bda27500000000000000000000000000000000000000000000000000000000815260040160405180910390fd5b5f8083601f840112613d95575f80fd5b5081356001600160401b03811115613dab575f80fd5b6020830191508360208260051b8501011115613dc5575f80fd5b9250929050565b5f8083601f840112613ddc575f80fd5b5081356001600160401b03811115613df2575f80fd5b60208301915083602060c083028501011115613dc5575f80fd5b6001600160401b03811681146139ca575f80fd5b8035613e2b81613e0c565b919050565b5f805f805f805f6080888a031215613e46575f80fd5b87356001600160401b0380821115613e5c575f80fd5b613e688b838c01613d85565b909950975060208a0135915080821115613e80575f80fd5b613e8c8b838c01613d85565b909750955060408a0135915080821115613ea4575f80fd5b50613eb18a828b01613dcc565b9094509250506060880135613ec581613e0c565b8091505092959891949750929550565b6001600160a01b03811681146139ca575f80fd5b634e487b7160e01b5f52604160045260245ffd5b604080519081016001600160401b0381118282101715613f1f57613f1f613ee9565b60405290565b604051608081016001600160401b0381118282101715613f1f57613f1f613ee9565b60405160e081016001600160401b0381118282101715613f1f57613f1f613ee9565b604051606081016001600160401b0381118282101715613f1f57613f1f613ee9565b604051601f8201601f191681016001600160401b0381118282101715613fb357613fb3613ee9565b604052919050565b5f6001600160401b03821115613fd357613fd3613ee9565b50601f01601f191660200190565b5f8060408385031215613ff2575f80fd5b8235613ffd81613ed5565b915060208301356001600160401b03811115614017575f80fd5b8301601f81018513614027575f80fd5b803561403a61403582613fbb565b613f8b565b81815286602083850101111561404e575f80fd5b816020840160208301375f602083830101528093505050509250929050565b5f81518084528060208401602086015e5f602082860101526020601f19601f83011685010191505092915050565b602081525f610c2f602083018461406d565b6001600160c01b03811681146139ca575f80fd5b5f602082840312156140d1575f80fd5b8135610c2f816140ad565b8060020b81146139ca575f80fd5b8035613e2b816140dc565b5f8060408385031215614106575f80fd5b8235614111816140ad565b91506020830135614121816140dc565b809150509250929050565b5f6020828403121561413c575f80fd5b5035919050565b5f60208284031215614153575f80fd5b8135610c2f816140dc565b5f8083601f84011261416e575f80fd5b5081356001600160401b03811115614184575f80fd5b60208301915083602060a083028501011115613dc5575f80fd5b5f805f805f805f805f805f60c08c8e0312156141b8575f80fd5b6001600160401b03808d3511156141cd575f80fd5b6141da8e8e358f01613d85565b909c509a5060208d01358110156141ef575f80fd5b6141ff8e60208f01358f01613d85565b909a50985060408d0135811015614214575f80fd5b6142248e60408f01358f01613d85565b909850965060608d0135811015614239575f80fd5b6142498e60608f01358f01613dcc565b909650945060808d013581101561425e575f80fd5b5061426f8d60808e01358e0161415e565b909350915061428060a08d01613e20565b90509295989b509295989b9093969950565b602080825282518282018190525f9190848201906040850190845b818110156142c9578351835292840192918401916001016142ad565b50909695505050505050565b5f805f805f805f6080888a0312156142eb575f80fd5b87356001600160401b0380821115614301575f80fd5b61430d8b838c01613d85565b909950975060208a0135915080821115614325575f80fd5b6143318b838c01613d85565b909750955060408a0135915080821115614349575f80fd5b50613eb18a828b0161415e565b5f805f60408486031215614368575f80fd5b83356001600160401b0381111561437d575f80fd5b61438986828701613d85565b909450925050602084013561439d81613e0c565b809150509250925092565b634e487b7160e01b5f52603260045260245ffd5b634e487b7160e01b5f52602160045260245ffd5b5f8235609e198336030181126143e4575f80fd5b9190910192915050565b5f808335601e19843603018112614403575f80fd5b83016020810192503590506001600160401b03811115614421575f80fd5b803603821315613dc5575f80fd5b81835281816020850137505f828201602090810191909152601f909101601f19169091010190565b5f8135614463816140ad565b6001600160c01b03811684525060208201356020840152604082013560408401526060820135606084015261449b60808301836143ee565b60a060808601526144b060a08601828461442f565b95945050505050565b602081525f610c2f6020830184614457565b5f600782106144e857634e487b7160e01b5f52602160045260245ffd5b50815260200190565b5f815180845260208085019450602084015f5b83811015614525576145178783516144cb565b965090820190600101614504565b509495945050505050565b5f8282518085526020808601955060208260051b840101602086015f5b8481101561457b57601f1986840301895261456983835161406d565b9884019892509083019060010161454d565b5090979650505050505050565b8183525f60208085019450825f5b858110156145255781356145a981613ed5565b6001600160a01b031687529582019590820190600101614596565b6001600160a01b0386168152608060208201525f6145e560808301876144f1565b82810360408401526145f78187614530565b9050828103606084015261373e818587614588565b6001600160a01b0383168152604060208201525f6136c2604083018461406d565b5f82601f83011261463c575f80fd5b815161464a61403582613fbb565b81815284602083860101111561465e575f80fd5b8160208501602083015e5f918101602001919091529392505050565b5f6020828403121561468a575f80fd5b81516001600160401b0381111561469f575f80fd5b6136c28482850161462d565b5f6001600160401b038211156146c3576146c3613ee9565b5060051b60200190565b600781106139ca575f80fd5b5f82601f8301126146e8575f80fd5b815160206146f8614035836146ab565b82815260059290921b84018101918181019086841115614716575f80fd5b8286015b848110156147535780516001600160401b03811115614737575f80fd5b6147458986838b010161462d565b84525091830191830161471a565b509695505050505050565b5f82601f83011261476d575f80fd5b8151602061477d614035836146ab565b8083825260208201915060208460051b87010193508684111561479e575f80fd5b602086015b848110156147535780516147b681613ed5565b83529183019183016147a3565b5f805f80608085870312156147d6575f80fd5b84516147e181613ed5565b809450506020808601516001600160401b03808211156147ff575f80fd5b818801915088601f830112614812575f80fd5b8151614820614035826146ab565b81815260059190911b8301840190848101908b83111561483e575f80fd5b938501935b82851015614865578451614856816146cd565b82529385019390850190614843565b60408b0151909850945050508083111561487d575f80fd5b61488989848a016146d9565b9450606088015192508083111561489e575f80fd5b50506148ac8782880161475e565b91505092959194509250565b62ffffff811681146139ca575f80fd5b5f60c082840312156148d8575f80fd5b60405160c081018181106001600160401b03821117156148fa576148fa613ee9565b8060405250809150825161490d81613ed5565b8152602083015161491d81613e0c565b6020820152604083015161493081613ed5565b60408201526060830151614943816148b8565b6060820152608083015161495681613ed5565b608082015260a0830151614969816148b8565b60a0919091015292915050565b5f60208284031215614986575f80fd5b81516001600160401b038082111561499c575f80fd5b9083019060e082860312156149af575f80fd5b6149b7613efd565b6149c186846148c8565b815260c0830151828111156149d4575f80fd5b6149e08782860161462d565b60208301525095945050505050565b8051613e2b816140ad565b8051613e2b816140dc565b5f60208284031215614a15575f80fd5b81516001600160401b0380821115614a2b575f80fd5b9083019060808286031215614a3e575f80fd5b614a46613f25565b8251614a51816140ad565b81526020830151614a61816140dc565b602082015260408381015190820152606083015182811115614a81575f80fd5b614a8d8782860161462d565b60608301525095945050505050565b634e487b7160e01b5f52601160045260245ffd5b5f60018201614ac157614ac1614a9c565b5060010190565b5f60208284031215614ad8575f80fd5b81516001600160401b0380821115614aee575f80fd5b9083019060e08286031215614b01575f80fd5b614b09613f47565b614b12836149ef565b8152614b20602084016149ef565b602082015260408301516040820152614b3b606084016149fa565b60608201526080830151608082015260a083015182811115614b5b575f80fd5b614b678782860161462d565b60a08301525060c083015182811115614b7e575f80fd5b614b8a8782860161462d565b60c08301525095945050505050565b5f60a08284031215614ba9575f80fd5b60405160a081016001600160401b038282108183111715614bcc57614bcc613ee9565b8160405282935084519150614be0826140ad565b8183526020850151602084015260408501516040840152606085015160608401526080850151915080821115614c14575f80fd5b50614c218582860161462d565b6080830152505092915050565b5f60208284031215614c3e575f80fd5b81516001600160401b03811115614c53575f80fd5b6136c284828501614b99565b5f60208284031215614c6f575f80fd5b81516001600160401b0380821115614c85575f80fd5b9083019060408286031215614c98575f80fd5b614ca0613efd565b825181526020830151828111156149d4575f80fd5b5f60208284031215614cc5575f80fd5b81516001600160401b0380821115614cdb575f80fd5b9083019060608286031215614cee575f80fd5b614cf6613f69565b8251815260208301516020820152604083015182811115614d15575f80fd5b614d218782860161462d565b60408301525095945050505050565b5f60208284031215614d40575f80fd5b8151610c2f816140dc565b5f60c08284031215614d5b575f80fd5b610c2f83836148c8565b5f60208284031215614d75575f80fd5b8151610c2f81613e0c565b8082028115828204841417610a2657610a26614a9c565b6001600160a01b0388168152608060208083018290529082018790525f90889060a08401835b8a811015614de9578335614dd0816146cd565b614dda83826144cb565b94840194925050600101614dbd565b5084810360408601528781528181019250600588901b81018201895f5b8a811015614e4057838303601f19018652614e21828d6143ee565b614e2c85828461442f565b978701979450505090840190600101614e06565b50508581036060870152614e5581888a614588565b9d9c50505050505050505050505050565b5f6020808385031215614e77575f80fd5b82516001600160401b03811115614e8c575f80fd5b8301601f81018513614e9c575f80fd5b8051614eaa614035826146ab565b81815260059190911b82018301908381019087831115614ec8575f80fd5b928401925b82841015614ee657835182529284019290840190614ecd565b979650505050505050565b5f8235607e198336030181126143e4575f80fd5b602081525f8235614f15816140ad565b6001600160c01b0381166020840152506020830135614f33816140dc565b8060020b60408401525060408301356060830152614f5460608401846143ee565b6080808501526144b060a08501828461442f565b5f8235603e198336030181126143e4575f80fd5b60208152813560208201525f614f9560208401846143ee565b6040808501526144b060608501828461442f565b5f8235605e198336030181126143e4575f80fd5b6020815281356020820152602082013560408201525f614fe060408401846143ee565b6060808501526144b060808501828461442f565b5f823560de198336030181126143e4575f80fd5b8035613e2b816148b8565b8035613e2b81613ed5565b602081525f823561502e81613ed5565b6001600160a01b0380821660208501526020850135915061504e82613e0c565b6001600160401b03821660408501526040850135915061506d82613ed5565b16606083810191909152830135615083816148b8565b62ffffff811660808401525061509b60808401615013565b6001600160a01b03811660a0840152506150b760a08401615008565b62ffffff811660c0840152506150d060c08401846143ee565b60e0808501526144b06101008501828461442f565b5f6001600160a01b03808716835260206080602085015261510960808501886144f1565b848103604086015261511b8188614530565b8581036060870152865180825260208089019350909101905f5b81811015615153578351861683529284019291840191600101615135565b50909a9950505050505050505050565b5f60608284031215615173575f80fd5b61517b613f69565b825161518681613ed5565b8152602083015161519681613e0c565b602082015260408301516151a981613e0c565b60408201529392505050565b5f7f800000000000000000000000000000000000000000000000000000000000000082036151e5576151e5614a9c565b505f0390565b80820180821115610a2657610a26614a9c565b81810381811115610a2657610a26614a9c565b602081525f8235615221816140ad565b6001600160c01b038116602084015250602083013561523f816140ad565b6001600160c01b03811660408401525060408301356060830152615265606084016140ea565b615274608084018260020b9052565b50608083013560a083015261528c60a08401846143ee565b60e060c08501526152a26101008501828461442f565b9150506152b260c08501856143ee565b848303601f190160e086015261378d83828461442f565b5f608082840312156152d9575f80fd5b6152e1613f25565b905081358152602082013560ff811681146152fa575f80fd5b80602083015250604082013560408201526060820135606082015292915050565b5f60c0828403121561532b575f80fd5b615333613f69565b823561533e81613ed5565b8152602083810135908201526151a984604085016152c9565b6153b981846001600160a01b038082511683526001600160401b036020830151166020840152806040830151166040840152606082015162ffffff80821660608601528260808501511660808601528060a08501511660a08601525050505050565b60e060c08201525f6136c260e083018461406d565b634e487b7160e01b5f52601260045260245ffd5b5f826153fc57634e487b7160e01b5f52601260045260245ffd5b500490565b5f6101406154688386516001600160a01b038082511683526001600160401b036020830151166020840152806040830151166040840152606082015162ffffff80821660608601528260808501511660808601528060a08501511660a08601525050505050565b602085015160020b60c08401526001600160401b0360408601511660e08401526001600160a01b03606086015116610100840152806101208401526144b08184018561406d565b5f80604083850312156154c0575f80fd5b505080516020909101519092909150565b5f602082840312156154e1575f80fd5b81518015158114610c2f575f80fd5b5f6101206155578386516001600160a01b038082511683526001600160401b036020830151166020840152806040830151166040840152606082015162ffffff80821660608601528260808501511660808601528060a08501511660a08601525050505050565b602085015160020b60c08401526001600160401b0360408601511660e0840152806101008401526144b08184018561406d565b5f6020828403121561559a575f80fd5b8151610c2f81613ed5565b828152604060208201525f6136c2604083018461406d565b5f602082840312156155cd575f80fd5b5051919050565b825181526001600160401b036020840151166020820152606060408201525f6136c2606083018461406d565b5f8160020b627fffff19810361561857615618614a9c565b5f0392915050565b5f60808284031215615630575f80fd5b610c2f83836152c9565b5f82518060208501845e5f92019182525091905056fea2646970667358221220b537ac4693553f32a21286b23b6505a0033469e40ba736b0ea7a19b453a191ee64736f6c63430008190033",
  "devdoc": {
    "errors": {
      "AddressEmptyCode(address)": [
        {
          "details": "There's no code at `target` (it is not a contract)."
        }
      ],
      "FailedCall()": [
        {
          "details": "A call to an address target failed. The target may have reverted."
        }
      ],
      "InsufficientBalance(uint256,uint256)": [
        {
          "details": "The ETH balance of the account is not enough to perform the operation."
        }
      ],
      "SafeCastOverflowedUintDowncast(uint8,uint256)": [
        {
          "details": "Value doesn't fit in an uint of `bits` size."
        }
      ],
      "SafeERC20FailedOperation(address)": [
        {
          "details": "An operation with an ERC-20 token failed."
        }
      ]
    },
    "kind": "dev",
    "methods": {
      "cancel((uint256,uint256,bytes)[],address[],(uint256,(uint256,uint8,bytes32,bytes32))[],uint64)": {
        "details": "IMPORTANT: The caller must provide `tokensToSettle` to receive appropriate tokens after execution.",
        "params": {
          "deadline": "The deadline for the actions",
          "orderParamsList": "The list of actions to cancel",
          "permitParamsList": "The parameters of the permits",
          "tokensToSettle": "The tokens to settle"
        }
      },
      "claim((uint256,bytes)[],address[],(uint256,(uint256,uint8,bytes32,bytes32))[],uint64)": {
        "details": "IMPORTANT: The caller must provide `tokensToSettle` to receive appropriate tokens after execution.",
        "params": {
          "deadline": "The deadline for the actions",
          "orderParamsList": "The list of actions to claim",
          "permitParamsList": "The parameters of the permits",
          "tokensToSettle": "The tokens to settle"
        }
      },
      "execute(uint8[],bytes[],address[],(address,uint256,(uint256,uint8,bytes32,bytes32))[],(uint256,(uint256,uint8,bytes32,bytes32))[],uint64)": {
        "details": "IMPORTANT: The caller must provide `tokensToSettle` to receive appropriate tokens after execution.",
        "params": {
          "actionList": "The list of actions to execute",
          "deadline": "The deadline for the actions",
          "erc20PermitParamsList": "The parameters of the ERC20 permits",
          "erc721PermitParamsList": "The parameters of the ERC721 permits",
          "paramsDataList": "The parameters of the actions",
          "tokensToSettle": "The tokens to settle"
        },
        "returns": {
          "ids": "The ids of the orders"
        }
      },
      "fromPrice(uint256)": {
        "params": {
          "price": "The price to convert"
        },
        "returns": {
          "_0": "The tick"
        }
      },
      "getDepth(uint192,int24)": {
        "params": {
          "id": "The id of the book",
          "tick": "The tick of the book"
        },
        "returns": {
          "_0": "The depth of the book in quote amount"
        }
      },
      "getHighestPrice(uint192)": {
        "params": {
          "id": "The id of the book"
        },
        "returns": {
          "_0": "The highest price of the book with 2**96 precision"
        }
      },
      "getOrder(uint256)": {
        "params": {
          "orderId": "The id of the order"
        },
        "returns": {
          "claimableAmount": "The claimable base amount of the order",
          "openAmount": "The open quote amount of the order",
          "price": "The price of the order with 2**96 precision",
          "provider": "The provider of the order"
        }
      },
      "make((uint192,int24,uint256,bytes)[],address[],(address,uint256,(uint256,uint8,bytes32,bytes32))[],uint64)": {
        "details": "IMPORTANT: The caller must provide `tokensToSettle` to receive appropriate tokens after execution.",
        "params": {
          "deadline": "The deadline for the actions",
          "orderParamsList": "The list of actions to make",
          "permitParamsList": "The parameters of the permits",
          "tokensToSettle": "The tokens to settle"
        },
        "returns": {
          "ids": "The ids of the orders"
        }
      },
      "open(((address,uint64,address,uint24,address,uint24),bytes)[],uint64)": {
        "params": {
          "deadline": "The deadline for the action",
          "openBookParamsList": "The parameters of the open book action"
        }
      },
      "spend((uint192,uint256,uint256,uint256,bytes)[],address[],(address,uint256,(uint256,uint8,bytes32,bytes32))[],uint64)": {
        "details": "IMPORTANT: The caller must provide `tokensToSettle` to receive appropriate tokens after execution.",
        "params": {
          "deadline": "The deadline for the actions",
          "orderParamsList": "The list of actions to spend",
          "permitParamsList": "The parameters of the permits",
          "tokensToSettle": "The tokens to settle"
        }
      },
      "take((uint192,uint256,uint256,uint256,bytes)[],address[],(address,uint256,(uint256,uint8,bytes32,bytes32))[],uint64)": {
        "details": "IMPORTANT: The caller must provide `tokensToSettle` to receive appropriate tokens after execution.",
        "params": {
          "deadline": "The deadline for the actions",
          "orderParamsList": "The list of actions to take",
          "permitParamsList": "The parameters of the permits",
          "tokensToSettle": "The tokens to settle"
        }
      },
      "toPrice(int24)": {
        "params": {
          "tick": "The tick to convert"
        },
        "returns": {
          "_0": "The price with 2**96 precision"
        }
      }
    },
    "stateVariables": {
      "bookManager": {
        "return": "The instance of the book manager",
        "returns": {
          "_0": "The instance of the book manager"
        }
      }
    },
    "version": 1
  },
  "userdoc": {
    "errors": {
      "ERC20TransferFailed()": [
        {
          "notice": "Thrown when an ERC20 transfer fails"
        }
      ],
      "NativeTransferFailed()": [
        {
          "notice": "Thrown when a native transfer fails"
        }
      ]
    },
    "kind": "user",
    "methods": {
      "bookManager()": {
        "notice": "Returns the book manager"
      },
      "cancel((uint256,uint256,bytes)[],address[],(uint256,(uint256,uint8,bytes32,bytes32))[],uint64)": {
        "notice": "Cancels a list of orders"
      },
      "claim((uint256,bytes)[],address[],(uint256,(uint256,uint8,bytes32,bytes32))[],uint64)": {
        "notice": "Claims a list of orders"
      },
      "execute(uint8[],bytes[],address[],(address,uint256,(uint256,uint8,bytes32,bytes32))[],(uint256,(uint256,uint8,bytes32,bytes32))[],uint64)": {
        "notice": "Executes a list of actions"
      },
      "fromPrice(uint256)": {
        "notice": "Converts a price to a tick"
      },
      "getDepth(uint192,int24)": {
        "notice": "Returns the depth of a book"
      },
      "getHighestPrice(uint192)": {
        "notice": "Returns the highest price of a book"
      },
      "getOrder(uint256)": {
        "notice": "Returns the details of an order"
      },
      "make((uint192,int24,uint256,bytes)[],address[],(address,uint256,(uint256,uint8,bytes32,bytes32))[],uint64)": {
        "notice": "Makes a list of orders"
      },
      "open(((address,uint64,address,uint24,address,uint24),bytes)[],uint64)": {
        "notice": "Opens a book"
      },
      "spend((uint192,uint256,uint256,uint256,bytes)[],address[],(address,uint256,(uint256,uint8,bytes32,bytes32))[],uint64)": {
        "notice": "Spends to take a list of orders"
      },
      "take((uint192,uint256,uint256,uint256,bytes)[],address[],(address,uint256,(uint256,uint8,bytes32,bytes32))[],uint64)": {
        "notice": "Takes a list of orders"
      },
      "toPrice(int24)": {
        "notice": "Converts a tick to a price"
      }
    },
    "version": 1
  },
  "storageLayout": {
    "storage": [],
    "types": null
  }
}