{
  "address": "0x3e15fee68C06A0Cd3aF5430A665a9dd502C8544e",
  "abi": [
    {
      "inputs": [
        {
          "internalType": "address",
          "name": "bookManager",
          "type": "address"
        }
      ],
      "stateMutability": "nonpayable",
      "type": "constructor"
    },
    {
      "inputs": [
        {
          "internalType": "address",
          "name": "target",
          "type": "address"
        }
      ],
      "name": "AddressEmptyCode",
      "type": "error"
    },
    {
      "inputs": [],
      "name": "ControllerSlippage",
      "type": "error"
    },
    {
      "inputs": [],
      "name": "Deadline",
      "type": "error"
    },
    {
      "inputs": [],
      "name": "ERC20TransferFailed",
      "type": "error"
    },
    {
      "inputs": [],
      "name": "FailedCall",
      "type": "error"
    },
    {
      "inputs": [
        {
          "internalType": "uint256",
          "name": "balance",
          "type": "uint256"
        },
        {
          "internalType": "uint256",
          "name": "needed",
          "type": "uint256"
        }
      ],
      "name": "InsufficientBalance",
      "type": "error"
    },
    {
      "inputs": [],
      "name": "InvalidAccess",
      "type": "error"
    },
    {
      "inputs": [],
      "name": "InvalidAction",
      "type": "error"
    },
    {
      "inputs": [],
      "name": "InvalidLength",
      "type": "error"
    },
    {
      "inputs": [],
      "name": "InvalidPrice",
      "type": "error"
    },
    {
      "inputs": [],
      "name": "InvalidTick",
      "type": "error"
    },
    {
      "inputs": [],
      "name": "NativeTransferFailed",
      "type": "error"
    },
    {
      "inputs": [],
      "name": "ReentrancyGuardReentrantCall",
      "type": "error"
    },
    {
      "inputs": [
        {
          "internalType": "uint8",
          "name": "bits",
          "type": "uint8"
        },
        {
          "internalType": "uint256",
          "name": "value",
          "type": "uint256"
        }
      ],
      "name": "SafeCastOverflowedUintDowncast",
      "type": "error"
    },
    {
      "inputs": [
        {
          "internalType": "address",
          "name": "token",
          "type": "address"
        }
      ],
      "name": "SafeERC20FailedOperation",
      "type": "error"
    },
    {
      "inputs": [
        {
          "components": [
            {
              "internalType": "OrderId",
              "name": "id",
              "type": "uint256"
            },
            {
              "internalType": "uint256",
              "name": "leftQuoteAmount",
              "type": "uint256"
            },
            {
              "internalType": "bytes",
              "name": "hookData",
              "type": "bytes"
            }
          ],
          "internalType": "struct IController.CancelOrderParams[]",
          "name": "orderParamsList",
          "type": "tuple[]"
        },
        {
          "internalType": "address[]",
          "name": "tokensToSettle",
          "type": "address[]"
        },
        {
          "components": [
            {
              "internalType": "uint256",
              "name": "tokenId",
              "type": "uint256"
            },
            {
              "components": [
                {
                  "internalType": "uint256",
                  "name": "deadline",
                  "type": "uint256"
                },
                {
                  "internalType": "uint8",
                  "name": "v",
                  "type": "uint8"
                },
                {
                  "internalType": "bytes32",
                  "name": "r",
                  "type": "bytes32"
                },
                {
                  "internalType": "bytes32",
                  "name": "s",
                  "type": "bytes32"
                }
              ],
              "internalType": "struct IController.PermitSignature",
              "name": "signature",
              "type": "tuple"
            }
          ],
          "internalType": "struct IController.ERC721PermitParams[]",
          "name": "permitParamsList",
          "type": "tuple[]"
        },
        {
          "internalType": "uint64",
          "name": "deadline",
          "type": "uint64"
        }
      ],
      "name": "cancel",
      "outputs": [],
      "stateMutability": "nonpayable",
      "type": "function"
    },
    {
      "inputs": [
        {
          "components": [
            {
              "internalType": "OrderId",
              "name": "id",
              "type": "uint256"
            },
            {
              "internalType": "bytes",
              "name": "hookData",
              "type": "bytes"
            }
          ],
          "internalType": "struct IController.ClaimOrderParams[]",
          "name": "orderParamsList",
          "type": "tuple[]"
        },
        {
          "internalType": "address[]",
          "name": "tokensToSettle",
          "type": "address[]"
        },
        {
          "components": [
            {
              "internalType": "uint256",
              "name": "tokenId",
              "type": "uint256"
            },
            {
              "components": [
                {
                  "internalType": "uint256",
                  "name": "deadline",
                  "type": "uint256"
                },
                {
                  "internalType": "uint8",
                  "name": "v",
                  "type": "uint8"
                },
                {
                  "internalType": "bytes32",
                  "name": "r",
                  "type": "bytes32"
                },
                {
                  "internalType": "bytes32",
                  "name": "s",
                  "type": "bytes32"
                }
              ],
              "internalType": "struct IController.PermitSignature",
              "name": "signature",
              "type": "tuple"
            }
          ],
          "internalType": "struct IController.ERC721PermitParams[]",
          "name": "permitParamsList",
          "type": "tuple[]"
        },
        {
          "internalType": "uint64",
          "name": "deadline",
          "type": "uint64"
        }
      ],
      "name": "claim",
      "outputs": [],
      "stateMutability": "nonpayable",
      "type": "function"
    },
    {
      "inputs": [
        {
          "internalType": "enum IController.Action[]",
          "name": "actionList",
          "type": "uint8[]"
        },
        {
          "internalType": "bytes[]",
          "name": "paramsDataList",
          "type": "bytes[]"
        },
        {
          "internalType": "address[]",
          "name": "tokensToSettle",
          "type": "address[]"
        },
        {
          "components": [
            {
              "internalType": "address",
              "name": "token",
              "type": "address"
            },
            {
              "internalType": "uint256",
              "name": "permitAmount",
              "type": "uint256"
            },
            {
              "components": [
                {
                  "internalType": "uint256",
                  "name": "deadline",
                  "type": "uint256"
                },
                {
                  "internalType": "uint8",
                  "name": "v",
                  "type": "uint8"
                },
                {
                  "internalType": "bytes32",
                  "name": "r",
                  "type": "bytes32"
                },
                {
                  "internalType": "bytes32",
                  "name": "s",
                  "type": "bytes32"
                }
              ],
              "internalType": "struct IController.PermitSignature",
              "name": "signature",
              "type": "tuple"
            }
          ],
          "internalType": "struct IController.ERC20PermitParams[]",
          "name": "erc20PermitParamsList",
          "type": "tuple[]"
        },
        {
          "components": [
            {
              "internalType": "uint256",
              "name": "tokenId",
              "type": "uint256"
            },
            {
              "components": [
                {
                  "internalType": "uint256",
                  "name": "deadline",
                  "type": "uint256"
                },
                {
                  "internalType": "uint8",
                  "name": "v",
                  "type": "uint8"
                },
                {
                  "internalType": "bytes32",
                  "name": "r",
                  "type": "bytes32"
                },
                {
                  "internalType": "bytes32",
                  "name": "s",
                  "type": "bytes32"
                }
              ],
              "internalType": "struct IController.PermitSignature",
              "name": "signature",
              "type": "tuple"
            }
          ],
          "internalType": "struct IController.ERC721PermitParams[]",
          "name": "erc721PermitParamsList",
          "type": "tuple[]"
        },
        {
          "internalType": "uint64",
          "name": "deadline",
          "type": "uint64"
        }
      ],
      "name": "execute",
      "outputs": [
        {
          "internalType": "OrderId[]",
          "name": "ids",
          "type": "uint256[]"
        }
      ],
      "stateMutability": "payable",
      "type": "function"
    },
    {
      "inputs": [
        {
          "internalType": "uint256",
          "name": "price",
          "type": "uint256"
        }
      ],
      "name": "fromPrice",
      "outputs": [
        {
          "internalType": "Tick",
          "name": "",
          "type": "int24"
        }
      ],
      "stateMutability": "pure",
      "type": "function"
    },
    {
      "inputs": [
        {
          "internalType": "BookId",
          "name": "id",
          "type": "uint192"
        },
        {
          "internalType": "Tick",
          "name": "tick",
          "type": "int24"
        }
      ],
      "name": "getDepth",
      "outputs": [
        {
          "internalType": "uint256",
          "name": "",
          "type": "uint256"
        }
      ],
      "stateMutability": "view",
      "type": "function"
    },
    {
      "inputs": [
        {
          "internalType": "BookId",
          "name": "id",
          "type": "uint192"
        }
      ],
      "name": "getHighestPrice",
      "outputs": [
        {
          "internalType": "uint256",
          "name": "",
          "type": "uint256"
        }
      ],
      "stateMutability": "view",
      "type": "function"
    },
    {
      "inputs": [
        {
          "internalType": "OrderId",
          "name": "orderId",
          "type": "uint256"
        }
      ],
      "name": "getOrder",
      "outputs": [
        {
          "internalType": "address",
          "name": "provider",
          "type": "address"
        },
        {
          "internalType": "uint256",
          "name": "price",
          "type": "uint256"
        },
        {
          "internalType": "uint256",
          "name": "openAmount",
          "type": "uint256"
        },
        {
          "internalType": "uint256",
          "name": "claimableAmount",
          "type": "uint256"
        }
      ],
      "stateMutability": "view",
      "type": "function"
    },
    {
      "inputs": [
        {
          "components": [
            {
              "internalType": "BookId",
              "name": "takeBookId",
              "type": "uint192"
            },
            {
              "internalType": "BookId",
              "name": "makeBookId",
              "type": "uint192"
            },
            {
              "internalType": "uint256",
              "name": "limitPrice",
              "type": "uint256"
            },
            {
              "internalType": "Tick",
              "name": "tick",
              "type": "int24"
            },
            {
              "internalType": "uint256",
              "name": "quoteAmount",
              "type": "uint256"
            },
            {
              "internalType": "bytes",
              "name": "takeHookData",
              "type": "bytes"
            },
            {
              "internalType": "bytes",
              "name": "makeHookData",
              "type": "bytes"
            }
          ],
          "internalType": "struct IController.LimitOrderParams[]",
          "name": "orderParamsList",
          "type": "tuple[]"
        },
        {
          "internalType": "address[]",
          "name": "tokensToSettle",
          "type": "address[]"
        },
        {
          "components": [
            {
              "internalType": "address",
              "name": "token",
              "type": "address"
            },
            {
              "internalType": "uint256",
              "name": "permitAmount",
              "type": "uint256"
            },
            {
              "components": [
                {
                  "internalType": "uint256",
                  "name": "deadline",
                  "type": "uint256"
                },
                {
                  "internalType": "uint8",
                  "name": "v",
                  "type": "uint8"
                },
                {
                  "internalType": "bytes32",
                  "name": "r",
                  "type": "bytes32"
                },
                {
                  "internalType": "bytes32",
                  "name": "s",
                  "type": "bytes32"
                }
              ],
              "internalType": "struct IController.PermitSignature",
              "name": "signature",
              "type": "tuple"
            }
          ],
          "internalType": "struct IController.ERC20PermitParams[]",
          "name": "permitParamsList",
          "type": "tuple[]"
        },
        {
          "internalType": "uint64",
          "name": "deadline",
          "type": "uint64"
        }
      ],
      "name": "limit",
      "outputs": [
        {
          "internalType": "OrderId[]",
          "name": "ids",
          "type": "uint256[]"
        }
      ],
      "stateMutability": "payable",
      "type": "function"
    },
    {
      "inputs": [
        {
          "internalType": "address",
          "name": "sender",
          "type": "address"
        },
        {
          "internalType": "bytes",
          "name": "data",
          "type": "bytes"
        }
      ],
      "name": "lockAcquired",
      "outputs": [
        {
          "internalType": "bytes",
          "name": "returnData",
          "type": "bytes"
        }
      ],
      "stateMutability": "nonpayable",
      "type": "function"
    },
    {
      "inputs": [
        {
          "components": [
            {
              "internalType": "BookId",
              "name": "id",
              "type": "uint192"
            },
            {
              "internalType": "Tick",
              "name": "tick",
              "type": "int24"
            },
            {
              "internalType": "uint256",
              "name": "quoteAmount",
              "type": "uint256"
            },
            {
              "internalType": "bytes",
              "name": "hookData",
              "type": "bytes"
            }
          ],
          "internalType": "struct IController.MakeOrderParams[]",
          "name": "orderParamsList",
          "type": "tuple[]"
        },
        {
          "internalType": "address[]",
          "name": "tokensToSettle",
          "type": "address[]"
        },
        {
          "components": [
            {
              "internalType": "address",
              "name": "token",
              "type": "address"
            },
            {
              "internalType": "uint256",
              "name": "permitAmount",
              "type": "uint256"
            },
            {
              "components": [
                {
                  "internalType": "uint256",
                  "name": "deadline",
                  "type": "uint256"
                },
                {
                  "internalType": "uint8",
                  "name": "v",
                  "type": "uint8"
                },
                {
                  "internalType": "bytes32",
                  "name": "r",
                  "type": "bytes32"
                },
                {
                  "internalType": "bytes32",
                  "name": "s",
                  "type": "bytes32"
                }
              ],
              "internalType": "struct IController.PermitSignature",
              "name": "signature",
              "type": "tuple"
            }
          ],
          "internalType": "struct IController.ERC20PermitParams[]",
          "name": "permitParamsList",
          "type": "tuple[]"
        },
        {
          "internalType": "uint64",
          "name": "deadline",
          "type": "uint64"
        }
      ],
      "name": "make",
      "outputs": [
        {
          "internalType": "OrderId[]",
          "name": "ids",
          "type": "uint256[]"
        }
      ],
      "stateMutability": "payable",
      "type": "function"
    },
    {
      "inputs": [
        {
          "components": [
            {
              "components": [
                {
                  "internalType": "Currency",
                  "name": "base",
                  "type": "address"
                },
                {
                  "internalType": "uint64",
                  "name": "unitSize",
                  "type": "uint64"
                },
                {
                  "internalType": "Currency",
                  "name": "quote",
                  "type": "address"
                },
                {
                  "internalType": "FeePolicy",
                  "name": "makerPolicy",
                  "type": "uint24"
                },
                {
                  "internalType": "contract IHooks",
                  "name": "hooks",
                  "type": "address"
                },
                {
                  "internalType": "FeePolicy",
                  "name": "takerPolicy",
                  "type": "uint24"
                }
              ],
              "internalType": "struct IBookManager.BookKey",
              "name": "key",
              "type": "tuple"
            },
            {
              "internalType": "bytes",
              "name": "hookData",
              "type": "bytes"
            }
          ],
          "internalType": "struct IController.OpenBookParams[]",
          "name": "openBookParamsList",
          "type": "tuple[]"
        },
        {
          "internalType": "uint64",
          "name": "deadline",
          "type": "uint64"
        }
      ],
      "name": "open",
      "outputs": [],
      "stateMutability": "nonpayable",
      "type": "function"
    },
    {
      "inputs": [
        {
          "components": [
            {
              "internalType": "BookId",
              "name": "id",
              "type": "uint192"
            },
            {
              "internalType": "uint256",
              "name": "limitPrice",
              "type": "uint256"
            },
            {
              "internalType": "uint256",
              "name": "baseAmount",
              "type": "uint256"
            },
            {
              "internalType": "uint256",
              "name": "minQuoteAmount",
              "type": "uint256"
            },
            {
              "internalType": "bytes",
              "name": "hookData",
              "type": "bytes"
            }
          ],
          "internalType": "struct IController.SpendOrderParams[]",
          "name": "orderParamsList",
          "type": "tuple[]"
        },
        {
          "internalType": "address[]",
          "name": "tokensToSettle",
          "type": "address[]"
        },
        {
          "components": [
            {
              "internalType": "address",
              "name": "token",
              "type": "address"
            },
            {
              "internalType": "uint256",
              "name": "permitAmount",
              "type": "uint256"
            },
            {
              "components": [
                {
                  "internalType": "uint256",
                  "name": "deadline",
                  "type": "uint256"
                },
                {
                  "internalType": "uint8",
                  "name": "v",
                  "type": "uint8"
                },
                {
                  "internalType": "bytes32",
                  "name": "r",
                  "type": "bytes32"
                },
                {
                  "internalType": "bytes32",
                  "name": "s",
                  "type": "bytes32"
                }
              ],
              "internalType": "struct IController.PermitSignature",
              "name": "signature",
              "type": "tuple"
            }
          ],
          "internalType": "struct IController.ERC20PermitParams[]",
          "name": "permitParamsList",
          "type": "tuple[]"
        },
        {
          "internalType": "uint64",
          "name": "deadline",
          "type": "uint64"
        }
      ],
      "name": "spend",
      "outputs": [],
      "stateMutability": "payable",
      "type": "function"
    },
    {
      "inputs": [
        {
          "components": [
            {
              "internalType": "BookId",
              "name": "id",
              "type": "uint192"
            },
            {
              "internalType": "uint256",
              "name": "limitPrice",
              "type": "uint256"
            },
            {
              "internalType": "uint256",
              "name": "quoteAmount",
              "type": "uint256"
            },
            {
              "internalType": "uint256",
              "name": "maxBaseAmount",
              "type": "uint256"
            },
            {
              "internalType": "bytes",
              "name": "hookData",
              "type": "bytes"
            }
          ],
          "internalType": "struct IController.TakeOrderParams[]",
          "name": "orderParamsList",
          "type": "tuple[]"
        },
        {
          "internalType": "address[]",
          "name": "tokensToSettle",
          "type": "address[]"
        },
        {
          "components": [
            {
              "internalType": "address",
              "name": "token",
              "type": "address"
            },
            {
              "internalType": "uint256",
              "name": "permitAmount",
              "type": "uint256"
            },
            {
              "components": [
                {
                  "internalType": "uint256",
                  "name": "deadline",
                  "type": "uint256"
                },
                {
                  "internalType": "uint8",
                  "name": "v",
                  "type": "uint8"
                },
                {
                  "internalType": "bytes32",
                  "name": "r",
                  "type": "bytes32"
                },
                {
                  "internalType": "bytes32",
                  "name": "s",
                  "type": "bytes32"
                }
              ],
              "internalType": "struct IController.PermitSignature",
              "name": "signature",
              "type": "tuple"
            }
          ],
          "internalType": "struct IController.ERC20PermitParams[]",
          "name": "permitParamsList",
          "type": "tuple[]"
        },
        {
          "internalType": "uint64",
          "name": "deadline",
          "type": "uint64"
        }
      ],
      "name": "take",
      "outputs": [],
      "stateMutability": "payable",
      "type": "function"
    },
    {
      "inputs": [
        {
          "internalType": "Tick",
          "name": "tick",
          "type": "int24"
        }
      ],
      "name": "toPrice",
      "outputs": [
        {
          "internalType": "uint256",
          "name": "",
          "type": "uint256"
        }
      ],
      "stateMutability": "pure",
      "type": "function"
    },
    {
      "stateMutability": "payable",
      "type": "receive"
    }
  ],
  "transactionHash": "0xd2f2efee7578c89cf8ec37a5ed13e0e8ea3689df36d9a27aad6c2e22aee2c80e",
  "args": [
    "0x3a90fbD5DbE4C82018A4Ac28406A50917dB91def"
  ],
  "numDeployments": 1,
  "solcInputHash": "7afafc54debe8773b83841e6b174297d",
  "bytecode": "0x60a0604052348015600e575f80fd5b506040516157d13803806157d1833981016040819052602b91603b565b6001600160a01b03166080526066565b5f60208284031215604a575f80fd5b81516001600160a01b0381168114605f575f80fd5b9392505050565b6080516156496101885f395f81816104900152818161052f01528181610713015281816108f101528181610a3801528181610bc801528181610c5901528181610d2301528181610e7e015281816110f101528181611356015281816117130152818161195601528181611a1901528181611e7501528181611efd01528181611fdd0152818161219101528181612234015281816122cf015281816123dc01528181612520015281816125c30152818161265e01528181612777015281816128c50152818161293f015281816129e301528181612ade01528181612b5601528181612bae01528181612c3f01528181612cf901528181612da301528181612e1e01528181612e9801528181612f2901528181612f9e015261358201526156495ff3fe6080604052600436106100dc575f3560e01c80637d7731101161007c578063a183a10411610057578063a183a1041461023f578063c0e8e89a1461025e578063d09ef24114610271578063fe815746146102ba575f80fd5b80637d773110146101ee5780638feb85b714610201578063a04c796b14610220575f80fd5b806341a8bb88116100b757806341a8bb881461015e578063483f9f2f1461017d57806350835858146101af5780637658ab05146101ce575f80fd5b806309ae2c13146100e757806315c7afb4146100fc5780631ae45a1214610131575f80fd5b366100e357005b5f80fd5b6100fa6100f5366004613dfe565b6102cd565b005b348015610107575f80fd5b5061011b610116366004613faf565b61051a565b6040516101289190614069565b60405180910390f35b34801561013c575f80fd5b5061015061014b36600461408f565b610b9c565b604051908152602001610128565b348015610169575f80fd5b506101506101783660046140c3565b610c39565b348015610188575f80fd5b5061019c6101973660046140fa565b610da6565b60405160029190910b8152602001610128565b3480156101ba575f80fd5b506101506101c9366004614111565b610db0565b6101e16101dc36600461416c565b610dbd565b6040516101289190614260565b6101e16101fc366004613dfe565b610f2a565b34801561020c575f80fd5b506100fa61021b3660046142a3565b611195565b34801561022b575f80fd5b506100fa61023a3660046142a3565b6113de565b34801561024a575f80fd5b506100fa610259366004614324565b61155d565b6100fa61026c366004613dfe565b611798565b34801561027c575f80fd5b5061029061028b3660046140fa565b611919565b604080516001600160a01b0390951685526020850193909352918301526060820152608001610128565b6101e16102c8366004613dfe565b611b35565b80806001600160401b03164211156102f85760405163637910d560e11b815260040160405180910390fd5b83836103048282611cb8565b885f816001600160401b0381111561031e5761031e613eb7565b604051908082528060200260200182016040528015610347578160200160208202803683370190505b5090505f826001600160401b0381111561036357610363613eb7565b60405190808252806020026020018201604052801561039657816020015b60608152602001906001900390816103815790505b5090505f5b8381101561044e5760038382815181106103b7576103b7614376565b602002602001019060068111156103d0576103d061438a565b908160068111156103e3576103e361438a565b9052508d8d828181106103f8576103f8614376565b905060200281019061040a919061439e565b60405160200161041a9190614487565b60405160208183030381529060405282828151811061043b5761043b614376565b602090810291909101015260010161039b565b505f3383838e8e604051602001610469959493929190614592565b60408051601f19818403018152908290526313942f3360e31b825291506001600160a01b037f00000000000000000000000000000000000000000000000000000000000000001690639ca17998906104c790309085906004016145da565b5f604051808303815f875af11580156104e2573d5f803e3d5ffd5b505050506040513d5f823e601f3d908101601f191682016040526105099190810190614648565b505050505050505050505050505050565b6060610524611dbf565b336001600160a01b037f00000000000000000000000000000000000000000000000000000000000000001614158061056557506001600160a01b0383163014155b1561059c576040517fc0185c6400000000000000000000000000000000000000000000000000000000815260040160405180910390fd5b5f805f80858060200190518101906105b49190614791565b8251939750919550935091505f816001600160401b038111156105d9576105d9613eb7565b604051908082528060200260200182016040528015610602578160200160208202803683370190505b5090505f805b83811015610b57575f87828151811061062357610623614376565b602002602001015190505f600681111561063f5761063f61438a565b8160068111156106515761065161438a565b036106905761068b87838151811061066b5761066b614376565b60200260200101518060200190518101906106869190614944565b611e3e565b610b4e565b60018160068111156106a4576106a461438a565b0361079c575f6106df8884815181106106bf576106bf614376565b60200260200101518060200190518101906106da91906149d3565b611ed8565b90508015610796576040516323b872dd60e01b81523060048201526001600160a01b038b81166024830152604482018390527f000000000000000000000000000000000000000000000000000000000000000016906323b872dd906064015f604051808303815f87803b158015610754575f80fd5b505af1158015610766573d5f803e3d5ffd5b505050508085858061077790614a7e565b96508151811061078957610789614376565b6020026020010181815250505b50610b4e565b60028160068111156107b0576107b061438a565b036107eb575f6106df8884815181106107cb576107cb614376565b60200260200101518060200190518101906107e69190614a96565b6120b1565b60038160068111156107ff576107ff61438a565b036108405761083987838151811061081957610819614376565b60200260200101518060200190518101906108349190614bfc565b61216a565b5050610b4e565b60048160068111156108545761085461438a565b0361088e5761083987838151811061086e5761086e614376565b60200260200101518060200190518101906108899190614bfc565b6124f9565b60058160068111156108a2576108a261438a565b036109d5575f8783815181106108ba576108ba614376565b60200260200101518060200190518101906108d59190614c2d565b80516040516331a9108f60e11b815260048101829052919250907f00000000000000000000000000000000000000000000000000000000000000006001600160a01b031690632f584a6d908290636352211e90602401602060405180830381865afa158015610946573d5f803e3d5ffd5b505050506040513d601f19601f8201168201806040525081019061096a9190614c83565b6040516001600160e01b031960e084901b1681526001600160a01b039182166004820152908e166024820152604481018490526064015f6040518083038186803b1580156109b6575f80fd5b505afa1580156109c8573d5f803e3d5ffd5b505050506108398261288e565b60068160068111156109e9576109e961438a565b03610b1c575f878381518110610a0157610a01614376565b6020026020010151806020019051810190610a1c9190614c9e565b80516040516331a9108f60e11b815260048101829052919250907f00000000000000000000000000000000000000000000000000000000000000006001600160a01b031690632f584a6d908290636352211e90602401602060405180830381865afa158015610a8d573d5f803e3d5ffd5b505050506040513d601f19601f82011682018060405250810190610ab19190614c83565b6040516001600160e01b031960e084901b1681526001600160a01b039182166004820152908e166024820152604481018490526064015f6040518083038186803b158015610afd575f80fd5b505afa158015610b0f573d5f803e3d5ffd5b505050506108398261293c565b6040517f4a7f394f00000000000000000000000000000000000000000000000000000000815260040160405180910390fd5b50600101610608565b50610b628785612ab6565b80825281604051602001610b769190614260565b604051602081830303815290604052975050505050505050610b966131a7565b92915050565b60405163cdc92f2d60e01b81526001600160c01b03821660048201525f90610b96906001600160a01b037f0000000000000000000000000000000000000000000000000000000000000000169063cdc92f2d90602401602060405180830381865afa158015610c0d573d5f803e3d5ffd5b505050506040513d601f19601f82011682018060405250810190610c319190614d19565b60020b6131cc565b604051639b22917d60e01b81526001600160c01b03831660048201525f907f00000000000000000000000000000000000000000000000000000000000000006001600160a01b031690639b22917d9060240160c060405180830381865afa158015610ca6573d5f803e3d5ffd5b505050506040513d601f19601f82011682018060405250810190610cca9190614d34565b602001516040517f41a8bb880000000000000000000000000000000000000000000000000000000081526001600160c01b0385166004820152600284900b60248201526001600160401b03909116906001600160a01b037f000000000000000000000000000000000000000000000000000000000000000016906341a8bb8890604401602060405180830381865afa158015610d68573d5f803e3d5ffd5b505050506040513d601f19601f82011682018060405250810190610d8c9190614d4e565b6001600160401b0316610d9f9190614d69565b9392505050565b5f610b9682613494565b5f610b968260020b6131cc565b606081806001600160401b0316421115610dea5760405163637910d560e11b815260040160405180910390fd5b8b8a14610e23576040517f947d5a8400000000000000000000000000000000000000000000000000000000815260040160405180910390fd5b610e2d8787611cb8565b610e378585613540565b5f338e8e8e8e8e8e604051602001610e559796959493929190614d80565b60408051601f19818403018152908290526313942f3360e31b825291505f906001600160a01b037f00000000000000000000000000000000000000000000000000000000000000001690639ca1799890610eb590309086906004016145da565b5f604051808303815f875af1158015610ed0573d5f803e3d5ffd5b505050506040513d5f823e601f3d908101601f19168201604052610ef79190810190614648565b905080515f14610f185780806020019051810190610f159190614e4f565b93505b5050509b9a5050505050505050505050565b606081806001600160401b0316421115610f575760405163637910d560e11b815260040160405180910390fd5b8484610f638282611cb8565b895f816001600160401b03811115610f7d57610f7d613eb7565b604051908082528060200260200182016040528015610fa6578160200160208202803683370190505b5090505f826001600160401b03811115610fc257610fc2613eb7565b604051908082528060200260200182016040528015610ff557816020015b6060815260200190600190039081610fe05790505b5090505f5b838110156110ad57600183828151811061101657611016614376565b6020026020010190600681111561102f5761102f61438a565b908160068111156110425761104261438a565b9052508e8e8281811061105757611057614376565b90506020028101906110699190614ecf565b6040516020016110799190614ee3565b60405160208183030381529060405282828151811061109a5761109a614376565b6020908102919091010152600101610ffa565b505f3383838f8f6040516020016110c8959493929190614592565b60408051601f19818403018152908290526313942f3360e31b825291505f906001600160a01b037f00000000000000000000000000000000000000000000000000000000000000001690639ca179989061112890309086906004016145da565b5f604051808303815f875af1158015611143573d5f803e3d5ffd5b505050506040513d5f823e601f3d908101601f1916820160405261116a9190810190614648565b9050808060200190518101906111809190614e4f565b98505050505050505050979650505050505050565b80806001600160401b03164211156111c05760405163637910d560e11b815260040160405180910390fd5b6111ca8484613540565b865f816001600160401b038111156111e4576111e4613eb7565b60405190808252806020026020018201604052801561120d578160200160208202803683370190505b5090505f826001600160401b0381111561122957611229613eb7565b60405190808252806020026020018201604052801561125c57816020015b60608152602001906001900390816112475790505b5090505f5b8381101561131457600583828151811061127d5761127d614376565b602002602001019060068111156112965761129661438a565b908160068111156112a9576112a961438a565b9052508b8b828181106112be576112be614376565b90506020028101906112d09190614f46565b6040516020016112e09190614f5a565b60405160208183030381529060405282828151811061130157611301614376565b6020908102919091010152600101611261565b505f3383838c8c60405160200161132f959493929190614592565b60408051601f19818403018152908290526313942f3360e31b825291506001600160a01b037f00000000000000000000000000000000000000000000000000000000000000001690639ca179989061138d90309085906004016145da565b5f604051808303815f875af11580156113a8573d5f803e3d5ffd5b505050506040513d5f823e601f3d908101601f191682016040526113cf9190810190614648565b50505050505050505050505050565b80806001600160401b03164211156114095760405163637910d560e11b815260040160405180910390fd5b6114138484613540565b865f816001600160401b0381111561142d5761142d613eb7565b604051908082528060200260200182016040528015611456578160200160208202803683370190505b5090505f826001600160401b0381111561147257611472613eb7565b6040519080825280602002602001820160405280156114a557816020015b60608152602001906001900390816114905790505b5090505f5b838110156113145760068382815181106114c6576114c6614376565b602002602001019060068111156114df576114df61438a565b908160068111156114f2576114f261438a565b9052508b8b8281811061150757611507614376565b90506020028101906115199190614f87565b6040516020016115299190614f9b565b60405160208183030381529060405282828151811061154a5761154a614376565b60209081029190910101526001016114aa565b80806001600160401b03164211156115885760405163637910d560e11b815260040160405180910390fd5b825f816001600160401b038111156115a2576115a2613eb7565b6040519080825280602002602001820160405280156115cb578160200160208202803683370190505b5090505f826001600160401b038111156115e7576115e7613eb7565b60405190808252806020026020018201604052801561161a57816020015b60608152602001906001900390816116055790505b5090505f5b838110156116d1575f83828151811061163a5761163a614376565b602002602001019060068111156116535761165361438a565b908160068111156116665761166661438a565b90525087878281811061167b5761167b614376565b905060200281019061168d9190614fd2565b60405160200161169d9190614ffc565b6040516020818303038152906040528282815181106116be576116be614376565b602090810291909101015260010161161f565b5060605f338484846040516020016116ec94939291906150c3565b60408051601f19818403018152908290526313942f3360e31b825291506001600160a01b037f00000000000000000000000000000000000000000000000000000000000000001690639ca179989061174a90309085906004016145da565b5f604051808303815f875af1158015611765573d5f803e3d5ffd5b505050506040513d5f823e601f3d908101601f1916820160405261178c9190810190614648565b50505050505050505050565b80806001600160401b03164211156117c35760405163637910d560e11b815260040160405180910390fd5b83836117cf8282611cb8565b885f816001600160401b038111156117e9576117e9613eb7565b604051908082528060200260200182016040528015611812578160200160208202803683370190505b5090505f826001600160401b0381111561182e5761182e613eb7565b60405190808252806020026020018201604052801561186157816020015b606081526020019060019003908161184c5790505b5090505f5b8381101561044e57600483828151811061188257611882614376565b6020026020010190600681111561189b5761189b61438a565b908160068111156118ae576118ae61438a565b9052508d8d828181106118c3576118c3614376565b90506020028101906118d5919061439e565b6040516020016118e59190614487565b60405160208183030381529060405282828151811061190657611906614376565b6020908102919091010152600101611866565b5f8080808080604087901c602888901c604051639b22917d60e01b81526001600160c01b038316600482015291935091505f906001600160a01b037f00000000000000000000000000000000000000000000000000000000000000001690639b22917d9060240160c060405180830381865afa15801561199b573d5f803e3d5ffd5b505050506040513d601f19601f820116820180604052508101906119bf9190614d34565b60208101519091506001600160401b03166119dd600284900b6131cc565b6040517fd09ef241000000000000000000000000000000000000000000000000000000008152600481018b90529097505f906001600160a01b037f0000000000000000000000000000000000000000000000000000000000000000169063d09ef24190602401606060405180830381865afa158015611a5e573d5f803e3d5ffd5b505050506040513d601f19601f82011682018060405250810190611a829190615141565b80516020820151909a50909150611aa2906001600160401b031683614d69565b6060840151604083015191985090611ad390611ac7906001600160401b031685614d69565b600287900b905f613657565b9650611ae48162ffffff1660171c90565b611b28575f611af962ffffff83168983613681565b90505f8113611b1a57611b0b81615193565b611b1590896151c9565b611b24565b611b2481896151dc565b9750505b5050505050509193509193565b606081806001600160401b0316421115611b625760405163637910d560e11b815260040160405180910390fd5b8484611b6e8282611cb8565b895f816001600160401b03811115611b8857611b88613eb7565b604051908082528060200260200182016040528015611bb1578160200160208202803683370190505b5090505f826001600160401b03811115611bcd57611bcd613eb7565b604051908082528060200260200182016040528015611c0057816020015b6060815260200190600190039081611beb5790505b5090505f5b838110156110ad576002838281518110611c2157611c21614376565b60200260200101906006811115611c3a57611c3a61438a565b90816006811115611c4d57611c4d61438a565b9052508e8e82818110611c6257611c62614376565b9050602002810190611c749190614fd2565b604051602001611c8491906151ef565b604051602081830303815290604052828281518110611ca557611ca5614376565b6020908102919091010152600101611c05565b5f5b81811015611dba575f838383818110611cd557611cd5614376565b905060c00201803603810190611ceb91906152f9565b60408101515190915015611db15780516020808301516040808501518051938101518183015160609092015192517fd505accf0000000000000000000000000000000000000000000000000000000081523360048201523060248201526044810194909452606484019490945260ff909316608483015260a482019290925260c48101919091526001600160a01b039091169063d505accf9060e4015f604051808303815f87803b158015611d9e575f80fd5b505af1925050508015611daf575060015b505b50600101611cba565b505050565b7f8e94fed44239eb2314ab7a406345e6c5a8f0ccedf3b600de3d004e672c33abf45c15611e18576040517f3ee5aeb500000000000000000000000000000000000000000000000000000000815260040160405180910390fd5b60017f8e94fed44239eb2314ab7a406345e6c5a8f0ccedf3b600de3d004e672c33abf45d565b805160208201516040517ffefc7c510000000000000000000000000000000000000000000000000000000081526001600160a01b037f0000000000000000000000000000000000000000000000000000000000000000169263fefc7c5192611ea892600401615335565b5f604051808303815f87803b158015611ebf575f80fd5b505af1158015611ed1573d5f803e3d5ffd5b5050505050565b8051604051639b22917d60e01b81526001600160c01b0390911660048201525f9081907f00000000000000000000000000000000000000000000000000000000000000006001600160a01b031690639b22917d9060240160c060405180830381865afa158015611f4a573d5f803e3d5ffd5b505050506040513d601f19601f82011682018060405250810190611f6e9190614d34565b90505f83604001519050611f8b826060015162ffffff1660171c90565b15611fa8576060820151611fa59062ffffff16825f613701565b90505b5f611fca83602001516001600160401b031683611fc591906153c0565b613756565b90506001600160401b038116156120a9577f00000000000000000000000000000000000000000000000000000000000000006001600160a01b0316631dbef4886040518060800160405280868152602001886020015160020b8152602001846001600160401b031681526020015f6001600160a01b031681525087606001516040518363ffffffff1660e01b81526004016120669291906153df565b60408051808303815f875af1158015612081573d5f803e3d5ffd5b505050506040513d601f19601f820116820180604052508101906120a5919061548d565b5093505b505050919050565b5f806120fa6040518060a00160405280855f01516001600160c01b0316815260200185604001518152602001856080015181526020015f81526020018560a001518152506124f9565b915050808360800181815161210f91906151dc565b90525060808301511561216457612161604051806080016040528085602001516001600160c01b03168152602001856060015160020b8152602001856080015181526020018560c00151815250611ed8565b91505b50919050565b8051604051639b22917d60e01b81526001600160c01b0390911660048201525f90819081907f00000000000000000000000000000000000000000000000000000000000000006001600160a01b031690639b22917d9060240160c060405180830381865afa1580156121de573d5f803e3d5ffd5b505050506040513d601f19601f820116820180604052508101906122029190614d34565b90505b8284604001511180156122a75750835160405163fcc8fc9b60e01b81526001600160c01b0390911660048201527f00000000000000000000000000000000000000000000000000000000000000006001600160a01b03169063fcc8fc9b90602401602060405180830381865afa158015612281573d5f803e3d5ffd5b505050506040513d601f19601f820116820180604052508101906122a591906154af565b155b156124ce57835160405163cdc92f2d60e01b81526001600160c01b0390911660048201525f907f00000000000000000000000000000000000000000000000000000000000000006001600160a01b03169063cdc92f2d90602401602060405180830381865afa15801561231c573d5f803e3d5ffd5b505050506040513d601f19601f820116820180604052508101906123409190614d19565b905061234e8160020b6131cc565b8560200151111561235f57506124ce565b5f6123738360a0015162ffffff1660171c90565b156123a45761239d8587604001510360018560a0015162ffffff166137019092919063ffffffff16565b90506123ae565b8486604001510390505b60208301516001600160401b03168082049082061515600116019050805f036123d85750506124ce565b5f807f00000000000000000000000000000000000000000000000000000000000000006001600160a01b0316633b9500b060405180606001604052808881526020018760020b815260200161242c87613756565b6001600160401b03168152508a608001516040518363ffffffff1660e01b815260040161245a9291906154ce565b60408051808303815f875af1158015612475573d5f803e3d5ffd5b505050506040513d601f19601f82011682018060405250810190612499919061548d565b91509150815f036124ad57505050506124ce565b6124b782886151c9565b96506124c381876151c9565b955050505050612205565b81846060015110156124f357604051630f271b5560e41b815260040160405180910390fd5b50915091565b8051604051639b22917d60e01b81526001600160c01b0390911660048201525f90819081907f00000000000000000000000000000000000000000000000000000000000000006001600160a01b031690639b22917d9060240160c060405180830381865afa15801561256d573d5f803e3d5ffd5b505050506040513d601f19601f820116820180604052508101906125919190614d34565b90505b8360400151821080156126365750835160405163fcc8fc9b60e01b81526001600160c01b0390911660048201527f00000000000000000000000000000000000000000000000000000000000000006001600160a01b03169063fcc8fc9b90602401602060405180830381865afa158015612610573d5f803e3d5ffd5b505050506040513d601f19601f8201168201806040525081019061263491906154af565b155b1561286957835160405163cdc92f2d60e01b81526001600160c01b0390911660048201525f907f00000000000000000000000000000000000000000000000000000000000000006001600160a01b03169063cdc92f2d90602401602060405180830381865afa1580156126ab573d5f803e3d5ffd5b505050506040513d601f19601f820116820180604052508101906126cf9190614d19565b90506126dd8160020b6131cc565b856020015111156126ee5750612869565b5f6127028360a0015162ffffff1660171c90565b156127155783866040015103905061273c565b612739848760400151035f8560a0015162ffffff166137019092919063ffffffff16565b90505b60208301516001600160401b0316612759600284900b835f6137ad565b61276391906153c0565b9050805f03612773575050612869565b5f807f00000000000000000000000000000000000000000000000000000000000000006001600160a01b0316633b9500b060405180606001604052808881526020018760020b81526020016127c787613756565b6001600160401b03168152508a608001516040518363ffffffff1660e01b81526004016127f59291906154ce565b60408051808303815f875af1158015612810573d5f803e3d5ffd5b505050506040513d601f19601f82011682018060405250810190612834919061548d565b91509150805f036128485750505050612869565b61285282886151c9565b965061285e81876151c9565b955050505050612594565b82846060015111156124f357604051630f271b5560e41b815260040160405180910390fd5b805160208201516040517f38926b6d0000000000000000000000000000000000000000000000000000000081526001600160a01b037f000000000000000000000000000000000000000000000000000000000000000016926338926b6d926128f892600401615568565b6020604051808303815f875af1158015612914573d5f803e3d5ffd5b505050506040513d601f19601f820116820180604052508101906129389190615580565b5050565b5f7f00000000000000000000000000000000000000000000000000000000000000006001600160a01b0316639b22917d612979845f015160401c90565b6040516001600160e01b031960e084901b1681526001600160c01b03909116600482015260240160c060405180830381865afa1580156129bb573d5f803e3d5ffd5b505050506040513d601f19601f820116820180604052508101906129df9190614d34565b90507f00000000000000000000000000000000000000000000000000000000000000006001600160a01b03166314d6a9eb6040518060400160405280855f01518152602001612a4485602001516001600160401b03168760200151611fc591906153c0565b6001600160401b031681525084604001516040518363ffffffff1660e01b8152600401612a72929190615597565b6020604051808303815f875af1925050508015612aac575060408051601f3d908101601f19168201909252612aa991810190615580565b60015b1561293857505050565b60405163258473db60e21b81523060048201525f602482018190529081906001600160a01b037f00000000000000000000000000000000000000000000000000000000000000001690639611cf6c90604401602060405180830381865afa158015612b23573d5f803e3d5ffd5b505050506040513d601f19601f82011682018060405250810190612b479190615580565b90505f811215612c1a57612b8f7f0000000000000000000000000000000000000000000000000000000000000000612b7e83615193565b6001600160a01b03851691906137ef565b604051636a256b2960e01b81526001600160a01b0383811660048301527f00000000000000000000000000000000000000000000000000000000000000001690636a256b29906024016020604051808303815f875af1158015612bf4573d5f803e3d5ffd5b505050506040513d601f19601f82011682018060405250810190612c189190615580565b505b60405163258473db60e21b81523060048201526001600160a01b0383811660248301527f00000000000000000000000000000000000000000000000000000000000000001690639611cf6c90604401602060405180830381865afa158015612c84573d5f803e3d5ffd5b505050506040513d601f19601f82011682018060405250810190612ca89190615580565b90505f811315612d51576040517fd9caed120000000000000000000000000000000000000000000000000000000081526001600160a01b0383811660048301528581166024830152604482018390527f0000000000000000000000000000000000000000000000000000000000000000169063d9caed12906064015f604051808303815f87803b158015612d3a575f80fd5b505af1158015612d4c573d5f803e3d5ffd5b505050505b82515f5b8181101561318c575f858281518110612d7057612d70614376565b602090810291909101015160405163258473db60e21b81523060048201526001600160a01b0380831660248301529192507f000000000000000000000000000000000000000000000000000000000000000090911690639611cf6c90604401602060405180830381865afa158015612dea573d5f803e3d5ffd5b505050506040513d601f19601f82011682018060405250810190612e0e9190615580565b93505f841215612f0457612e79877f0000000000000000000000000000000000000000000000000000000000000000612e4687615193565b898681518110612e5857612e58614376565b60200260200101516001600160a01b03166138be909392919063ffffffff16565b604051636a256b2960e01b81526001600160a01b0382811660048301527f00000000000000000000000000000000000000000000000000000000000000001690636a256b29906024016020604051808303815f875af1158015612ede573d5f803e3d5ffd5b505050506040513d601f19601f82011682018060405250810190612f029190615580565b505b60405163258473db60e21b81523060048201526001600160a01b0382811660248301527f00000000000000000000000000000000000000000000000000000000000000001690639611cf6c90604401602060405180830381865afa158015612f6e573d5f803e3d5ffd5b505050506040513d601f19601f82011682018060405250810190612f929190615580565b93505f84131561304c577f00000000000000000000000000000000000000000000000000000000000000006001600160a01b031663d9caed12878481518110612fdd57612fdd614376565b60209081029190910101516040516001600160e01b031960e084901b1681526001600160a01b039182166004820152908a166024820152604481018790526064015f604051808303815f87803b158015613035575f80fd5b505af1158015613047573d5f803e3d5ffd5b505050505b5f86838151811061305f5761305f614376565b60209081029190910101516040517f70a082310000000000000000000000000000000000000000000000000000000081523060048201526001600160a01b03909116906370a0823190602401602060405180830381865afa1580156130c6573d5f803e3d5ffd5b505050506040513d601f19601f820116820180604052508101906130ea9190615580565b905080156131825786838151811061310457613104614376565b602090810291909101015160405163a9059cbb60e01b81526001600160a01b038a81166004830152602482018490529091169063a9059cbb906044016020604051808303815f875af115801561315c573d5f803e3d5ffd5b505050506040513d601f19601f8201168201806040525081019061318091906154af565b505b5050600101612d55565b504715611ed157611ed16001600160a01b03841686476137ef565b5f7f8e94fed44239eb2314ab7a406345e6c5a8f0ccedf3b600de3d004e672c33abf45d565b5f6131d68261392d565b815f600282900b81136131e957816131f2565b6131f2826155c3565b62ffffff8116915060011615613216576bfff97272373d413259a469909250613227565b6c0100000000000000000000000092505b60028116156132465760606bfff2e50f5f656932ef12357c8402901c92505b60048116156132655760606bffe5caca7e10e4e61c3624ea8402901c92505b60088116156132845760606bffcb9843d60f6159c9db58838402901c92505b60108116156132a35760606bff973b41fa98c081472e68968402901c92505b60208116156132c25760606bff2ea16466c96a3843ec78b38402901c92505b60408116156132e15760606bfe5dee046a99a2a811c461f18402901c92505b60808116156133005760606bfcbe86c7900a88aedcffc83b8402901c92505b6101008116156133205760606bf987a7253ac413176f2b074c8402901c92505b6102008116156133405760606bf3392b0822b70005940c7a398402901c92505b6104008116156133605760606be7159475a2c29b7443b29c7f8402901c92505b6108008116156133805760606bd097f3bdfd2022b8845ad8f78402901c92505b6110008116156133a05760606ba9f746462d870fdf8a65dc1f8402901c92505b6120008116156133c05760606b70d869a156d2a1b890bb3df68402901c92505b6140008116156133e05760606b31be135f97d08fd9812315058402901c92505b6180008116156134005760606b09aa508b5b7a84e1c677de548402901c92505b620100008116156134205760606a5d6af8dedb81196699c3298402901c92505b6202000081161561343f576060692216e584f5fa1ea926048402901c92505b6204000081161561345c57606067048a170391f7dc428402901c92505b5f8260020b131561348d5761348a8378010000000000000000000000000000000000000000000000006153c0565b92505b5050919050565b5f81750c6c1313451aab317fb9b67e11777e9a5a6ccdb2ebae8111806134bc575062149bbb81105b156134f2576040517ebfc92100000000000000000000000000000000000000000000000000000000815260040160405180910390fd5b5f70010000000000000000000000000000000061350e8561398c565b6527107fff74340281613523576135236153ac565b05905083613530826131cc565b1115612161575f19019150612164565b5f5b81811015611dba575f83838381811061355d5761355d614376565b905060a0020160200180360381019061357691906155e3565b80519091501561364e577f00000000000000000000000000000000000000000000000000000000000000006001600160a01b0316637ac2ff7b308686868181106135c2576135c2614376565b865160208801516040808a015160608b015191516001600160e01b031960e08b901b1681526001600160a01b03909816600489015260a090940295909501356024870152604486019190915260ff16606485015260848401525060a482015260c4015f604051808303815f87803b15801561363b575f80fd5b505af192505050801561364c575060015b505b50600101613542565b5f613679606084901b61366c8660020b6131cc565b8082061515851691040190565b949350505050565b5f6207a11f19627fffff851601600281900b821282816136a357825f036136a5565b825b62ffffff1690505f6136de6136ba8389614d69565b620f4240886136d0578581830615151691040190565b808206151586151691040190565b9050826136f3576136ee81615193565b6136f5565b805b98975050505050505050565b5f6207a11f19627fffff851601600281900b821282841561372257825f0392505b82620f424001905061374b620f42408761373c9190614d69565b82810615158416908390040190565b979650505050505050565b5f6001600160401b038211156137a957604080517f6dfcc6500000000000000000000000000000000000000000000000000000000081526004810191909152602481018390526044015b60405180910390fd5b5090565b5f6136796137bd8560020b6131cc565b6137c79085614d69565b6bffffffffffffffffffffffff8116151584166c010000000000000000000000009091040190565b5f6001600160a01b038416613844575f805f8085875af190508061383f576040517ff4b3b1bc00000000000000000000000000000000000000000000000000000000815260040160405180910390fd5b6138b8565b60405163a9059cbb60e01b81526001600160a01b038416600482015282602482015260205f6044835f895af13d15601f3d1160015f5114161716915050806138b8576040517ff27f64e400000000000000000000000000000000000000000000000000000000815260040160405180910390fd5b50505050565b604080516001600160a01b0385811660248301528416604482015260648082018490528251808303909101815260849091019091526020810180517bffffffffffffffffffffffffffffffffffffffffffffffffffffffff166323b872dd60e01b1790526138b8908590613ba5565b6207ffff600282900b138061395257506139496207ffff6155c3565b60020b8160020b125b15613989576040517fce8ef7fc00000000000000000000000000000000000000000000000000000000815260040160405180910390fd5b50565b6fffffffffffffffffffffffffffffffff811160071b81811c6001600160401b031060061b1781811c63ffffffff1060051b1781811c61ffff1060041b1781811c60ff1060031b175f82136139e857631615e6385f526004601cfd5b7103782dace9d90000000000000000000000007ff8f9f9faf9fdfafbf9fdfcfdfafbfcfef9fafdfafcfcfbfefafafcfbffffffff6f8421084210842108cc6318c6db6d54be84841c1c601f161a90911891821b609f90811c6c465772b2bbbb5f824b15207a3081018102606090811d6d0388eaa27412d5aca026815d636e018202811d6d0df99ac502031bf953eff472fdcc018202811d6d13cdffb29d51d99322bdff5f2211018202811d6d0a0f742023def783a307a986912e018202811d6d01920d8043ca89b5239253284e42018202811d6c0b7a86d7375468fac667a0a527016c29508e458543d8aa4df2abee7883018302821d6d0139601a2efabe717e604cbb4894018302821d6d02247f7a7b6594320649aa03aba1018302821d6c8c3f38e95a6b1ff2ab1c3b343619018302821d6d02384773bdf1ac5676facced60901901830290911d6cb9a025d814b29c212b8b1a07cd19019091027ffffffffffffffff5f6af8f7b3396644f18e157960000000000000000000000000105711340daa0d5f769dba1915cef59f0815a5506029290037d0267a36c0c95b3975ab3ee5b203a7614a3f75373f047d803ae7b6687f2b302919091010590565b5f613bb96001600160a01b03841683613c1f565b905080515f14158015613bdd575080806020019051810190613bdb91906154af565b155b15611dba576040517f5274afe70000000000000000000000000000000000000000000000000000000081526001600160a01b03841660048201526024016137a0565b6060610d9f83835f845f80856001600160a01b03168486604051613c4391906155fd565b5f6040518083038185875af1925050503d805f8114613c7d576040519150601f19603f3d011682016040523d82523d5f602084013e613c82565b606091505b5091509150613c92868383613c9c565b9695505050505050565b606082613cb157613cac82613d11565b610d9f565b8151158015613cc857506001600160a01b0384163b155b15613d0a576040517f9996b3150000000000000000000000000000000000000000000000000000000081526001600160a01b03851660048201526024016137a0565b5080610d9f565b805115613d215780518082602001fd5b6040517fd6bda27500000000000000000000000000000000000000000000000000000000815260040160405180910390fd5b5f8083601f840112613d63575f80fd5b5081356001600160401b03811115613d79575f80fd5b6020830191508360208260051b8501011115613d93575f80fd5b9250929050565b5f8083601f840112613daa575f80fd5b5081356001600160401b03811115613dc0575f80fd5b60208301915083602060c083028501011115613d93575f80fd5b6001600160401b0381168114613989575f80fd5b8035613df981613dda565b919050565b5f805f805f805f6080888a031215613e14575f80fd5b87356001600160401b0380821115613e2a575f80fd5b613e368b838c01613d53565b909950975060208a0135915080821115613e4e575f80fd5b613e5a8b838c01613d53565b909750955060408a0135915080821115613e72575f80fd5b50613e7f8a828b01613d9a565b9094509250506060880135613e9381613dda565b8091505092959891949750929550565b6001600160a01b0381168114613989575f80fd5b634e487b7160e01b5f52604160045260245ffd5b604080519081016001600160401b0381118282101715613eed57613eed613eb7565b60405290565b604051608081016001600160401b0381118282101715613eed57613eed613eb7565b60405160e081016001600160401b0381118282101715613eed57613eed613eb7565b604051606081016001600160401b0381118282101715613eed57613eed613eb7565b604051601f8201601f191681016001600160401b0381118282101715613f8157613f81613eb7565b604052919050565b5f6001600160401b03821115613fa157613fa1613eb7565b50601f01601f191660200190565b5f8060408385031215613fc0575f80fd5b8235613fcb81613ea3565b915060208301356001600160401b03811115613fe5575f80fd5b8301601f81018513613ff5575f80fd5b803561400861400382613f89565b613f59565b81815286602083850101111561401c575f80fd5b816020840160208301375f602083830101528093505050509250929050565b5f81518084528060208401602086015e5f602082860101526020601f19601f83011685010191505092915050565b602081525f610d9f602083018461403b565b6001600160c01b0381168114613989575f80fd5b5f6020828403121561409f575f80fd5b8135610d9f8161407b565b8060020b8114613989575f80fd5b8035613df9816140aa565b5f80604083850312156140d4575f80fd5b82356140df8161407b565b915060208301356140ef816140aa565b809150509250929050565b5f6020828403121561410a575f80fd5b5035919050565b5f60208284031215614121575f80fd5b8135610d9f816140aa565b5f8083601f84011261413c575f80fd5b5081356001600160401b03811115614152575f80fd5b60208301915083602060a083028501011115613d93575f80fd5b5f805f805f805f805f805f60c08c8e031215614186575f80fd5b6001600160401b03808d35111561419b575f80fd5b6141a88e8e358f01613d53565b909c509a5060208d01358110156141bd575f80fd5b6141cd8e60208f01358f01613d53565b909a50985060408d01358110156141e2575f80fd5b6141f28e60408f01358f01613d53565b909850965060608d0135811015614207575f80fd5b6142178e60608f01358f01613d9a565b909650945060808d013581101561422c575f80fd5b5061423d8d60808e01358e0161412c565b909350915061424e60a08d01613dee565b90509295989b509295989b9093969950565b602080825282518282018190525f9190848201906040850190845b818110156142975783518352928401929184019160010161427b565b50909695505050505050565b5f805f805f805f6080888a0312156142b9575f80fd5b87356001600160401b03808211156142cf575f80fd5b6142db8b838c01613d53565b909950975060208a01359150808211156142f3575f80fd5b6142ff8b838c01613d53565b909750955060408a0135915080821115614317575f80fd5b50613e7f8a828b0161412c565b5f805f60408486031215614336575f80fd5b83356001600160401b0381111561434b575f80fd5b61435786828701613d53565b909450925050602084013561436b81613dda565b809150509250925092565b634e487b7160e01b5f52603260045260245ffd5b634e487b7160e01b5f52602160045260245ffd5b5f8235609e198336030181126143b2575f80fd5b9190910192915050565b5f808335601e198436030181126143d1575f80fd5b83016020810192503590506001600160401b038111156143ef575f80fd5b803603821315613d93575f80fd5b81835281816020850137505f828201602090810191909152601f909101601f19169091010190565b5f81356144318161407b565b6001600160c01b03811684525060208201356020840152604082013560408401526060820135606084015261446960808301836143bc565b60a0608086015261447e60a0860182846143fd565b95945050505050565b602081525f610d9f6020830184614425565b5f600782106144b657634e487b7160e01b5f52602160045260245ffd5b50815260200190565b5f815180845260208085019450602084015f5b838110156144f3576144e5878351614499565b9650908201906001016144d2565b509495945050505050565b5f8282518085526020808601955060208260051b840101602086015f5b8481101561454957601f1986840301895261453783835161403b565b9884019892509083019060010161451b565b5090979650505050505050565b8183525f60208085019450825f5b858110156144f357813561457781613ea3565b6001600160a01b031687529582019590820190600101614564565b6001600160a01b0386168152608060208201525f6145b360808301876144bf565b82810360408401526145c581876144fe565b905082810360608401526136f5818587614556565b6001600160a01b0383168152604060208201525f613679604083018461403b565b5f82601f83011261460a575f80fd5b815161461861400382613f89565b81815284602083860101111561462c575f80fd5b8160208501602083015e5f918101602001919091529392505050565b5f60208284031215614658575f80fd5b81516001600160401b0381111561466d575f80fd5b613679848285016145fb565b5f6001600160401b0382111561469157614691613eb7565b5060051b60200190565b60078110613989575f80fd5b5f82601f8301126146b6575f80fd5b815160206146c661400383614679565b82815260059290921b840181019181810190868411156146e4575f80fd5b8286015b848110156147215780516001600160401b03811115614705575f80fd5b6147138986838b01016145fb565b8452509183019183016146e8565b509695505050505050565b5f82601f83011261473b575f80fd5b8151602061474b61400383614679565b8083825260208201915060208460051b87010193508684111561476c575f80fd5b602086015b8481101561472157805161478481613ea3565b8352918301918301614771565b5f805f80608085870312156147a4575f80fd5b84516147af81613ea3565b809450506020808601516001600160401b03808211156147cd575f80fd5b818801915088601f8301126147e0575f80fd5b81516147ee61400382614679565b81815260059190911b8301840190848101908b83111561480c575f80fd5b938501935b828510156148335784516148248161469b565b82529385019390850190614811565b60408b0151909850945050508083111561484b575f80fd5b61485789848a016146a7565b9450606088015192508083111561486c575f80fd5b505061487a8782880161472c565b91505092959194509250565b62ffffff81168114613989575f80fd5b5f60c082840312156148a6575f80fd5b60405160c081018181106001600160401b03821117156148c8576148c8613eb7565b806040525080915082516148db81613ea3565b815260208301516148eb81613dda565b602082015260408301516148fe81613ea3565b6040820152606083015161491181614886565b6060820152608083015161492481613ea3565b608082015260a083015161493781614886565b60a0919091015292915050565b5f60208284031215614954575f80fd5b81516001600160401b038082111561496a575f80fd5b9083019060e0828603121561497d575f80fd5b614985613ecb565b61498f8684614896565b815260c0830151828111156149a2575f80fd5b6149ae878286016145fb565b60208301525095945050505050565b8051613df98161407b565b8051613df9816140aa565b5f602082840312156149e3575f80fd5b81516001600160401b03808211156149f9575f80fd5b9083019060808286031215614a0c575f80fd5b614a14613ef3565b8251614a1f8161407b565b81526020830151614a2f816140aa565b602082015260408381015190820152606083015182811115614a4f575f80fd5b614a5b878286016145fb565b60608301525095945050505050565b634e487b7160e01b5f52601160045260245ffd5b5f60018201614a8f57614a8f614a6a565b5060010190565b5f60208284031215614aa6575f80fd5b81516001600160401b0380821115614abc575f80fd5b9083019060e08286031215614acf575f80fd5b614ad7613f15565b614ae0836149bd565b8152614aee602084016149bd565b602082015260408301516040820152614b09606084016149c8565b60608201526080830151608082015260a083015182811115614b29575f80fd5b614b35878286016145fb565b60a08301525060c083015182811115614b4c575f80fd5b614b58878286016145fb565b60c08301525095945050505050565b5f60a08284031215614b77575f80fd5b60405160a081016001600160401b038282108183111715614b9a57614b9a613eb7565b8160405282935084519150614bae8261407b565b8183526020850151602084015260408501516040840152606085015160608401526080850151915080821115614be2575f80fd5b50614bef858286016145fb565b6080830152505092915050565b5f60208284031215614c0c575f80fd5b81516001600160401b03811115614c21575f80fd5b61367984828501614b67565b5f60208284031215614c3d575f80fd5b81516001600160401b0380821115614c53575f80fd5b9083019060408286031215614c66575f80fd5b614c6e613ecb565b825181526020830151828111156149a2575f80fd5b5f60208284031215614c93575f80fd5b8151610d9f81613ea3565b5f60208284031215614cae575f80fd5b81516001600160401b0380821115614cc4575f80fd5b9083019060608286031215614cd7575f80fd5b614cdf613f37565b8251815260208301516020820152604083015182811115614cfe575f80fd5b614d0a878286016145fb565b60408301525095945050505050565b5f60208284031215614d29575f80fd5b8151610d9f816140aa565b5f60c08284031215614d44575f80fd5b610d9f8383614896565b5f60208284031215614d5e575f80fd5b8151610d9f81613dda565b8082028115828204841417610b9657610b96614a6a565b6001600160a01b0388168152608060208083018290529082018790525f90889060a08401835b8a811015614dd2578335614db98161469b565b614dc38382614499565b94840194925050600101614da6565b5084810360408601528781528181019250600588901b81018201895f5b8a811015614e2957838303601f19018652614e0a828d6143bc565b614e158582846143fd565b978701979450505090840190600101614def565b50508581036060870152614e3e81888a614556565b9d9c50505050505050505050505050565b5f6020808385031215614e60575f80fd5b82516001600160401b03811115614e75575f80fd5b8301601f81018513614e85575f80fd5b8051614e9361400382614679565b81815260059190911b82018301908381019087831115614eb1575f80fd5b928401925b8284101561374b57835182529284019290840190614eb6565b5f8235607e198336030181126143b2575f80fd5b602081525f8235614ef38161407b565b6001600160c01b0381166020840152506020830135614f11816140aa565b8060020b60408401525060408301356060830152614f3260608401846143bc565b60808085015261447e60a0850182846143fd565b5f8235603e198336030181126143b2575f80fd5b60208152813560208201525f614f7360208401846143bc565b60408085015261447e6060850182846143fd565b5f8235605e198336030181126143b2575f80fd5b6020815281356020820152602082013560408201525f614fbe60408401846143bc565b60608085015261447e6080850182846143fd565b5f823560de198336030181126143b2575f80fd5b8035613df981614886565b8035613df981613ea3565b602081525f823561500c81613ea3565b6001600160a01b0380821660208501526020850135915061502c82613dda565b6001600160401b03821660408501526040850135915061504b82613ea3565b1660608381019190915283013561506181614886565b62ffffff811660808401525061507960808401614ff1565b6001600160a01b03811660a08401525061509560a08401614fe6565b62ffffff811660c0840152506150ae60c08401846143bc565b60e08085015261447e610100850182846143fd565b5f6001600160a01b0380871683526020608060208501526150e760808501886144bf565b84810360408601526150f981886144fe565b8581036060870152865180825260208089019350909101905f5b81811015615131578351861683529284019291840191600101615113565b50909a9950505050505050505050565b5f60608284031215615151575f80fd5b615159613f37565b825161516481613ea3565b8152602083015161517481613dda565b6020820152604083015161518781613dda565b60408201529392505050565b5f7f800000000000000000000000000000000000000000000000000000000000000082036151c3576151c3614a6a565b505f0390565b80820180821115610b9657610b96614a6a565b81810381811115610b9657610b96614a6a565b602081525f82356151ff8161407b565b6001600160c01b038116602084015250602083013561521d8161407b565b6001600160c01b03811660408401525060408301356060830152615243606084016140b8565b615252608084018260020b9052565b50608083013560a083015261526a60a08401846143bc565b60e060c0850152615280610100850182846143fd565b91505061529060c08501856143bc565b848303601f190160e0860152613c928382846143fd565b5f608082840312156152b7575f80fd5b6152bf613ef3565b905081358152602082013560ff811681146152d8575f80fd5b80602083015250604082013560408201526060820135606082015292915050565b5f60c08284031215615309575f80fd5b615311613f37565b823561531c81613ea3565b81526020838101359082015261518784604085016152a7565b61539781846001600160a01b038082511683526001600160401b036020830151166020840152806040830151166040840152606082015162ffffff80821660608601528260808501511660808601528060a08501511660a08601525050505050565b60e060c08201525f61367960e083018461403b565b634e487b7160e01b5f52601260045260245ffd5b5f826153da57634e487b7160e01b5f52601260045260245ffd5b500490565b5f6101406154468386516001600160a01b038082511683526001600160401b036020830151166020840152806040830151166040840152606082015162ffffff80821660608601528260808501511660808601528060a08501511660a08601525050505050565b602085015160020b60c08401526001600160401b0360408601511660e08401526001600160a01b036060860151166101008401528061012084015261447e8184018561403b565b5f806040838503121561549e575f80fd5b505080516020909101519092909150565b5f602082840312156154bf575f80fd5b81518015158114610d9f575f80fd5b5f6101206155358386516001600160a01b038082511683526001600160401b036020830151166020840152806040830151166040840152606082015162ffffff80821660608601528260808501511660808601528060a08501511660a08601525050505050565b602085015160020b60c08401526001600160401b0360408601511660e08401528061010084015261447e8184018561403b565b828152604060208201525f613679604083018461403b565b5f60208284031215615590575f80fd5b5051919050565b825181526001600160401b036020840151166020820152606060408201525f613679606083018461403b565b5f8160020b627fffff1981036155db576155db614a6a565b5f0392915050565b5f608082840312156155f3575f80fd5b610d9f83836152a7565b5f82518060208501845e5f92019182525091905056fea2646970667358221220c918c79fe550aa13f267b949e63d46493b4da7be9f2b1cac837f41feb887ce9764736f6c63430008190033",
  "devdoc": {
    "errors": {
      "AddressEmptyCode(address)": [
        {
          "details": "There's no code at `target` (it is not a contract)."
        }
      ],
      "FailedCall()": [
        {
          "details": "A call to an address target failed. The target may have reverted."
        }
      ],
      "InsufficientBalance(uint256,uint256)": [
        {
          "details": "The ETH balance of the account is not enough to perform the operation."
        }
      ],
      "SafeCastOverflowedUintDowncast(uint8,uint256)": [
        {
          "details": "Value doesn't fit in an uint of `bits` size."
        }
      ],
      "SafeERC20FailedOperation(address)": [
        {
          "details": "An operation with an ERC-20 token failed."
        }
      ]
    },
    "kind": "dev",
    "methods": {
      "cancel((uint256,uint256,bytes)[],address[],(uint256,(uint256,uint8,bytes32,bytes32))[],uint64)": {
        "details": "IMPORTANT: The caller must provide `tokensToSettle` to receive appropriate tokens after execution.",
        "params": {
          "deadline": "The deadline for the actions",
          "orderParamsList": "The list of actions to cancel",
          "permitParamsList": "The parameters of the permits",
          "tokensToSettle": "The tokens to settle"
        }
      },
      "claim((uint256,bytes)[],address[],(uint256,(uint256,uint8,bytes32,bytes32))[],uint64)": {
        "details": "IMPORTANT: The caller must provide `tokensToSettle` to receive appropriate tokens after execution.",
        "params": {
          "deadline": "The deadline for the actions",
          "orderParamsList": "The list of actions to claim",
          "permitParamsList": "The parameters of the permits",
          "tokensToSettle": "The tokens to settle"
        }
      },
      "execute(uint8[],bytes[],address[],(address,uint256,(uint256,uint8,bytes32,bytes32))[],(uint256,(uint256,uint8,bytes32,bytes32))[],uint64)": {
        "details": "IMPORTANT: The caller must provide `tokensToSettle` to receive appropriate tokens after execution.",
        "params": {
          "actionList": "The list of actions to execute",
          "deadline": "The deadline for the actions",
          "erc20PermitParamsList": "The parameters of the ERC20 permits",
          "erc721PermitParamsList": "The parameters of the ERC721 permits",
          "paramsDataList": "The parameters of the actions",
          "tokensToSettle": "The tokens to settle"
        },
        "returns": {
          "ids": "The ids of the orders"
        }
      },
      "fromPrice(uint256)": {
        "params": {
          "price": "The price to convert"
        },
        "returns": {
          "_0": "The tick"
        }
      },
      "getDepth(uint192,int24)": {
        "params": {
          "id": "The id of the book",
          "tick": "The tick of the book"
        },
        "returns": {
          "_0": "The depth of the book in quote amount"
        }
      },
      "getHighestPrice(uint192)": {
        "params": {
          "id": "The id of the book"
        },
        "returns": {
          "_0": "The highest price of the book with 2**96 precision"
        }
      },
      "getOrder(uint256)": {
        "params": {
          "orderId": "The id of the order"
        },
        "returns": {
          "claimableAmount": "The claimable base amount of the order",
          "openAmount": "The open quote amount of the order",
          "price": "The price of the order with 2**96 precision",
          "provider": "The provider of the order"
        }
      },
      "make((uint192,int24,uint256,bytes)[],address[],(address,uint256,(uint256,uint8,bytes32,bytes32))[],uint64)": {
        "details": "IMPORTANT: The caller must provide `tokensToSettle` to receive appropriate tokens after execution.",
        "params": {
          "deadline": "The deadline for the actions",
          "orderParamsList": "The list of actions to make",
          "permitParamsList": "The parameters of the permits",
          "tokensToSettle": "The tokens to settle"
        },
        "returns": {
          "ids": "The ids of the orders"
        }
      },
      "open(((address,uint64,address,uint24,address,uint24),bytes)[],uint64)": {
        "params": {
          "deadline": "The deadline for the action",
          "openBookParamsList": "The parameters of the open book action"
        }
      },
      "spend((uint192,uint256,uint256,uint256,bytes)[],address[],(address,uint256,(uint256,uint8,bytes32,bytes32))[],uint64)": {
        "details": "IMPORTANT: The caller must provide `tokensToSettle` to receive appropriate tokens after execution.",
        "params": {
          "deadline": "The deadline for the actions",
          "orderParamsList": "The list of actions to spend",
          "permitParamsList": "The parameters of the permits",
          "tokensToSettle": "The tokens to settle"
        }
      },
      "take((uint192,uint256,uint256,uint256,bytes)[],address[],(address,uint256,(uint256,uint8,bytes32,bytes32))[],uint64)": {
        "details": "IMPORTANT: The caller must provide `tokensToSettle` to receive appropriate tokens after execution.",
        "params": {
          "deadline": "The deadline for the actions",
          "orderParamsList": "The list of actions to take",
          "permitParamsList": "The parameters of the permits",
          "tokensToSettle": "The tokens to settle"
        }
      },
      "toPrice(int24)": {
        "params": {
          "tick": "The tick to convert"
        },
        "returns": {
          "_0": "The price with 2**96 precision"
        }
      }
    },
    "version": 1
  },
  "userdoc": {
    "errors": {
      "ERC20TransferFailed()": [
        {
          "notice": "Thrown when an ERC20 transfer fails"
        }
      ],
      "NativeTransferFailed()": [
        {
          "notice": "Thrown when a native transfer fails"
        }
      ]
    },
    "kind": "user",
    "methods": {
      "cancel((uint256,uint256,bytes)[],address[],(uint256,(uint256,uint8,bytes32,bytes32))[],uint64)": {
        "notice": "Cancels a list of orders"
      },
      "claim((uint256,bytes)[],address[],(uint256,(uint256,uint8,bytes32,bytes32))[],uint64)": {
        "notice": "Claims a list of orders"
      },
      "execute(uint8[],bytes[],address[],(address,uint256,(uint256,uint8,bytes32,bytes32))[],(uint256,(uint256,uint8,bytes32,bytes32))[],uint64)": {
        "notice": "Executes a list of actions"
      },
      "fromPrice(uint256)": {
        "notice": "Converts a price to a tick"
      },
      "getDepth(uint192,int24)": {
        "notice": "Returns the depth of a book"
      },
      "getHighestPrice(uint192)": {
        "notice": "Returns the highest price of a book"
      },
      "getOrder(uint256)": {
        "notice": "Returns the details of an order"
      },
      "make((uint192,int24,uint256,bytes)[],address[],(address,uint256,(uint256,uint8,bytes32,bytes32))[],uint64)": {
        "notice": "Makes a list of orders"
      },
      "open(((address,uint64,address,uint24,address,uint24),bytes)[],uint64)": {
        "notice": "Opens a book"
      },
      "spend((uint192,uint256,uint256,uint256,bytes)[],address[],(address,uint256,(uint256,uint8,bytes32,bytes32))[],uint64)": {
        "notice": "Spends to take a list of orders"
      },
      "take((uint192,uint256,uint256,uint256,bytes)[],address[],(address,uint256,(uint256,uint8,bytes32,bytes32))[],uint64)": {
        "notice": "Takes a list of orders"
      },
      "toPrice(int24)": {
        "notice": "Converts a tick to a price"
      }
    },
    "version": 1
  },
  "storageLayout": {
    "storage": [],
    "types": null
  }
}