{
  "address": "0x7512c4F8C817A06ddF67222a88f7805A57FfF1A8",
  "abi": [
    {
      "inputs": [
        {
          "internalType": "address",
          "name": "bookManager",
          "type": "address"
        }
      ],
      "stateMutability": "nonpayable",
      "type": "constructor"
    },
    {
      "inputs": [
        {
          "internalType": "address",
          "name": "target",
          "type": "address"
        }
      ],
      "name": "AddressEmptyCode",
      "type": "error"
    },
    {
      "inputs": [],
      "name": "ControllerSlippage",
      "type": "error"
    },
    {
      "inputs": [],
      "name": "Deadline",
      "type": "error"
    },
    {
      "inputs": [],
      "name": "ERC20TransferFailed",
      "type": "error"
    },
    {
      "inputs": [],
      "name": "FailedCall",
      "type": "error"
    },
    {
      "inputs": [
        {
          "internalType": "uint256",
          "name": "balance",
          "type": "uint256"
        },
        {
          "internalType": "uint256",
          "name": "needed",
          "type": "uint256"
        }
      ],
      "name": "InsufficientBalance",
      "type": "error"
    },
    {
      "inputs": [],
      "name": "InvalidAccess",
      "type": "error"
    },
    {
      "inputs": [],
      "name": "InvalidAction",
      "type": "error"
    },
    {
      "inputs": [],
      "name": "InvalidLength",
      "type": "error"
    },
    {
      "inputs": [],
      "name": "InvalidPrice",
      "type": "error"
    },
    {
      "inputs": [],
      "name": "InvalidTick",
      "type": "error"
    },
    {
      "inputs": [],
      "name": "NativeTransferFailed",
      "type": "error"
    },
    {
      "inputs": [],
      "name": "ReentrancyGuardReentrantCall",
      "type": "error"
    },
    {
      "inputs": [
        {
          "internalType": "uint8",
          "name": "bits",
          "type": "uint8"
        },
        {
          "internalType": "uint256",
          "name": "value",
          "type": "uint256"
        }
      ],
      "name": "SafeCastOverflowedUintDowncast",
      "type": "error"
    },
    {
      "inputs": [
        {
          "internalType": "address",
          "name": "token",
          "type": "address"
        }
      ],
      "name": "SafeERC20FailedOperation",
      "type": "error"
    },
    {
      "inputs": [
        {
          "components": [
            {
              "internalType": "OrderId",
              "name": "id",
              "type": "uint256"
            },
            {
              "internalType": "uint256",
              "name": "leftQuoteAmount",
              "type": "uint256"
            },
            {
              "internalType": "bytes",
              "name": "hookData",
              "type": "bytes"
            }
          ],
          "internalType": "struct IController.CancelOrderParams[]",
          "name": "orderParamsList",
          "type": "tuple[]"
        },
        {
          "internalType": "address[]",
          "name": "tokensToSettle",
          "type": "address[]"
        },
        {
          "components": [
            {
              "internalType": "uint256",
              "name": "tokenId",
              "type": "uint256"
            },
            {
              "components": [
                {
                  "internalType": "uint256",
                  "name": "deadline",
                  "type": "uint256"
                },
                {
                  "internalType": "uint8",
                  "name": "v",
                  "type": "uint8"
                },
                {
                  "internalType": "bytes32",
                  "name": "r",
                  "type": "bytes32"
                },
                {
                  "internalType": "bytes32",
                  "name": "s",
                  "type": "bytes32"
                }
              ],
              "internalType": "struct IController.PermitSignature",
              "name": "signature",
              "type": "tuple"
            }
          ],
          "internalType": "struct IController.ERC721PermitParams[]",
          "name": "permitParamsList",
          "type": "tuple[]"
        },
        {
          "internalType": "uint64",
          "name": "deadline",
          "type": "uint64"
        }
      ],
      "name": "cancel",
      "outputs": [],
      "stateMutability": "nonpayable",
      "type": "function"
    },
    {
      "inputs": [
        {
          "components": [
            {
              "internalType": "OrderId",
              "name": "id",
              "type": "uint256"
            },
            {
              "internalType": "bytes",
              "name": "hookData",
              "type": "bytes"
            }
          ],
          "internalType": "struct IController.ClaimOrderParams[]",
          "name": "orderParamsList",
          "type": "tuple[]"
        },
        {
          "internalType": "address[]",
          "name": "tokensToSettle",
          "type": "address[]"
        },
        {
          "components": [
            {
              "internalType": "uint256",
              "name": "tokenId",
              "type": "uint256"
            },
            {
              "components": [
                {
                  "internalType": "uint256",
                  "name": "deadline",
                  "type": "uint256"
                },
                {
                  "internalType": "uint8",
                  "name": "v",
                  "type": "uint8"
                },
                {
                  "internalType": "bytes32",
                  "name": "r",
                  "type": "bytes32"
                },
                {
                  "internalType": "bytes32",
                  "name": "s",
                  "type": "bytes32"
                }
              ],
              "internalType": "struct IController.PermitSignature",
              "name": "signature",
              "type": "tuple"
            }
          ],
          "internalType": "struct IController.ERC721PermitParams[]",
          "name": "permitParamsList",
          "type": "tuple[]"
        },
        {
          "internalType": "uint64",
          "name": "deadline",
          "type": "uint64"
        }
      ],
      "name": "claim",
      "outputs": [],
      "stateMutability": "nonpayable",
      "type": "function"
    },
    {
      "inputs": [
        {
          "internalType": "enum IController.Action[]",
          "name": "actionList",
          "type": "uint8[]"
        },
        {
          "internalType": "bytes[]",
          "name": "paramsDataList",
          "type": "bytes[]"
        },
        {
          "internalType": "address[]",
          "name": "tokensToSettle",
          "type": "address[]"
        },
        {
          "components": [
            {
              "internalType": "address",
              "name": "token",
              "type": "address"
            },
            {
              "internalType": "uint256",
              "name": "permitAmount",
              "type": "uint256"
            },
            {
              "components": [
                {
                  "internalType": "uint256",
                  "name": "deadline",
                  "type": "uint256"
                },
                {
                  "internalType": "uint8",
                  "name": "v",
                  "type": "uint8"
                },
                {
                  "internalType": "bytes32",
                  "name": "r",
                  "type": "bytes32"
                },
                {
                  "internalType": "bytes32",
                  "name": "s",
                  "type": "bytes32"
                }
              ],
              "internalType": "struct IController.PermitSignature",
              "name": "signature",
              "type": "tuple"
            }
          ],
          "internalType": "struct IController.ERC20PermitParams[]",
          "name": "erc20PermitParamsList",
          "type": "tuple[]"
        },
        {
          "components": [
            {
              "internalType": "uint256",
              "name": "tokenId",
              "type": "uint256"
            },
            {
              "components": [
                {
                  "internalType": "uint256",
                  "name": "deadline",
                  "type": "uint256"
                },
                {
                  "internalType": "uint8",
                  "name": "v",
                  "type": "uint8"
                },
                {
                  "internalType": "bytes32",
                  "name": "r",
                  "type": "bytes32"
                },
                {
                  "internalType": "bytes32",
                  "name": "s",
                  "type": "bytes32"
                }
              ],
              "internalType": "struct IController.PermitSignature",
              "name": "signature",
              "type": "tuple"
            }
          ],
          "internalType": "struct IController.ERC721PermitParams[]",
          "name": "erc721PermitParamsList",
          "type": "tuple[]"
        },
        {
          "internalType": "uint64",
          "name": "deadline",
          "type": "uint64"
        }
      ],
      "name": "execute",
      "outputs": [
        {
          "internalType": "OrderId[]",
          "name": "ids",
          "type": "uint256[]"
        }
      ],
      "stateMutability": "payable",
      "type": "function"
    },
    {
      "inputs": [
        {
          "internalType": "uint256",
          "name": "price",
          "type": "uint256"
        }
      ],
      "name": "fromPrice",
      "outputs": [
        {
          "internalType": "Tick",
          "name": "",
          "type": "int24"
        }
      ],
      "stateMutability": "pure",
      "type": "function"
    },
    {
      "inputs": [
        {
          "internalType": "BookId",
          "name": "id",
          "type": "uint192"
        },
        {
          "internalType": "Tick",
          "name": "tick",
          "type": "int24"
        }
      ],
      "name": "getDepth",
      "outputs": [
        {
          "internalType": "uint256",
          "name": "",
          "type": "uint256"
        }
      ],
      "stateMutability": "view",
      "type": "function"
    },
    {
      "inputs": [
        {
          "internalType": "BookId",
          "name": "id",
          "type": "uint192"
        }
      ],
      "name": "getHighestPrice",
      "outputs": [
        {
          "internalType": "uint256",
          "name": "",
          "type": "uint256"
        }
      ],
      "stateMutability": "view",
      "type": "function"
    },
    {
      "inputs": [
        {
          "internalType": "OrderId",
          "name": "orderId",
          "type": "uint256"
        }
      ],
      "name": "getOrder",
      "outputs": [
        {
          "internalType": "address",
          "name": "provider",
          "type": "address"
        },
        {
          "internalType": "uint256",
          "name": "price",
          "type": "uint256"
        },
        {
          "internalType": "uint256",
          "name": "openAmount",
          "type": "uint256"
        },
        {
          "internalType": "uint256",
          "name": "claimableAmount",
          "type": "uint256"
        }
      ],
      "stateMutability": "view",
      "type": "function"
    },
    {
      "inputs": [
        {
          "components": [
            {
              "internalType": "BookId",
              "name": "takeBookId",
              "type": "uint192"
            },
            {
              "internalType": "BookId",
              "name": "makeBookId",
              "type": "uint192"
            },
            {
              "internalType": "uint256",
              "name": "limitPrice",
              "type": "uint256"
            },
            {
              "internalType": "Tick",
              "name": "tick",
              "type": "int24"
            },
            {
              "internalType": "uint256",
              "name": "quoteAmount",
              "type": "uint256"
            },
            {
              "internalType": "bytes",
              "name": "takeHookData",
              "type": "bytes"
            },
            {
              "internalType": "bytes",
              "name": "makeHookData",
              "type": "bytes"
            }
          ],
          "internalType": "struct IController.LimitOrderParams[]",
          "name": "orderParamsList",
          "type": "tuple[]"
        },
        {
          "internalType": "address[]",
          "name": "tokensToSettle",
          "type": "address[]"
        },
        {
          "components": [
            {
              "internalType": "address",
              "name": "token",
              "type": "address"
            },
            {
              "internalType": "uint256",
              "name": "permitAmount",
              "type": "uint256"
            },
            {
              "components": [
                {
                  "internalType": "uint256",
                  "name": "deadline",
                  "type": "uint256"
                },
                {
                  "internalType": "uint8",
                  "name": "v",
                  "type": "uint8"
                },
                {
                  "internalType": "bytes32",
                  "name": "r",
                  "type": "bytes32"
                },
                {
                  "internalType": "bytes32",
                  "name": "s",
                  "type": "bytes32"
                }
              ],
              "internalType": "struct IController.PermitSignature",
              "name": "signature",
              "type": "tuple"
            }
          ],
          "internalType": "struct IController.ERC20PermitParams[]",
          "name": "permitParamsList",
          "type": "tuple[]"
        },
        {
          "internalType": "uint64",
          "name": "deadline",
          "type": "uint64"
        }
      ],
      "name": "limit",
      "outputs": [
        {
          "internalType": "OrderId[]",
          "name": "ids",
          "type": "uint256[]"
        }
      ],
      "stateMutability": "payable",
      "type": "function"
    },
    {
      "inputs": [
        {
          "internalType": "address",
          "name": "sender",
          "type": "address"
        },
        {
          "internalType": "bytes",
          "name": "data",
          "type": "bytes"
        }
      ],
      "name": "lockAcquired",
      "outputs": [
        {
          "internalType": "bytes",
          "name": "returnData",
          "type": "bytes"
        }
      ],
      "stateMutability": "nonpayable",
      "type": "function"
    },
    {
      "inputs": [
        {
          "components": [
            {
              "internalType": "BookId",
              "name": "id",
              "type": "uint192"
            },
            {
              "internalType": "Tick",
              "name": "tick",
              "type": "int24"
            },
            {
              "internalType": "uint256",
              "name": "quoteAmount",
              "type": "uint256"
            },
            {
              "internalType": "bytes",
              "name": "hookData",
              "type": "bytes"
            }
          ],
          "internalType": "struct IController.MakeOrderParams[]",
          "name": "orderParamsList",
          "type": "tuple[]"
        },
        {
          "internalType": "address[]",
          "name": "tokensToSettle",
          "type": "address[]"
        },
        {
          "components": [
            {
              "internalType": "address",
              "name": "token",
              "type": "address"
            },
            {
              "internalType": "uint256",
              "name": "permitAmount",
              "type": "uint256"
            },
            {
              "components": [
                {
                  "internalType": "uint256",
                  "name": "deadline",
                  "type": "uint256"
                },
                {
                  "internalType": "uint8",
                  "name": "v",
                  "type": "uint8"
                },
                {
                  "internalType": "bytes32",
                  "name": "r",
                  "type": "bytes32"
                },
                {
                  "internalType": "bytes32",
                  "name": "s",
                  "type": "bytes32"
                }
              ],
              "internalType": "struct IController.PermitSignature",
              "name": "signature",
              "type": "tuple"
            }
          ],
          "internalType": "struct IController.ERC20PermitParams[]",
          "name": "permitParamsList",
          "type": "tuple[]"
        },
        {
          "internalType": "uint64",
          "name": "deadline",
          "type": "uint64"
        }
      ],
      "name": "make",
      "outputs": [
        {
          "internalType": "OrderId[]",
          "name": "ids",
          "type": "uint256[]"
        }
      ],
      "stateMutability": "payable",
      "type": "function"
    },
    {
      "inputs": [
        {
          "components": [
            {
              "components": [
                {
                  "internalType": "Currency",
                  "name": "base",
                  "type": "address"
                },
                {
                  "internalType": "uint64",
                  "name": "unitSize",
                  "type": "uint64"
                },
                {
                  "internalType": "Currency",
                  "name": "quote",
                  "type": "address"
                },
                {
                  "internalType": "FeePolicy",
                  "name": "makerPolicy",
                  "type": "uint24"
                },
                {
                  "internalType": "contract IHooks",
                  "name": "hooks",
                  "type": "address"
                },
                {
                  "internalType": "FeePolicy",
                  "name": "takerPolicy",
                  "type": "uint24"
                }
              ],
              "internalType": "struct IBookManager.BookKey",
              "name": "key",
              "type": "tuple"
            },
            {
              "internalType": "bytes",
              "name": "hookData",
              "type": "bytes"
            }
          ],
          "internalType": "struct IController.OpenBookParams[]",
          "name": "openBookParamsList",
          "type": "tuple[]"
        },
        {
          "internalType": "uint64",
          "name": "deadline",
          "type": "uint64"
        }
      ],
      "name": "open",
      "outputs": [],
      "stateMutability": "nonpayable",
      "type": "function"
    },
    {
      "inputs": [
        {
          "components": [
            {
              "internalType": "BookId",
              "name": "id",
              "type": "uint192"
            },
            {
              "internalType": "uint256",
              "name": "limitPrice",
              "type": "uint256"
            },
            {
              "internalType": "uint256",
              "name": "baseAmount",
              "type": "uint256"
            },
            {
              "internalType": "uint256",
              "name": "minQuoteAmount",
              "type": "uint256"
            },
            {
              "internalType": "bytes",
              "name": "hookData",
              "type": "bytes"
            }
          ],
          "internalType": "struct IController.SpendOrderParams[]",
          "name": "orderParamsList",
          "type": "tuple[]"
        },
        {
          "internalType": "address[]",
          "name": "tokensToSettle",
          "type": "address[]"
        },
        {
          "components": [
            {
              "internalType": "address",
              "name": "token",
              "type": "address"
            },
            {
              "internalType": "uint256",
              "name": "permitAmount",
              "type": "uint256"
            },
            {
              "components": [
                {
                  "internalType": "uint256",
                  "name": "deadline",
                  "type": "uint256"
                },
                {
                  "internalType": "uint8",
                  "name": "v",
                  "type": "uint8"
                },
                {
                  "internalType": "bytes32",
                  "name": "r",
                  "type": "bytes32"
                },
                {
                  "internalType": "bytes32",
                  "name": "s",
                  "type": "bytes32"
                }
              ],
              "internalType": "struct IController.PermitSignature",
              "name": "signature",
              "type": "tuple"
            }
          ],
          "internalType": "struct IController.ERC20PermitParams[]",
          "name": "permitParamsList",
          "type": "tuple[]"
        },
        {
          "internalType": "uint64",
          "name": "deadline",
          "type": "uint64"
        }
      ],
      "name": "spend",
      "outputs": [],
      "stateMutability": "payable",
      "type": "function"
    },
    {
      "inputs": [
        {
          "components": [
            {
              "internalType": "BookId",
              "name": "id",
              "type": "uint192"
            },
            {
              "internalType": "uint256",
              "name": "limitPrice",
              "type": "uint256"
            },
            {
              "internalType": "uint256",
              "name": "quoteAmount",
              "type": "uint256"
            },
            {
              "internalType": "uint256",
              "name": "maxBaseAmount",
              "type": "uint256"
            },
            {
              "internalType": "bytes",
              "name": "hookData",
              "type": "bytes"
            }
          ],
          "internalType": "struct IController.TakeOrderParams[]",
          "name": "orderParamsList",
          "type": "tuple[]"
        },
        {
          "internalType": "address[]",
          "name": "tokensToSettle",
          "type": "address[]"
        },
        {
          "components": [
            {
              "internalType": "address",
              "name": "token",
              "type": "address"
            },
            {
              "internalType": "uint256",
              "name": "permitAmount",
              "type": "uint256"
            },
            {
              "components": [
                {
                  "internalType": "uint256",
                  "name": "deadline",
                  "type": "uint256"
                },
                {
                  "internalType": "uint8",
                  "name": "v",
                  "type": "uint8"
                },
                {
                  "internalType": "bytes32",
                  "name": "r",
                  "type": "bytes32"
                },
                {
                  "internalType": "bytes32",
                  "name": "s",
                  "type": "bytes32"
                }
              ],
              "internalType": "struct IController.PermitSignature",
              "name": "signature",
              "type": "tuple"
            }
          ],
          "internalType": "struct IController.ERC20PermitParams[]",
          "name": "permitParamsList",
          "type": "tuple[]"
        },
        {
          "internalType": "uint64",
          "name": "deadline",
          "type": "uint64"
        }
      ],
      "name": "take",
      "outputs": [],
      "stateMutability": "payable",
      "type": "function"
    },
    {
      "inputs": [
        {
          "internalType": "Tick",
          "name": "tick",
          "type": "int24"
        }
      ],
      "name": "toPrice",
      "outputs": [
        {
          "internalType": "uint256",
          "name": "",
          "type": "uint256"
        }
      ],
      "stateMutability": "pure",
      "type": "function"
    },
    {
      "stateMutability": "payable",
      "type": "receive"
    }
  ],
  "transactionHash": "0xd92e69432901f61ca261ac054d35111de4a847607189dcaf4b3e1884b7dbc4d7",
  "args": [
    "0x3a90fbD5DbE4C82018A4Ac28406A50917dB91def"
  ],
  "numDeployments": 1,
  "solcInputHash": "28377c1a43170404e092055c5f6275a7",
  "bytecode": "0x60a0604052348015600e575f80fd5b50604051615773380380615773833981016040819052602b91603f565b60015f556001600160a01b0316608052606a565b5f60208284031215604e575f80fd5b81516001600160a01b03811681146063575f80fd5b9392505050565b6080516155e761018c5f395f81816104900152818161052f01528181610713015281816108f101528181610a3801528181610bc901528181610c5a01528181610d2401528181610e7f015281816110f201528181611357015281816117140152818161195701528181611a1a01528181611e3801528181611ec001528181611fa001528181612154015281816121f7015281816122920152818161239f015281816124e301528181612586015281816126210152818161273a0152818161288801528181612902015281816129a601528181612aa101528181612b1901528181612b7101528181612c0201528181612cbc01528181612d6601528181612de101528181612e5b01528181612eec01528181612f61015261352001526155e75ff3fe6080604052600436106100dc575f3560e01c80637d7731101161007c578063a183a10411610057578063a183a1041461023f578063c0e8e89a1461025e578063d09ef24114610271578063fe815746146102ba575f80fd5b80637d773110146101ee5780638feb85b714610201578063a04c796b14610220575f80fd5b806341a8bb88116100b757806341a8bb881461015e578063483f9f2f1461017d57806350835858146101af5780637658ab05146101ce575f80fd5b806309ae2c13146100e757806315c7afb4146100fc5780631ae45a1214610131575f80fd5b366100e357005b5f80fd5b6100fa6100f5366004613d9c565b6102cd565b005b348015610107575f80fd5b5061011b610116366004613f4d565b61051a565b6040516101289190614007565b60405180910390f35b34801561013c575f80fd5b5061015061014b36600461402d565b610b9d565b604051908152602001610128565b348015610169575f80fd5b50610150610178366004614061565b610c3a565b348015610188575f80fd5b5061019c610197366004614098565b610da7565b60405160029190910b8152602001610128565b3480156101ba575f80fd5b506101506101c93660046140af565b610db1565b6101e16101dc36600461410a565b610dbe565b60405161012891906141fe565b6101e16101fc366004613d9c565b610f2b565b34801561020c575f80fd5b506100fa61021b366004614241565b611196565b34801561022b575f80fd5b506100fa61023a366004614241565b6113df565b34801561024a575f80fd5b506100fa6102593660046142c2565b61155e565b6100fa61026c366004613d9c565b611799565b34801561027c575f80fd5b5061029061028b366004614098565b61191a565b604080516001600160a01b0390951685526020850193909352918301526060820152608001610128565b6101e16102c8366004613d9c565b611b36565b80806001600160401b03164211156102f85760405163637910d560e11b815260040160405180910390fd5b83836103048282611cb9565b885f816001600160401b0381111561031e5761031e613e55565b604051908082528060200260200182016040528015610347578160200160208202803683370190505b5090505f826001600160401b0381111561036357610363613e55565b60405190808252806020026020018201604052801561039657816020015b60608152602001906001900390816103815790505b5090505f5b8381101561044e5760038382815181106103b7576103b7614314565b602002602001019060068111156103d0576103d0614328565b908160068111156103e3576103e3614328565b9052508d8d828181106103f8576103f8614314565b905060200281019061040a919061433c565b60405160200161041a9190614425565b60405160208183030381529060405282828151811061043b5761043b614314565b602090810291909101015260010161039b565b505f3383838e8e604051602001610469959493929190614530565b60408051601f19818403018152908290526313942f3360e31b825291506001600160a01b037f00000000000000000000000000000000000000000000000000000000000000001690639ca17998906104c79030908590600401614578565b5f604051808303815f875af11580156104e2573d5f803e3d5ffd5b505050506040513d5f823e601f3d908101601f1916820160405261050991908101906145e6565b505050505050505050505050505050565b6060610524611dc0565b336001600160a01b037f00000000000000000000000000000000000000000000000000000000000000001614158061056557506001600160a01b0383163014155b1561059c576040517fc0185c6400000000000000000000000000000000000000000000000000000000815260040160405180910390fd5b5f805f80858060200190518101906105b4919061472f565b8251939750919550935091505f816001600160401b038111156105d9576105d9613e55565b604051908082528060200260200182016040528015610602578160200160208202803683370190505b5090505f805b83811015610b57575f87828151811061062357610623614314565b602002602001015190505f600681111561063f5761063f614328565b81600681111561065157610651614328565b036106905761068b87838151811061066b5761066b614314565b602002602001015180602001905181019061068691906148e2565b611e01565b610b4e565b60018160068111156106a4576106a4614328565b0361079c575f6106df8884815181106106bf576106bf614314565b60200260200101518060200190518101906106da9190614971565b611e9b565b90508015610796576040516323b872dd60e01b81523060048201526001600160a01b038b81166024830152604482018390527f000000000000000000000000000000000000000000000000000000000000000016906323b872dd906064015f604051808303815f87803b158015610754575f80fd5b505af1158015610766573d5f803e3d5ffd5b505050508085858061077790614a1c565b96508151811061078957610789614314565b6020026020010181815250505b50610b4e565b60028160068111156107b0576107b0614328565b036107eb575f6106df8884815181106107cb576107cb614314565b60200260200101518060200190518101906107e69190614a34565b612074565b60038160068111156107ff576107ff614328565b036108405761083987838151811061081957610819614314565b60200260200101518060200190518101906108349190614b9a565b61212d565b5050610b4e565b600481600681111561085457610854614328565b0361088e5761083987838151811061086e5761086e614314565b60200260200101518060200190518101906108899190614b9a565b6124bc565b60058160068111156108a2576108a2614328565b036109d5575f8783815181106108ba576108ba614314565b60200260200101518060200190518101906108d59190614bcb565b80516040516331a9108f60e11b815260048101829052919250907f00000000000000000000000000000000000000000000000000000000000000006001600160a01b031690632f584a6d908290636352211e90602401602060405180830381865afa158015610946573d5f803e3d5ffd5b505050506040513d601f19601f8201168201806040525081019061096a9190614c21565b6040516001600160e01b031960e084901b1681526001600160a01b039182166004820152908e166024820152604481018490526064015f6040518083038186803b1580156109b6575f80fd5b505afa1580156109c8573d5f803e3d5ffd5b5050505061083982612851565b60068160068111156109e9576109e9614328565b03610b1c575f878381518110610a0157610a01614314565b6020026020010151806020019051810190610a1c9190614c3c565b80516040516331a9108f60e11b815260048101829052919250907f00000000000000000000000000000000000000000000000000000000000000006001600160a01b031690632f584a6d908290636352211e90602401602060405180830381865afa158015610a8d573d5f803e3d5ffd5b505050506040513d601f19601f82011682018060405250810190610ab19190614c21565b6040516001600160e01b031960e084901b1681526001600160a01b039182166004820152908e166024820152604481018490526064015f6040518083038186803b158015610afd575f80fd5b505afa158015610b0f573d5f803e3d5ffd5b50505050610839826128ff565b6040517f4a7f394f00000000000000000000000000000000000000000000000000000000815260040160405180910390fd5b50600101610608565b50610b628785612a79565b80825281604051602001610b7691906141fe565b604051602081830303815290604052975050505050505050610b9760015f55565b92915050565b60405163cdc92f2d60e01b81526001600160c01b03821660048201525f90610b97906001600160a01b037f0000000000000000000000000000000000000000000000000000000000000000169063cdc92f2d90602401602060405180830381865afa158015610c0e573d5f803e3d5ffd5b505050506040513d601f19601f82011682018060405250810190610c329190614cb7565b60020b61316a565b604051639b22917d60e01b81526001600160c01b03831660048201525f907f00000000000000000000000000000000000000000000000000000000000000006001600160a01b031690639b22917d9060240160c060405180830381865afa158015610ca7573d5f803e3d5ffd5b505050506040513d601f19601f82011682018060405250810190610ccb9190614cd2565b602001516040517f41a8bb880000000000000000000000000000000000000000000000000000000081526001600160c01b0385166004820152600284900b60248201526001600160401b03909116906001600160a01b037f000000000000000000000000000000000000000000000000000000000000000016906341a8bb8890604401602060405180830381865afa158015610d69573d5f803e3d5ffd5b505050506040513d601f19601f82011682018060405250810190610d8d9190614cec565b6001600160401b0316610da09190614d07565b9392505050565b5f610b9782613432565b5f610b978260020b61316a565b606081806001600160401b0316421115610deb5760405163637910d560e11b815260040160405180910390fd5b8b8a14610e24576040517f947d5a8400000000000000000000000000000000000000000000000000000000815260040160405180910390fd5b610e2e8787611cb9565b610e3885856134de565b5f338e8e8e8e8e8e604051602001610e569796959493929190614d1e565b60408051601f19818403018152908290526313942f3360e31b825291505f906001600160a01b037f00000000000000000000000000000000000000000000000000000000000000001690639ca1799890610eb69030908690600401614578565b5f604051808303815f875af1158015610ed1573d5f803e3d5ffd5b505050506040513d5f823e601f3d908101601f19168201604052610ef891908101906145e6565b905080515f14610f195780806020019051810190610f169190614ded565b93505b5050509b9a5050505050505050505050565b606081806001600160401b0316421115610f585760405163637910d560e11b815260040160405180910390fd5b8484610f648282611cb9565b895f816001600160401b03811115610f7e57610f7e613e55565b604051908082528060200260200182016040528015610fa7578160200160208202803683370190505b5090505f826001600160401b03811115610fc357610fc3613e55565b604051908082528060200260200182016040528015610ff657816020015b6060815260200190600190039081610fe15790505b5090505f5b838110156110ae57600183828151811061101757611017614314565b6020026020010190600681111561103057611030614328565b9081600681111561104357611043614328565b9052508e8e8281811061105857611058614314565b905060200281019061106a9190614e6d565b60405160200161107a9190614e81565b60405160208183030381529060405282828151811061109b5761109b614314565b6020908102919091010152600101610ffb565b505f3383838f8f6040516020016110c9959493929190614530565b60408051601f19818403018152908290526313942f3360e31b825291505f906001600160a01b037f00000000000000000000000000000000000000000000000000000000000000001690639ca17998906111299030908690600401614578565b5f604051808303815f875af1158015611144573d5f803e3d5ffd5b505050506040513d5f823e601f3d908101601f1916820160405261116b91908101906145e6565b9050808060200190518101906111819190614ded565b98505050505050505050979650505050505050565b80806001600160401b03164211156111c15760405163637910d560e11b815260040160405180910390fd5b6111cb84846134de565b865f816001600160401b038111156111e5576111e5613e55565b60405190808252806020026020018201604052801561120e578160200160208202803683370190505b5090505f826001600160401b0381111561122a5761122a613e55565b60405190808252806020026020018201604052801561125d57816020015b60608152602001906001900390816112485790505b5090505f5b8381101561131557600583828151811061127e5761127e614314565b6020026020010190600681111561129757611297614328565b908160068111156112aa576112aa614328565b9052508b8b828181106112bf576112bf614314565b90506020028101906112d19190614ee4565b6040516020016112e19190614ef8565b60405160208183030381529060405282828151811061130257611302614314565b6020908102919091010152600101611262565b505f3383838c8c604051602001611330959493929190614530565b60408051601f19818403018152908290526313942f3360e31b825291506001600160a01b037f00000000000000000000000000000000000000000000000000000000000000001690639ca179989061138e9030908590600401614578565b5f604051808303815f875af11580156113a9573d5f803e3d5ffd5b505050506040513d5f823e601f3d908101601f191682016040526113d091908101906145e6565b50505050505050505050505050565b80806001600160401b031642111561140a5760405163637910d560e11b815260040160405180910390fd5b61141484846134de565b865f816001600160401b0381111561142e5761142e613e55565b604051908082528060200260200182016040528015611457578160200160208202803683370190505b5090505f826001600160401b0381111561147357611473613e55565b6040519080825280602002602001820160405280156114a657816020015b60608152602001906001900390816114915790505b5090505f5b838110156113155760068382815181106114c7576114c7614314565b602002602001019060068111156114e0576114e0614328565b908160068111156114f3576114f3614328565b9052508b8b8281811061150857611508614314565b905060200281019061151a9190614f25565b60405160200161152a9190614f39565b60405160208183030381529060405282828151811061154b5761154b614314565b60209081029190910101526001016114ab565b80806001600160401b03164211156115895760405163637910d560e11b815260040160405180910390fd5b825f816001600160401b038111156115a3576115a3613e55565b6040519080825280602002602001820160405280156115cc578160200160208202803683370190505b5090505f826001600160401b038111156115e8576115e8613e55565b60405190808252806020026020018201604052801561161b57816020015b60608152602001906001900390816116065790505b5090505f5b838110156116d2575f83828151811061163b5761163b614314565b6020026020010190600681111561165457611654614328565b9081600681111561166757611667614328565b90525087878281811061167c5761167c614314565b905060200281019061168e9190614f70565b60405160200161169e9190614f9a565b6040516020818303038152906040528282815181106116bf576116bf614314565b6020908102919091010152600101611620565b5060605f338484846040516020016116ed9493929190615061565b60408051601f19818403018152908290526313942f3360e31b825291506001600160a01b037f00000000000000000000000000000000000000000000000000000000000000001690639ca179989061174b9030908590600401614578565b5f604051808303815f875af1158015611766573d5f803e3d5ffd5b505050506040513d5f823e601f3d908101601f1916820160405261178d91908101906145e6565b50505050505050505050565b80806001600160401b03164211156117c45760405163637910d560e11b815260040160405180910390fd5b83836117d08282611cb9565b885f816001600160401b038111156117ea576117ea613e55565b604051908082528060200260200182016040528015611813578160200160208202803683370190505b5090505f826001600160401b0381111561182f5761182f613e55565b60405190808252806020026020018201604052801561186257816020015b606081526020019060019003908161184d5790505b5090505f5b8381101561044e57600483828151811061188357611883614314565b6020026020010190600681111561189c5761189c614328565b908160068111156118af576118af614328565b9052508d8d828181106118c4576118c4614314565b90506020028101906118d6919061433c565b6040516020016118e69190614425565b60405160208183030381529060405282828151811061190757611907614314565b6020908102919091010152600101611867565b5f8080808080604087901c602888901c604051639b22917d60e01b81526001600160c01b038316600482015291935091505f906001600160a01b037f00000000000000000000000000000000000000000000000000000000000000001690639b22917d9060240160c060405180830381865afa15801561199c573d5f803e3d5ffd5b505050506040513d601f19601f820116820180604052508101906119c09190614cd2565b60208101519091506001600160401b03166119de600284900b61316a565b6040517fd09ef241000000000000000000000000000000000000000000000000000000008152600481018b90529097505f906001600160a01b037f0000000000000000000000000000000000000000000000000000000000000000169063d09ef24190602401606060405180830381865afa158015611a5f573d5f803e3d5ffd5b505050506040513d601f19601f82011682018060405250810190611a8391906150df565b80516020820151909a50909150611aa3906001600160401b031683614d07565b6060840151604083015191985090611ad490611ac8906001600160401b031685614d07565b600287900b905f6135f5565b9650611ae58162ffffff1660171c90565b611b29575f611afa62ffffff8316898361361f565b90505f8113611b1b57611b0c81615131565b611b169089615167565b611b25565b611b25818961517a565b9750505b5050505050509193509193565b606081806001600160401b0316421115611b635760405163637910d560e11b815260040160405180910390fd5b8484611b6f8282611cb9565b895f816001600160401b03811115611b8957611b89613e55565b604051908082528060200260200182016040528015611bb2578160200160208202803683370190505b5090505f826001600160401b03811115611bce57611bce613e55565b604051908082528060200260200182016040528015611c0157816020015b6060815260200190600190039081611bec5790505b5090505f5b838110156110ae576002838281518110611c2257611c22614314565b60200260200101906006811115611c3b57611c3b614328565b90816006811115611c4e57611c4e614328565b9052508e8e82818110611c6357611c63614314565b9050602002810190611c759190614f70565b604051602001611c85919061518d565b604051602081830303815290604052828281518110611ca657611ca6614314565b6020908102919091010152600101611c06565b5f5b81811015611dbb575f838383818110611cd657611cd6614314565b905060c00201803603810190611cec9190615297565b60408101515190915015611db25780516020808301516040808501518051938101518183015160609092015192517fd505accf0000000000000000000000000000000000000000000000000000000081523360048201523060248201526044810194909452606484019490945260ff909316608483015260a482019290925260c48101919091526001600160a01b039091169063d505accf9060e4015f604051808303815f87803b158015611d9f575f80fd5b505af1925050508015611db0575060015b505b50600101611cbb565b505050565b60025f5403611dfb576040517f3ee5aeb500000000000000000000000000000000000000000000000000000000815260040160405180910390fd5b60025f55565b805160208201516040517ffefc7c510000000000000000000000000000000000000000000000000000000081526001600160a01b037f0000000000000000000000000000000000000000000000000000000000000000169263fefc7c5192611e6b926004016152d3565b5f604051808303815f87803b158015611e82575f80fd5b505af1158015611e94573d5f803e3d5ffd5b5050505050565b8051604051639b22917d60e01b81526001600160c01b0390911660048201525f9081907f00000000000000000000000000000000000000000000000000000000000000006001600160a01b031690639b22917d9060240160c060405180830381865afa158015611f0d573d5f803e3d5ffd5b505050506040513d601f19601f82011682018060405250810190611f319190614cd2565b90505f83604001519050611f4e826060015162ffffff1660171c90565b15611f6b576060820151611f689062ffffff16825f61369f565b90505b5f611f8d83602001516001600160401b031683611f88919061535e565b6136f4565b90506001600160401b0381161561206c577f00000000000000000000000000000000000000000000000000000000000000006001600160a01b0316631dbef4886040518060800160405280868152602001886020015160020b8152602001846001600160401b031681526020015f6001600160a01b031681525087606001516040518363ffffffff1660e01b815260040161202992919061537d565b60408051808303815f875af1158015612044573d5f803e3d5ffd5b505050506040513d601f19601f82011682018060405250810190612068919061542b565b5093505b505050919050565b5f806120bd6040518060a00160405280855f01516001600160c01b0316815260200185604001518152602001856080015181526020015f81526020018560a001518152506124bc565b91505080836080018181516120d2919061517a565b90525060808301511561212757612124604051806080016040528085602001516001600160c01b03168152602001856060015160020b8152602001856080015181526020018560c00151815250611e9b565b91505b50919050565b8051604051639b22917d60e01b81526001600160c01b0390911660048201525f90819081907f00000000000000000000000000000000000000000000000000000000000000006001600160a01b031690639b22917d9060240160c060405180830381865afa1580156121a1573d5f803e3d5ffd5b505050506040513d601f19601f820116820180604052508101906121c59190614cd2565b90505b82846040015111801561226a5750835160405163fcc8fc9b60e01b81526001600160c01b0390911660048201527f00000000000000000000000000000000000000000000000000000000000000006001600160a01b03169063fcc8fc9b90602401602060405180830381865afa158015612244573d5f803e3d5ffd5b505050506040513d601f19601f82011682018060405250810190612268919061544d565b155b1561249157835160405163cdc92f2d60e01b81526001600160c01b0390911660048201525f907f00000000000000000000000000000000000000000000000000000000000000006001600160a01b03169063cdc92f2d90602401602060405180830381865afa1580156122df573d5f803e3d5ffd5b505050506040513d601f19601f820116820180604052508101906123039190614cb7565b90506123118160020b61316a565b856020015111156123225750612491565b5f6123368360a0015162ffffff1660171c90565b15612367576123608587604001510360018560a0015162ffffff1661369f9092919063ffffffff16565b9050612371565b8486604001510390505b60208301516001600160401b03168082049082061515600116019050805f0361239b575050612491565b5f807f00000000000000000000000000000000000000000000000000000000000000006001600160a01b0316633b9500b060405180606001604052808881526020018760020b81526020016123ef876136f4565b6001600160401b03168152508a608001516040518363ffffffff1660e01b815260040161241d92919061546c565b60408051808303815f875af1158015612438573d5f803e3d5ffd5b505050506040513d601f19601f8201168201806040525081019061245c919061542b565b91509150815f036124705750505050612491565b61247a8288615167565b96506124868187615167565b9550505050506121c8565b81846060015110156124b657604051630f271b5560e41b815260040160405180910390fd5b50915091565b8051604051639b22917d60e01b81526001600160c01b0390911660048201525f90819081907f00000000000000000000000000000000000000000000000000000000000000006001600160a01b031690639b22917d9060240160c060405180830381865afa158015612530573d5f803e3d5ffd5b505050506040513d601f19601f820116820180604052508101906125549190614cd2565b90505b8360400151821080156125f95750835160405163fcc8fc9b60e01b81526001600160c01b0390911660048201527f00000000000000000000000000000000000000000000000000000000000000006001600160a01b03169063fcc8fc9b90602401602060405180830381865afa1580156125d3573d5f803e3d5ffd5b505050506040513d601f19601f820116820180604052508101906125f7919061544d565b155b1561282c57835160405163cdc92f2d60e01b81526001600160c01b0390911660048201525f907f00000000000000000000000000000000000000000000000000000000000000006001600160a01b03169063cdc92f2d90602401602060405180830381865afa15801561266e573d5f803e3d5ffd5b505050506040513d601f19601f820116820180604052508101906126929190614cb7565b90506126a08160020b61316a565b856020015111156126b1575061282c565b5f6126c58360a0015162ffffff1660171c90565b156126d8578386604001510390506126ff565b6126fc848760400151035f8560a0015162ffffff1661369f9092919063ffffffff16565b90505b60208301516001600160401b031661271c600284900b835f61374b565b612726919061535e565b9050805f0361273657505061282c565b5f807f00000000000000000000000000000000000000000000000000000000000000006001600160a01b0316633b9500b060405180606001604052808881526020018760020b815260200161278a876136f4565b6001600160401b03168152508a608001516040518363ffffffff1660e01b81526004016127b892919061546c565b60408051808303815f875af11580156127d3573d5f803e3d5ffd5b505050506040513d601f19601f820116820180604052508101906127f7919061542b565b91509150805f0361280b575050505061282c565b6128158288615167565b96506128218187615167565b955050505050612557565b82846060015111156124b657604051630f271b5560e41b815260040160405180910390fd5b805160208201516040517f38926b6d0000000000000000000000000000000000000000000000000000000081526001600160a01b037f000000000000000000000000000000000000000000000000000000000000000016926338926b6d926128bb92600401615506565b6020604051808303815f875af11580156128d7573d5f803e3d5ffd5b505050506040513d601f19601f820116820180604052508101906128fb919061551e565b5050565b5f7f00000000000000000000000000000000000000000000000000000000000000006001600160a01b0316639b22917d61293c845f015160401c90565b6040516001600160e01b031960e084901b1681526001600160c01b03909116600482015260240160c060405180830381865afa15801561297e573d5f803e3d5ffd5b505050506040513d601f19601f820116820180604052508101906129a29190614cd2565b90507f00000000000000000000000000000000000000000000000000000000000000006001600160a01b03166314d6a9eb6040518060400160405280855f01518152602001612a0785602001516001600160401b03168760200151611f88919061535e565b6001600160401b031681525084604001516040518363ffffffff1660e01b8152600401612a35929190615535565b6020604051808303815f875af1925050508015612a6f575060408051601f3d908101601f19168201909252612a6c9181019061551e565b60015b156128fb57505050565b60405163a54b283160e01b81523060048201525f602482018190529081906001600160a01b037f0000000000000000000000000000000000000000000000000000000000000000169063a54b283190604401602060405180830381865afa158015612ae6573d5f803e3d5ffd5b505050506040513d601f19601f82011682018060405250810190612b0a919061551e565b90505f811215612bdd57612b527f0000000000000000000000000000000000000000000000000000000000000000612b4183615131565b6001600160a01b038516919061378d565b604051636a256b2960e01b81526001600160a01b0383811660048301527f00000000000000000000000000000000000000000000000000000000000000001690636a256b29906024016020604051808303815f875af1158015612bb7573d5f803e3d5ffd5b505050506040513d601f19601f82011682018060405250810190612bdb919061551e565b505b60405163a54b283160e01b81523060048201526001600160a01b0383811660248301527f0000000000000000000000000000000000000000000000000000000000000000169063a54b283190604401602060405180830381865afa158015612c47573d5f803e3d5ffd5b505050506040513d601f19601f82011682018060405250810190612c6b919061551e565b90505f811315612d14576040517fd9caed120000000000000000000000000000000000000000000000000000000081526001600160a01b0383811660048301528581166024830152604482018390527f0000000000000000000000000000000000000000000000000000000000000000169063d9caed12906064015f604051808303815f87803b158015612cfd575f80fd5b505af1158015612d0f573d5f803e3d5ffd5b505050505b82515f5b8181101561314f575f858281518110612d3357612d33614314565b602090810291909101015160405163a54b283160e01b81523060048201526001600160a01b0380831660248301529192507f00000000000000000000000000000000000000000000000000000000000000009091169063a54b283190604401602060405180830381865afa158015612dad573d5f803e3d5ffd5b505050506040513d601f19601f82011682018060405250810190612dd1919061551e565b93505f841215612ec757612e3c877f0000000000000000000000000000000000000000000000000000000000000000612e0987615131565b898681518110612e1b57612e1b614314565b60200260200101516001600160a01b031661385c909392919063ffffffff16565b604051636a256b2960e01b81526001600160a01b0382811660048301527f00000000000000000000000000000000000000000000000000000000000000001690636a256b29906024016020604051808303815f875af1158015612ea1573d5f803e3d5ffd5b505050506040513d601f19601f82011682018060405250810190612ec5919061551e565b505b60405163a54b283160e01b81523060048201526001600160a01b0382811660248301527f0000000000000000000000000000000000000000000000000000000000000000169063a54b283190604401602060405180830381865afa158015612f31573d5f803e3d5ffd5b505050506040513d601f19601f82011682018060405250810190612f55919061551e565b93505f84131561300f577f00000000000000000000000000000000000000000000000000000000000000006001600160a01b031663d9caed12878481518110612fa057612fa0614314565b60209081029190910101516040516001600160e01b031960e084901b1681526001600160a01b039182166004820152908a166024820152604481018790526064015f604051808303815f87803b158015612ff8575f80fd5b505af115801561300a573d5f803e3d5ffd5b505050505b5f86838151811061302257613022614314565b60209081029190910101516040517f70a082310000000000000000000000000000000000000000000000000000000081523060048201526001600160a01b03909116906370a0823190602401602060405180830381865afa158015613089573d5f803e3d5ffd5b505050506040513d601f19601f820116820180604052508101906130ad919061551e565b90508015613145578683815181106130c7576130c7614314565b602090810291909101015160405163a9059cbb60e01b81526001600160a01b038a81166004830152602482018490529091169063a9059cbb906044016020604051808303815f875af115801561311f573d5f803e3d5ffd5b505050506040513d601f19601f82011682018060405250810190613143919061544d565b505b5050600101612d18565b504715611e9457611e946001600160a01b038416864761378d565b5f613174826138cb565b815f600282900b81136131875781613190565b61319082615561565b62ffffff81169150600116156131b4576bfff97272373d413259a4699092506131c5565b6c0100000000000000000000000092505b60028116156131e45760606bfff2e50f5f656932ef12357c8402901c92505b60048116156132035760606bffe5caca7e10e4e61c3624ea8402901c92505b60088116156132225760606bffcb9843d60f6159c9db58838402901c92505b60108116156132415760606bff973b41fa98c081472e68968402901c92505b60208116156132605760606bff2ea16466c96a3843ec78b38402901c92505b604081161561327f5760606bfe5dee046a99a2a811c461f18402901c92505b608081161561329e5760606bfcbe86c7900a88aedcffc83b8402901c92505b6101008116156132be5760606bf987a7253ac413176f2b074c8402901c92505b6102008116156132de5760606bf3392b0822b70005940c7a398402901c92505b6104008116156132fe5760606be7159475a2c29b7443b29c7f8402901c92505b61080081161561331e5760606bd097f3bdfd2022b8845ad8f78402901c92505b61100081161561333e5760606ba9f746462d870fdf8a65dc1f8402901c92505b61200081161561335e5760606b70d869a156d2a1b890bb3df68402901c92505b61400081161561337e5760606b31be135f97d08fd9812315058402901c92505b61800081161561339e5760606b09aa508b5b7a84e1c677de548402901c92505b620100008116156133be5760606a5d6af8dedb81196699c3298402901c92505b620200008116156133dd576060692216e584f5fa1ea926048402901c92505b620400008116156133fa57606067048a170391f7dc428402901c92505b5f8260020b131561342b5761342883780100000000000000000000000000000000000000000000000061535e565b92505b5050919050565b5f81750c6c1313451aab317fb9b67e11777e9a5a6ccdb2ebae81118061345a575062149bbb81105b15613490576040517ebfc92100000000000000000000000000000000000000000000000000000000815260040160405180910390fd5b5f7001000000000000000000000000000000006134ac8561392a565b6527107fff743402816134c1576134c161534a565b059050836134ce8261316a565b1115612124575f19019150612127565b5f5b81811015611dbb575f8383838181106134fb576134fb614314565b905060a002016020018036038101906135149190615581565b8051909150156135ec577f00000000000000000000000000000000000000000000000000000000000000006001600160a01b0316637ac2ff7b3086868681811061356057613560614314565b865160208801516040808a015160608b015191516001600160e01b031960e08b901b1681526001600160a01b03909816600489015260a090940295909501356024870152604486019190915260ff16606485015260848401525060a482015260c4015f604051808303815f87803b1580156135d9575f80fd5b505af19250505080156135ea575060015b505b506001016134e0565b5f613617606084901b61360a8660020b61316a565b8082061515851691040190565b949350505050565b5f6207a11f19627fffff851601600281900b8212828161364157825f03613643565b825b62ffffff1690505f61367c6136588389614d07565b620f42408861366e578581830615151691040190565b808206151586151691040190565b9050826136915761368c81615131565b613693565b805b98975050505050505050565b5f6207a11f19627fffff851601600281900b82128284156136c057825f0392505b82620f42400190506136e9620f4240876136da9190614d07565b82810615158416908390040190565b979650505050505050565b5f6001600160401b0382111561374757604080517f6dfcc6500000000000000000000000000000000000000000000000000000000081526004810191909152602481018390526044015b60405180910390fd5b5090565b5f61361761375b8560020b61316a565b6137659085614d07565b6bffffffffffffffffffffffff8116151584166c010000000000000000000000009091040190565b5f6001600160a01b0384166137e2575f805f8085875af19050806137dd576040517ff4b3b1bc00000000000000000000000000000000000000000000000000000000815260040160405180910390fd5b613856565b60405163a9059cbb60e01b81526001600160a01b038416600482015282602482015260205f6044835f895af13d15601f3d1160015f511416171691505080613856576040517ff27f64e400000000000000000000000000000000000000000000000000000000815260040160405180910390fd5b50505050565b604080516001600160a01b0385811660248301528416604482015260648082018490528251808303909101815260849091019091526020810180517bffffffffffffffffffffffffffffffffffffffffffffffffffffffff166323b872dd60e01b179052613856908590613b43565b6207ffff600282900b13806138f057506138e76207ffff615561565b60020b8160020b125b15613927576040517fce8ef7fc00000000000000000000000000000000000000000000000000000000815260040160405180910390fd5b50565b6fffffffffffffffffffffffffffffffff811160071b81811c6001600160401b031060061b1781811c63ffffffff1060051b1781811c61ffff1060041b1781811c60ff1060031b175f821361398657631615e6385f526004601cfd5b7103782dace9d90000000000000000000000007ff8f9f9faf9fdfafbf9fdfcfdfafbfcfef9fafdfafcfcfbfefafafcfbffffffff6f8421084210842108cc6318c6db6d54be84841c1c601f161a90911891821b609f90811c6c465772b2bbbb5f824b15207a3081018102606090811d6d0388eaa27412d5aca026815d636e018202811d6d0df99ac502031bf953eff472fdcc018202811d6d13cdffb29d51d99322bdff5f2211018202811d6d0a0f742023def783a307a986912e018202811d6d01920d8043ca89b5239253284e42018202811d6c0b7a86d7375468fac667a0a527016c29508e458543d8aa4df2abee7883018302821d6d0139601a2efabe717e604cbb4894018302821d6d02247f7a7b6594320649aa03aba1018302821d6c8c3f38e95a6b1ff2ab1c3b343619018302821d6d02384773bdf1ac5676facced60901901830290911d6cb9a025d814b29c212b8b1a07cd19019091027ffffffffffffffff5f6af8f7b3396644f18e157960000000000000000000000000105711340daa0d5f769dba1915cef59f0815a5506029290037d0267a36c0c95b3975ab3ee5b203a7614a3f75373f047d803ae7b6687f2b302919091010590565b5f613b576001600160a01b03841683613bbd565b905080515f14158015613b7b575080806020019051810190613b79919061544d565b155b15611dbb576040517f5274afe70000000000000000000000000000000000000000000000000000000081526001600160a01b038416600482015260240161373e565b6060610da083835f845f80856001600160a01b03168486604051613be1919061559b565b5f6040518083038185875af1925050503d805f8114613c1b576040519150601f19603f3d011682016040523d82523d5f602084013e613c20565b606091505b5091509150613c30868383613c3a565b9695505050505050565b606082613c4f57613c4a82613caf565b610da0565b8151158015613c6657506001600160a01b0384163b155b15613ca8576040517f9996b3150000000000000000000000000000000000000000000000000000000081526001600160a01b038516600482015260240161373e565b5080610da0565b805115613cbf5780518082602001fd5b6040517fd6bda27500000000000000000000000000000000000000000000000000000000815260040160405180910390fd5b5f8083601f840112613d01575f80fd5b5081356001600160401b03811115613d17575f80fd5b6020830191508360208260051b8501011115613d31575f80fd5b9250929050565b5f8083601f840112613d48575f80fd5b5081356001600160401b03811115613d5e575f80fd5b60208301915083602060c083028501011115613d31575f80fd5b6001600160401b0381168114613927575f80fd5b8035613d9781613d78565b919050565b5f805f805f805f6080888a031215613db2575f80fd5b87356001600160401b0380821115613dc8575f80fd5b613dd48b838c01613cf1565b909950975060208a0135915080821115613dec575f80fd5b613df88b838c01613cf1565b909750955060408a0135915080821115613e10575f80fd5b50613e1d8a828b01613d38565b9094509250506060880135613e3181613d78565b8091505092959891949750929550565b6001600160a01b0381168114613927575f80fd5b634e487b7160e01b5f52604160045260245ffd5b604080519081016001600160401b0381118282101715613e8b57613e8b613e55565b60405290565b604051608081016001600160401b0381118282101715613e8b57613e8b613e55565b60405160e081016001600160401b0381118282101715613e8b57613e8b613e55565b604051606081016001600160401b0381118282101715613e8b57613e8b613e55565b604051601f8201601f191681016001600160401b0381118282101715613f1f57613f1f613e55565b604052919050565b5f6001600160401b03821115613f3f57613f3f613e55565b50601f01601f191660200190565b5f8060408385031215613f5e575f80fd5b8235613f6981613e41565b915060208301356001600160401b03811115613f83575f80fd5b8301601f81018513613f93575f80fd5b8035613fa6613fa182613f27565b613ef7565b818152866020838501011115613fba575f80fd5b816020840160208301375f602083830101528093505050509250929050565b5f81518084528060208401602086015e5f602082860101526020601f19601f83011685010191505092915050565b602081525f610da06020830184613fd9565b6001600160c01b0381168114613927575f80fd5b5f6020828403121561403d575f80fd5b8135610da081614019565b8060020b8114613927575f80fd5b8035613d9781614048565b5f8060408385031215614072575f80fd5b823561407d81614019565b9150602083013561408d81614048565b809150509250929050565b5f602082840312156140a8575f80fd5b5035919050565b5f602082840312156140bf575f80fd5b8135610da081614048565b5f8083601f8401126140da575f80fd5b5081356001600160401b038111156140f0575f80fd5b60208301915083602060a083028501011115613d31575f80fd5b5f805f805f805f805f805f60c08c8e031215614124575f80fd5b6001600160401b03808d351115614139575f80fd5b6141468e8e358f01613cf1565b909c509a5060208d013581101561415b575f80fd5b61416b8e60208f01358f01613cf1565b909a50985060408d0135811015614180575f80fd5b6141908e60408f01358f01613cf1565b909850965060608d01358110156141a5575f80fd5b6141b58e60608f01358f01613d38565b909650945060808d01358110156141ca575f80fd5b506141db8d60808e01358e016140ca565b90935091506141ec60a08d01613d8c565b90509295989b509295989b9093969950565b602080825282518282018190525f9190848201906040850190845b8181101561423557835183529284019291840191600101614219565b50909695505050505050565b5f805f805f805f6080888a031215614257575f80fd5b87356001600160401b038082111561426d575f80fd5b6142798b838c01613cf1565b909950975060208a0135915080821115614291575f80fd5b61429d8b838c01613cf1565b909750955060408a01359150808211156142b5575f80fd5b50613e1d8a828b016140ca565b5f805f604084860312156142d4575f80fd5b83356001600160401b038111156142e9575f80fd5b6142f586828701613cf1565b909450925050602084013561430981613d78565b809150509250925092565b634e487b7160e01b5f52603260045260245ffd5b634e487b7160e01b5f52602160045260245ffd5b5f8235609e19833603018112614350575f80fd5b9190910192915050565b5f808335601e1984360301811261436f575f80fd5b83016020810192503590506001600160401b0381111561438d575f80fd5b803603821315613d31575f80fd5b81835281816020850137505f828201602090810191909152601f909101601f19169091010190565b5f81356143cf81614019565b6001600160c01b038116845250602082013560208401526040820135604084015260608201356060840152614407608083018361435a565b60a0608086015261441c60a08601828461439b565b95945050505050565b602081525f610da060208301846143c3565b5f6007821061445457634e487b7160e01b5f52602160045260245ffd5b50815260200190565b5f815180845260208085019450602084015f5b8381101561449157614483878351614437565b965090820190600101614470565b509495945050505050565b5f8282518085526020808601955060208260051b840101602086015f5b848110156144e757601f198684030189526144d5838351613fd9565b988401989250908301906001016144b9565b5090979650505050505050565b8183525f60208085019450825f5b8581101561449157813561451581613e41565b6001600160a01b031687529582019590820190600101614502565b6001600160a01b0386168152608060208201525f614551608083018761445d565b8281036040840152614563818761449c565b905082810360608401526136938185876144f4565b6001600160a01b0383168152604060208201525f6136176040830184613fd9565b5f82601f8301126145a8575f80fd5b81516145b6613fa182613f27565b8181528460208386010111156145ca575f80fd5b8160208501602083015e5f918101602001919091529392505050565b5f602082840312156145f6575f80fd5b81516001600160401b0381111561460b575f80fd5b61361784828501614599565b5f6001600160401b0382111561462f5761462f613e55565b5060051b60200190565b60078110613927575f80fd5b5f82601f830112614654575f80fd5b81516020614664613fa183614617565b82815260059290921b84018101918181019086841115614682575f80fd5b8286015b848110156146bf5780516001600160401b038111156146a3575f80fd5b6146b18986838b0101614599565b845250918301918301614686565b509695505050505050565b5f82601f8301126146d9575f80fd5b815160206146e9613fa183614617565b8083825260208201915060208460051b87010193508684111561470a575f80fd5b602086015b848110156146bf57805161472281613e41565b835291830191830161470f565b5f805f8060808587031215614742575f80fd5b845161474d81613e41565b809450506020808601516001600160401b038082111561476b575f80fd5b818801915088601f83011261477e575f80fd5b815161478c613fa182614617565b81815260059190911b8301840190848101908b8311156147aa575f80fd5b938501935b828510156147d15784516147c281614639565b825293850193908501906147af565b60408b015190985094505050808311156147e9575f80fd5b6147f589848a01614645565b9450606088015192508083111561480a575f80fd5b5050614818878288016146ca565b91505092959194509250565b62ffffff81168114613927575f80fd5b5f60c08284031215614844575f80fd5b60405160c081018181106001600160401b038211171561486657614866613e55565b8060405250809150825161487981613e41565b8152602083015161488981613d78565b6020820152604083015161489c81613e41565b604082015260608301516148af81614824565b606082015260808301516148c281613e41565b608082015260a08301516148d581614824565b60a0919091015292915050565b5f602082840312156148f2575f80fd5b81516001600160401b0380821115614908575f80fd5b9083019060e0828603121561491b575f80fd5b614923613e69565b61492d8684614834565b815260c083015182811115614940575f80fd5b61494c87828601614599565b60208301525095945050505050565b8051613d9781614019565b8051613d9781614048565b5f60208284031215614981575f80fd5b81516001600160401b0380821115614997575f80fd5b90830190608082860312156149aa575f80fd5b6149b2613e91565b82516149bd81614019565b815260208301516149cd81614048565b6020820152604083810151908201526060830151828111156149ed575f80fd5b6149f987828601614599565b60608301525095945050505050565b634e487b7160e01b5f52601160045260245ffd5b5f60018201614a2d57614a2d614a08565b5060010190565b5f60208284031215614a44575f80fd5b81516001600160401b0380821115614a5a575f80fd5b9083019060e08286031215614a6d575f80fd5b614a75613eb3565b614a7e8361495b565b8152614a8c6020840161495b565b602082015260408301516040820152614aa760608401614966565b60608201526080830151608082015260a083015182811115614ac7575f80fd5b614ad387828601614599565b60a08301525060c083015182811115614aea575f80fd5b614af687828601614599565b60c08301525095945050505050565b5f60a08284031215614b15575f80fd5b60405160a081016001600160401b038282108183111715614b3857614b38613e55565b8160405282935084519150614b4c82614019565b8183526020850151602084015260408501516040840152606085015160608401526080850151915080821115614b80575f80fd5b50614b8d85828601614599565b6080830152505092915050565b5f60208284031215614baa575f80fd5b81516001600160401b03811115614bbf575f80fd5b61361784828501614b05565b5f60208284031215614bdb575f80fd5b81516001600160401b0380821115614bf1575f80fd5b9083019060408286031215614c04575f80fd5b614c0c613e69565b82518152602083015182811115614940575f80fd5b5f60208284031215614c31575f80fd5b8151610da081613e41565b5f60208284031215614c4c575f80fd5b81516001600160401b0380821115614c62575f80fd5b9083019060608286031215614c75575f80fd5b614c7d613ed5565b8251815260208301516020820152604083015182811115614c9c575f80fd5b614ca887828601614599565b60408301525095945050505050565b5f60208284031215614cc7575f80fd5b8151610da081614048565b5f60c08284031215614ce2575f80fd5b610da08383614834565b5f60208284031215614cfc575f80fd5b8151610da081613d78565b8082028115828204841417610b9757610b97614a08565b6001600160a01b0388168152608060208083018290529082018790525f90889060a08401835b8a811015614d70578335614d5781614639565b614d618382614437565b94840194925050600101614d44565b5084810360408601528781528181019250600588901b81018201895f5b8a811015614dc757838303601f19018652614da8828d61435a565b614db385828461439b565b978701979450505090840190600101614d8d565b50508581036060870152614ddc81888a6144f4565b9d9c50505050505050505050505050565b5f6020808385031215614dfe575f80fd5b82516001600160401b03811115614e13575f80fd5b8301601f81018513614e23575f80fd5b8051614e31613fa182614617565b81815260059190911b82018301908381019087831115614e4f575f80fd5b928401925b828410156136e957835182529284019290840190614e54565b5f8235607e19833603018112614350575f80fd5b602081525f8235614e9181614019565b6001600160c01b0381166020840152506020830135614eaf81614048565b8060020b60408401525060408301356060830152614ed0606084018461435a565b60808085015261441c60a08501828461439b565b5f8235603e19833603018112614350575f80fd5b60208152813560208201525f614f11602084018461435a565b60408085015261441c60608501828461439b565b5f8235605e19833603018112614350575f80fd5b6020815281356020820152602082013560408201525f614f5c604084018461435a565b60608085015261441c60808501828461439b565b5f823560de19833603018112614350575f80fd5b8035613d9781614824565b8035613d9781613e41565b602081525f8235614faa81613e41565b6001600160a01b03808216602085015260208501359150614fca82613d78565b6001600160401b038216604085015260408501359150614fe982613e41565b16606083810191909152830135614fff81614824565b62ffffff811660808401525061501760808401614f8f565b6001600160a01b03811660a08401525061503360a08401614f84565b62ffffff811660c08401525061504c60c084018461435a565b60e08085015261441c6101008501828461439b565b5f6001600160a01b038087168352602060806020850152615085608085018861445d565b8481036040860152615097818861449c565b8581036060870152865180825260208089019350909101905f5b818110156150cf5783518616835292840192918401916001016150b1565b50909a9950505050505050505050565b5f606082840312156150ef575f80fd5b6150f7613ed5565b825161510281613e41565b8152602083015161511281613d78565b6020820152604083015161512581613d78565b60408201529392505050565b5f7f8000000000000000000000000000000000000000000000000000000000000000820361516157615161614a08565b505f0390565b80820180821115610b9757610b97614a08565b81810381811115610b9757610b97614a08565b602081525f823561519d81614019565b6001600160c01b03811660208401525060208301356151bb81614019565b6001600160c01b038116604084015250604083013560608301526151e160608401614056565b6151f0608084018260020b9052565b50608083013560a083015261520860a084018461435a565b60e060c085015261521e6101008501828461439b565b91505061522e60c085018561435a565b848303601f190160e0860152613c3083828461439b565b5f60808284031215615255575f80fd5b61525d613e91565b905081358152602082013560ff81168114615276575f80fd5b80602083015250604082013560408201526060820135606082015292915050565b5f60c082840312156152a7575f80fd5b6152af613ed5565b82356152ba81613e41565b8152602083810135908201526151258460408501615245565b61533581846001600160a01b038082511683526001600160401b036020830151166020840152806040830151166040840152606082015162ffffff80821660608601528260808501511660808601528060a08501511660a08601525050505050565b60e060c08201525f61361760e0830184613fd9565b634e487b7160e01b5f52601260045260245ffd5b5f8261537857634e487b7160e01b5f52601260045260245ffd5b500490565b5f6101406153e48386516001600160a01b038082511683526001600160401b036020830151166020840152806040830151166040840152606082015162ffffff80821660608601528260808501511660808601528060a08501511660a08601525050505050565b602085015160020b60c08401526001600160401b0360408601511660e08401526001600160a01b036060860151166101008401528061012084015261441c81840185613fd9565b5f806040838503121561543c575f80fd5b505080516020909101519092909150565b5f6020828403121561545d575f80fd5b81518015158114610da0575f80fd5b5f6101206154d38386516001600160a01b038082511683526001600160401b036020830151166020840152806040830151166040840152606082015162ffffff80821660608601528260808501511660808601528060a08501511660a08601525050505050565b602085015160020b60c08401526001600160401b0360408601511660e08401528061010084015261441c81840185613fd9565b828152604060208201525f6136176040830184613fd9565b5f6020828403121561552e575f80fd5b5051919050565b825181526001600160401b036020840151166020820152606060408201525f6136176060830184613fd9565b5f8160020b627fffff19810361557957615579614a08565b5f0392915050565b5f60808284031215615591575f80fd5b610da08383615245565b5f82518060208501845e5f92019182525091905056fea2646970667358221220979996cb302fe7da0d4b9a62b6ccb7c4ea65447a0cbfd53be2cb7f001b2b8bf664736f6c63430008190033",
  "devdoc": {
    "errors": {
      "AddressEmptyCode(address)": [
        {
          "details": "There's no code at `target` (it is not a contract)."
        }
      ],
      "FailedCall()": [
        {
          "details": "A call to an address target failed. The target may have reverted."
        }
      ],
      "InsufficientBalance(uint256,uint256)": [
        {
          "details": "The ETH balance of the account is not enough to perform the operation."
        }
      ],
      "ReentrancyGuardReentrantCall()": [
        {
          "details": "Unauthorized reentrant call."
        }
      ],
      "SafeCastOverflowedUintDowncast(uint8,uint256)": [
        {
          "details": "Value doesn't fit in an uint of `bits` size."
        }
      ],
      "SafeERC20FailedOperation(address)": [
        {
          "details": "An operation with an ERC-20 token failed."
        }
      ]
    },
    "kind": "dev",
    "methods": {
      "cancel((uint256,uint256,bytes)[],address[],(uint256,(uint256,uint8,bytes32,bytes32))[],uint64)": {
        "details": "IMPORTANT: The caller must provide `tokensToSettle` to receive appropriate tokens after execution.",
        "params": {
          "deadline": "The deadline for the actions",
          "orderParamsList": "The list of actions to cancel",
          "permitParamsList": "The parameters of the permits",
          "tokensToSettle": "The tokens to settle"
        }
      },
      "claim((uint256,bytes)[],address[],(uint256,(uint256,uint8,bytes32,bytes32))[],uint64)": {
        "details": "IMPORTANT: The caller must provide `tokensToSettle` to receive appropriate tokens after execution.",
        "params": {
          "deadline": "The deadline for the actions",
          "orderParamsList": "The list of actions to claim",
          "permitParamsList": "The parameters of the permits",
          "tokensToSettle": "The tokens to settle"
        }
      },
      "execute(uint8[],bytes[],address[],(address,uint256,(uint256,uint8,bytes32,bytes32))[],(uint256,(uint256,uint8,bytes32,bytes32))[],uint64)": {
        "details": "IMPORTANT: The caller must provide `tokensToSettle` to receive appropriate tokens after execution.",
        "params": {
          "actionList": "The list of actions to execute",
          "deadline": "The deadline for the actions",
          "erc20PermitParamsList": "The parameters of the ERC20 permits",
          "erc721PermitParamsList": "The parameters of the ERC721 permits",
          "paramsDataList": "The parameters of the actions",
          "tokensToSettle": "The tokens to settle"
        },
        "returns": {
          "ids": "The ids of the orders"
        }
      },
      "fromPrice(uint256)": {
        "params": {
          "price": "The price to convert"
        },
        "returns": {
          "_0": "The tick"
        }
      },
      "getDepth(uint192,int24)": {
        "params": {
          "id": "The id of the book",
          "tick": "The tick of the book"
        },
        "returns": {
          "_0": "The depth of the book in quote amount"
        }
      },
      "getHighestPrice(uint192)": {
        "params": {
          "id": "The id of the book"
        },
        "returns": {
          "_0": "The highest price of the book with 2**96 precision"
        }
      },
      "getOrder(uint256)": {
        "params": {
          "orderId": "The id of the order"
        },
        "returns": {
          "claimableAmount": "The claimable base amount of the order",
          "openAmount": "The open quote amount of the order",
          "price": "The price of the order with 2**96 precision",
          "provider": "The provider of the order"
        }
      },
      "make((uint192,int24,uint256,bytes)[],address[],(address,uint256,(uint256,uint8,bytes32,bytes32))[],uint64)": {
        "details": "IMPORTANT: The caller must provide `tokensToSettle` to receive appropriate tokens after execution.",
        "params": {
          "deadline": "The deadline for the actions",
          "orderParamsList": "The list of actions to make",
          "permitParamsList": "The parameters of the permits",
          "tokensToSettle": "The tokens to settle"
        },
        "returns": {
          "ids": "The ids of the orders"
        }
      },
      "open(((address,uint64,address,uint24,address,uint24),bytes)[],uint64)": {
        "params": {
          "deadline": "The deadline for the action",
          "openBookParamsList": "The parameters of the open book action"
        }
      },
      "spend((uint192,uint256,uint256,uint256,bytes)[],address[],(address,uint256,(uint256,uint8,bytes32,bytes32))[],uint64)": {
        "details": "IMPORTANT: The caller must provide `tokensToSettle` to receive appropriate tokens after execution.",
        "params": {
          "deadline": "The deadline for the actions",
          "orderParamsList": "The list of actions to spend",
          "permitParamsList": "The parameters of the permits",
          "tokensToSettle": "The tokens to settle"
        }
      },
      "take((uint192,uint256,uint256,uint256,bytes)[],address[],(address,uint256,(uint256,uint8,bytes32,bytes32))[],uint64)": {
        "details": "IMPORTANT: The caller must provide `tokensToSettle` to receive appropriate tokens after execution.",
        "params": {
          "deadline": "The deadline for the actions",
          "orderParamsList": "The list of actions to take",
          "permitParamsList": "The parameters of the permits",
          "tokensToSettle": "The tokens to settle"
        }
      },
      "toPrice(int24)": {
        "params": {
          "tick": "The tick to convert"
        },
        "returns": {
          "_0": "The price with 2**96 precision"
        }
      }
    },
    "version": 1
  },
  "userdoc": {
    "errors": {
      "ERC20TransferFailed()": [
        {
          "notice": "Thrown when an ERC20 transfer fails"
        }
      ],
      "NativeTransferFailed()": [
        {
          "notice": "Thrown when a native transfer fails"
        }
      ]
    },
    "kind": "user",
    "methods": {
      "cancel((uint256,uint256,bytes)[],address[],(uint256,(uint256,uint8,bytes32,bytes32))[],uint64)": {
        "notice": "Cancels a list of orders"
      },
      "claim((uint256,bytes)[],address[],(uint256,(uint256,uint8,bytes32,bytes32))[],uint64)": {
        "notice": "Claims a list of orders"
      },
      "execute(uint8[],bytes[],address[],(address,uint256,(uint256,uint8,bytes32,bytes32))[],(uint256,(uint256,uint8,bytes32,bytes32))[],uint64)": {
        "notice": "Executes a list of actions"
      },
      "fromPrice(uint256)": {
        "notice": "Converts a price to a tick"
      },
      "getDepth(uint192,int24)": {
        "notice": "Returns the depth of a book"
      },
      "getHighestPrice(uint192)": {
        "notice": "Returns the highest price of a book"
      },
      "getOrder(uint256)": {
        "notice": "Returns the details of an order"
      },
      "make((uint192,int24,uint256,bytes)[],address[],(address,uint256,(uint256,uint8,bytes32,bytes32))[],uint64)": {
        "notice": "Makes a list of orders"
      },
      "open(((address,uint64,address,uint24,address,uint24),bytes)[],uint64)": {
        "notice": "Opens a book"
      },
      "spend((uint192,uint256,uint256,uint256,bytes)[],address[],(address,uint256,(uint256,uint8,bytes32,bytes32))[],uint64)": {
        "notice": "Spends to take a list of orders"
      },
      "take((uint192,uint256,uint256,uint256,bytes)[],address[],(address,uint256,(uint256,uint8,bytes32,bytes32))[],uint64)": {
        "notice": "Takes a list of orders"
      },
      "toPrice(int24)": {
        "notice": "Converts a tick to a price"
      }
    },
    "version": 1
  },
  "storageLayout": {
    "storage": [
      {
        "astId": 1322,
        "contract": "src/Controller.sol:Controller",
        "label": "_status",
        "offset": 0,
        "slot": "0",
        "type": "t_uint256"
      }
    ],
    "types": {
      "t_uint256": {
        "encoding": "inplace",
        "label": "uint256",
        "numberOfBytes": "32"
      }
    }
  }
}