{
  "address": "0x5489922f8312c812fBB7184EbF70b9dbFAeed9D4",
  "abi": [
    {
      "inputs": [
        {
          "internalType": "address",
          "name": "bookManager_",
          "type": "address"
        },
        {
          "internalType": "address",
          "name": "initialOwner_",
          "type": "address"
        }
      ],
      "stateMutability": "nonpayable",
      "type": "constructor"
    },
    {
      "inputs": [],
      "name": "ERC20TransferFailed",
      "type": "error"
    },
    {
      "inputs": [],
      "name": "InvalidAccess",
      "type": "error"
    },
    {
      "inputs": [],
      "name": "InvalidTick",
      "type": "error"
    },
    {
      "inputs": [],
      "name": "NativeTransferFailed",
      "type": "error"
    },
    {
      "inputs": [],
      "name": "NotOperator",
      "type": "error"
    },
    {
      "inputs": [
        {
          "internalType": "address",
          "name": "owner",
          "type": "address"
        }
      ],
      "name": "OwnableInvalidOwner",
      "type": "error"
    },
    {
      "inputs": [
        {
          "internalType": "address",
          "name": "account",
          "type": "address"
        }
      ],
      "name": "OwnableUnauthorizedAccount",
      "type": "error"
    },
    {
      "inputs": [],
      "name": "ReentrancyGuardReentrantCall",
      "type": "error"
    },
    {
      "inputs": [
        {
          "internalType": "uint8",
          "name": "bits",
          "type": "uint8"
        },
        {
          "internalType": "uint256",
          "name": "value",
          "type": "uint256"
        }
      ],
      "name": "SafeCastOverflowedUintDowncast",
      "type": "error"
    },
    {
      "inputs": [
        {
          "internalType": "uint256",
          "name": "value",
          "type": "uint256"
        }
      ],
      "name": "SafeCastOverflowedUintToInt",
      "type": "error"
    },
    {
      "anonymous": false,
      "inputs": [
        {
          "indexed": true,
          "internalType": "address",
          "name": "previousOwner",
          "type": "address"
        },
        {
          "indexed": true,
          "internalType": "address",
          "name": "newOwner",
          "type": "address"
        }
      ],
      "name": "OwnershipTransferStarted",
      "type": "event"
    },
    {
      "anonymous": false,
      "inputs": [
        {
          "indexed": true,
          "internalType": "address",
          "name": "previousOwner",
          "type": "address"
        },
        {
          "indexed": true,
          "internalType": "address",
          "name": "newOwner",
          "type": "address"
        }
      ],
      "name": "OwnershipTransferred",
      "type": "event"
    },
    {
      "anonymous": false,
      "inputs": [
        {
          "indexed": true,
          "internalType": "address",
          "name": "operator",
          "type": "address"
        },
        {
          "indexed": false,
          "internalType": "bool",
          "name": "status",
          "type": "bool"
        }
      ],
      "name": "SetOperator",
      "type": "event"
    },
    {
      "inputs": [],
      "name": "acceptOwnership",
      "outputs": [],
      "stateMutability": "nonpayable",
      "type": "function"
    },
    {
      "inputs": [
        {
          "internalType": "BookId",
          "name": "id",
          "type": "uint192"
        },
        {
          "internalType": "address",
          "name": "router",
          "type": "address"
        },
        {
          "internalType": "bytes",
          "name": "data",
          "type": "bytes"
        }
      ],
      "name": "arbitrage",
      "outputs": [],
      "stateMutability": "nonpayable",
      "type": "function"
    },
    {
      "inputs": [],
      "name": "bookManager",
      "outputs": [
        {
          "internalType": "contract IBookManager",
          "name": "",
          "type": "address"
        }
      ],
      "stateMutability": "view",
      "type": "function"
    },
    {
      "inputs": [
        {
          "internalType": "address",
          "name": "",
          "type": "address"
        }
      ],
      "name": "isOperator",
      "outputs": [
        {
          "internalType": "bool",
          "name": "",
          "type": "bool"
        }
      ],
      "stateMutability": "view",
      "type": "function"
    },
    {
      "inputs": [
        {
          "internalType": "address",
          "name": "sender",
          "type": "address"
        },
        {
          "internalType": "bytes",
          "name": "data",
          "type": "bytes"
        }
      ],
      "name": "lockAcquired",
      "outputs": [
        {
          "internalType": "bytes",
          "name": "",
          "type": "bytes"
        }
      ],
      "stateMutability": "nonpayable",
      "type": "function"
    },
    {
      "inputs": [],
      "name": "owner",
      "outputs": [
        {
          "internalType": "address",
          "name": "",
          "type": "address"
        }
      ],
      "stateMutability": "view",
      "type": "function"
    },
    {
      "inputs": [],
      "name": "pendingOwner",
      "outputs": [
        {
          "internalType": "address",
          "name": "",
          "type": "address"
        }
      ],
      "stateMutability": "view",
      "type": "function"
    },
    {
      "inputs": [],
      "name": "renounceOwnership",
      "outputs": [],
      "stateMutability": "nonpayable",
      "type": "function"
    },
    {
      "inputs": [
        {
          "internalType": "address",
          "name": "operator",
          "type": "address"
        },
        {
          "internalType": "bool",
          "name": "status",
          "type": "bool"
        }
      ],
      "name": "setOperator",
      "outputs": [],
      "stateMutability": "nonpayable",
      "type": "function"
    },
    {
      "inputs": [
        {
          "internalType": "address",
          "name": "newOwner",
          "type": "address"
        }
      ],
      "name": "transferOwnership",
      "outputs": [],
      "stateMutability": "nonpayable",
      "type": "function"
    },
    {
      "inputs": [
        {
          "internalType": "Currency",
          "name": "currency",
          "type": "address"
        },
        {
          "internalType": "uint256",
          "name": "amount",
          "type": "uint256"
        },
        {
          "internalType": "address",
          "name": "recipient",
          "type": "address"
        }
      ],
      "name": "withdrawToken",
      "outputs": [],
      "stateMutability": "nonpayable",
      "type": "function"
    },
    {
      "stateMutability": "payable",
      "type": "receive"
    }
  ],
  "transactionHash": "0xde2b6359c2e94fac2c9656de1f1867af1f13da71e726dabde7b265e0ee723465",
  "args": [
    "0x382CCccbD3b142D7DA063bF68cd0c89634767F76",
    "0xfb976Bae0b3Ef71843F1c6c63da7Df2e44B3836d"
  ],
  "numDeployments": 1,
  "solcInputHash": "e634729b678ce078f381c6f26baf2f0d",
  "bytecode": "0x60a060405234801561000f575f80fd5b50604051611f16380380611f1683398101604081905261002e916100fe565b806001600160a01b03811661005c57604051631e4fbdf760e01b81525f600482015260240160405180910390fd5b61006581610078565b50506001600160a01b031660805261012f565b600180546001600160a01b031916905561009181610094565b50565b5f80546001600160a01b038381166001600160a01b0319831681178455604051919092169283917f8be0079c531659141344cd1fd0a4f28419497f9722a3daafe3b4186f6b6457e09190a35050565b80516001600160a01b03811681146100f9575f80fd5b919050565b5f806040838503121561010f575f80fd5b610118836100e3565b9150610126602084016100e3565b90509250929050565b608051611d826101945f395f818161014c015281816102ad0152818161037e015281816104460152818161052301528181610606015281816108c00152818161097101528181610a73015281816112ce0152818161135b01526113b80152611d825ff3fe6080604052600436106100bb575f3560e01c80636d70f7ae116100715780638da5cb5b1161004c5780638da5cb5b1461020b578063e30c397814610227578063f2fde38b14610244575f80fd5b80636d70f7ae146101a5578063715018a6146101e357806379ba5097146101f7575f80fd5b80633ccdbb28116100a15780633ccdbb281461011c5780633f322bc91461013b578063558a729714610186575f80fd5b806313ac61a4146100c657806315c7afb4146100e7575f80fd5b366100c257005b5f80fd5b3480156100d1575f80fd5b506100e56100e0366004611689565b610263565b005b3480156100f2575f80fd5b50610106610101366004611780565b610369565b604051610113919061183b565b60405180910390f35b348015610127575f80fd5b506100e5610136366004611854565b610b96565b348015610146575f80fd5b5061016e7f000000000000000000000000000000000000000000000000000000000000000081565b6040516001600160a01b039091168152602001610113565b348015610191575f80fd5b506100e56101a03660046118a0565b610bb7565b3480156101b0575f80fd5b506101d36101bf3660046118d7565b60026020525f908152604090205460ff1681565b6040519015158152602001610113565b3480156101ee575f80fd5b506100e5610c1d565b348015610202575f80fd5b506100e5610c30565b348015610216575f80fd5b505f546001600160a01b031661016e565b348015610232575f80fd5b506001546001600160a01b031661016e565b34801561024f575f80fd5b506100e561025e3660046118d7565b610c79565b335f9081526002602052604090205460ff166102ab576040517f7c214f0400000000000000000000000000000000000000000000000000000000815260040160405180910390fd5b7f00000000000000000000000000000000000000000000000000000000000000006001600160a01b0316639ca179983033878787876040516020016102f49594939291906118f2565b6040516020818303038152906040526040518363ffffffff1660e01b815260040161032092919061194d565b5f604051808303815f875af115801561033b573d5f803e3d5ffd5b505050506040513d5f823e601f3d908101601f1916820160405261036291908101906119bb565b5050505050565b6060610373610cf6565b336001600160a01b037f0000000000000000000000000000000000000000000000000000000000000000161415806103b457506001600160a01b0383163014155b156103eb576040517fc0185c6400000000000000000000000000000000000000000000000000000000815260040160405180910390fd5b5f805f8480602001905181019061040291906119ed565b6040517f9b22917d0000000000000000000000000000000000000000000000000000000081526001600160c01b038416600482015290985092955090935091505f907f00000000000000000000000000000000000000000000000000000000000000006001600160a01b031690639b22917d9060240160c060405180830381865afa158015610493573d5f803e3d5ffd5b505050506040513d601f19601f820116820180604052508101906104b79190611a7e565b90505f8060606104db84604001516001600160a01b03166001600160a01b03161590565b156105ea5760408481015190517fd9caed120000000000000000000000000000000000000000000000000000000081526001600160a01b0391821660048201523060248201527f000000000000000000000000000000000000000000000000000000000000000090911680316044830181905294509063d9caed12906064015f604051808303815f87803b158015610571575f80fd5b505af1158015610583573d5f803e3d5ffd5b50505050846001600160a01b0316838a6040516105a09190611b2c565b5f6040518083038185875af1925050503d805f81146105da576040519150601f19603f3d011682016040523d82523d5f602084013e6105df565b606091505b5090925090506107bc565b60408481015190516370a0823160e01b81526001600160a01b037f0000000000000000000000000000000000000000000000000000000000000000811660048301528216906370a0823190602401602060405180830381865afa158015610653573d5f803e3d5ffd5b505050506040513d601f19601f820116820180604052508101906106779190611b42565b60405163095ea7b360e01b81526001600160a01b038881166004830152602482018390529195509082169063095ea7b3906044016020604051808303815f875af11580156106c7573d5f803e3d5ffd5b505050506040513d601f19601f820116820180604052508101906106eb9190611b59565b50856001600160a01b03168a6040516107049190611b2c565b5f604051808303815f865af19150503d805f811461073d576040519150601f19603f3d011682016040523d82523d5f602084013e610742565b606091505b5060405163095ea7b360e01b81526001600160a01b0389811660048301525f60248301529295509093509082169063095ea7b3906044016020604051808303815f875af1158015610795573d5f803e3d5ffd5b505050506040513d601f19601f820116820180604052508101906107b99190611b59565b50505b816107c5575f80fd5b5f6107dc85604001516001600160a01b0316610d75565b6107e69085611b88565b90505f6107fe865f01516001600160a01b0316610d75565b90505f806108158860a0015162ffffff1660171c90565b156108595760a088015161082f9062ffffff16855f610df6565b61083885610e76565b6108429190611b9b565b935061085283606086901b611bc2565b905061087f565b60a088015161086e9062ffffff16845f610ed8565b61087c90606086901b611bc2565b90505b828210801561093357506040517ffcc8fc9b0000000000000000000000000000000000000000000000000000000081526001600160c01b038b1660048201527f00000000000000000000000000000000000000000000000000000000000000006001600160a01b03169063fcc8fc9b90602401602060405180830381865afa15801561090d573d5f803e3d5ffd5b505050506040513d601f19601f820116820180604052508101906109319190611b59565b155b15610b51576040517fcdc92f2d0000000000000000000000000000000000000000000000000000000081526001600160c01b038b1660048201525f907f00000000000000000000000000000000000000000000000000000000000000006001600160a01b03169063cdc92f2d90602401602060405180830381865afa1580156109be573d5f803e3d5ffd5b505050506040513d601f19601f820116820180604052508101906109e29190611be1565b90506109f08160020b610f2d565b82106109fc5750610b51565b5f610a108a60a0015162ffffff1660171c90565b15610a1e5750828403610a38565b60a08a0151610a359062ffffff168587035f610ed8565b90505b60208a015167ffffffffffffffff16610a56600284900b835f6111f5565b610a609190611bc2565b9050805f03610a70575050610b51565b5f7f00000000000000000000000000000000000000000000000000000000000000006001600160a01b0316633b9500b060405180606001604052808e81526020018660020b8152602001610ac38661123f565b67ffffffffffffffff168152506040518263ffffffff1660e01b8152600401610aec9190611c01565b60408051808303815f875af1158015610b07573d5f803e3d5ffd5b505050506040513d601f19601f82011682018060405250810190610b2b9190611caa565b915050805f03610b3d57505050610b51565b610b478186611ccc565b945050505061087f565b610b5f8b896040015161128e565b610b6c8b895f015161128e565b60405180602001604052805f8152509b505050505050505050505050610b9061144a565b92915050565b610b9e61146f565b610bb26001600160a01b038416828461149b565b505050565b610bbf61146f565b6001600160a01b0382165f81815260026020908152604091829020805460ff191685151590811790915591519182527f1618a22a3b00b9ac70fd5a82f1f5cdd8cb272bd0f1b740ddf7c26ab05881dd5b910160405180910390a25050565b610c2561146f565b610c2e5f611583565b565b60015433906001600160a01b03168114610c6d5760405163118cdaa760e01b81526001600160a01b03821660048201526024015b60405180910390fd5b610c7681611583565b50565b610c8161146f565b600180546001600160a01b03831673ffffffffffffffffffffffffffffffffffffffff199091168117909155610cbe5f546001600160a01b031690565b6001600160a01b03167f38d16b8cac22d99fc7c124b9cd0de2d3fa1faef420bfe791d8c362d765e2270060405160405180910390a350565b7f8e94fed44239eb2314ab7a406345e6c5a8f0ccedf3b600de3d004e672c33abf45c15610d4f576040517f3ee5aeb500000000000000000000000000000000000000000000000000000000815260040160405180910390fd5b60017f8e94fed44239eb2314ab7a406345e6c5a8f0ccedf3b600de3d004e672c33abf45d565b5f6001600160a01b038216610d8b575047919050565b6040516370a0823160e01b81523060048201526001600160a01b038316906370a0823190602401602060405180830381865afa158015610dcd573d5f803e3d5ffd5b505050506040513d601f19601f82011682018060405250810190610b909190611b42565b919050565b5f6207a11f19627fffff851601600281900b82128281610e1857825f03610e1a565b825b62ffffff1690505f610e53610e2f8389611cdf565b620f424088610e45578581830615151691040190565b808206151586151691040190565b905082610e6857610e6381611cf6565b610e6a565b805b98975050505050505050565b5f7f7fffffffffffffffffffffffffffffffffffffffffffffffffffffffffffffff821115610ed4576040517f24775e0600000000000000000000000000000000000000000000000000000000815260048101839052602401610c64565b5090565b5f6207a11f19627fffff851601600281900b8212828415610ef957825f0392505b82620f4240019050610f22620f424087610f139190611cdf565b82810615158416908390040190565b979650505050505050565b5f610f37826115a9565b815f600282900b8113610f4a5781610f53565b610f5382611d2c565b62ffffff8116915060011615610f77576bfff97272373d413259a469909250610f88565b6c0100000000000000000000000092505b6002811615610fa75760606bfff2e50f5f656932ef12357c8402901c92505b6004811615610fc65760606bffe5caca7e10e4e61c3624ea8402901c92505b6008811615610fe55760606bffcb9843d60f6159c9db58838402901c92505b60108116156110045760606bff973b41fa98c081472e68968402901c92505b60208116156110235760606bff2ea16466c96a3843ec78b38402901c92505b60408116156110425760606bfe5dee046a99a2a811c461f18402901c92505b60808116156110615760606bfcbe86c7900a88aedcffc83b8402901c92505b6101008116156110815760606bf987a7253ac413176f2b074c8402901c92505b6102008116156110a15760606bf3392b0822b70005940c7a398402901c92505b6104008116156110c15760606be7159475a2c29b7443b29c7f8402901c92505b6108008116156110e15760606bd097f3bdfd2022b8845ad8f78402901c92505b6110008116156111015760606ba9f746462d870fdf8a65dc1f8402901c92505b6120008116156111215760606b70d869a156d2a1b890bb3df68402901c92505b6140008116156111415760606b31be135f97d08fd9812315058402901c92505b6180008116156111615760606b09aa508b5b7a84e1c677de548402901c92505b620100008116156111815760606a5d6af8dedb81196699c3298402901c92505b620200008116156111a0576060692216e584f5fa1ea926048402901c92505b620400008116156111bd57606067048a170391f7dc428402901c92505b5f8260020b13156111ee576111eb837801000000000000000000000000000000000000000000000000611bc2565b92505b5050919050565b5f6112376112058560020b610f2d565b61120f9085611cdf565b6bffffffffffffffffffffffff8116151584166c010000000000000000000000009091040190565b949350505050565b5f67ffffffffffffffff821115610ed457604080517f6dfcc650000000000000000000000000000000000000000000000000000000008152600481019190915260248101839052604401610c64565b6040517f9611cf6c0000000000000000000000000000000000000000000000000000000081523060048201526001600160a01b0382811660248301525f917f000000000000000000000000000000000000000000000000000000000000000090911690639611cf6c90604401602060405180830381865afa158015611315573d5f803e3d5ffd5b505050506040513d601f19601f820116820180604052508101906113399190611b42565b61134290611cf6565b90505f811315611380576113806001600160a01b0383167f00000000000000000000000000000000000000000000000000000000000000008361149b565b6040517f6a256b290000000000000000000000000000000000000000000000000000000081526001600160a01b0383811660048301527f00000000000000000000000000000000000000000000000000000000000000001690636a256b29906024016020604051808303815f875af11580156113fe573d5f803e3d5ffd5b505050506040513d601f19601f820116820180604052508101906114229190611b42565b50610bb283611439846001600160a01b0316610d75565b6001600160a01b038516919061149b565b5f7f8e94fed44239eb2314ab7a406345e6c5a8f0ccedf3b600de3d004e672c33abf45d565b5f546001600160a01b03163314610c2e5760405163118cdaa760e01b8152336004820152602401610c64565b5f6001600160a01b0384166114f0575f805f8085875af19050806114eb576040517ff4b3b1bc00000000000000000000000000000000000000000000000000000000815260040160405180910390fd5b61157d565b6040517fa9059cbb0000000000000000000000000000000000000000000000000000000081526001600160a01b038416600482015282602482015260205f6044835f895af13d15601f3d1160015f51141617169150508061157d576040517ff27f64e400000000000000000000000000000000000000000000000000000000815260040160405180910390fd5b50505050565b6001805473ffffffffffffffffffffffffffffffffffffffff19169055610c7681611605565b6207ffff600282900b13806115ce57506115c56207ffff611d2c565b60020b8160020b125b15610c76576040517fce8ef7fc00000000000000000000000000000000000000000000000000000000815260040160405180910390fd5b5f80546001600160a01b0383811673ffffffffffffffffffffffffffffffffffffffff19831681178455604051919092169283917f8be0079c531659141344cd1fd0a4f28419497f9722a3daafe3b4186f6b6457e09190a35050565b6001600160c01b0381168114610c76575f80fd5b6001600160a01b0381168114610c76575f80fd5b5f805f806060858703121561169c575f80fd5b84356116a781611661565b935060208501356116b781611675565b9250604085013567ffffffffffffffff808211156116d3575f80fd5b818701915087601f8301126116e6575f80fd5b8135818111156116f4575f80fd5b886020828501011115611705575f80fd5b95989497505060200194505050565b634e487b7160e01b5f52604160045260245ffd5b604051601f8201601f1916810167ffffffffffffffff8111828210171561175157611751611714565b604052919050565b5f67ffffffffffffffff82111561177257611772611714565b50601f01601f191660200190565b5f8060408385031215611791575f80fd5b823561179c81611675565b9150602083013567ffffffffffffffff8111156117b7575f80fd5b8301601f810185136117c7575f80fd5b80356117da6117d582611759565b611728565b8181528660208385010111156117ee575f80fd5b816020840160208301375f602083830101528093505050509250929050565b5f81518084528060208401602086015e5f602082860101526020601f19601f83011685010191505092915050565b602081525f61184d602083018461180d565b9392505050565b5f805f60608486031215611866575f80fd5b833561187181611675565b925060208401359150604084013561188881611675565b809150509250925092565b8015158114610c76575f80fd5b5f80604083850312156118b1575f80fd5b82356118bc81611675565b915060208301356118cc81611893565b809150509250929050565b5f602082840312156118e7575f80fd5b813561184d81611675565b5f6001600160a01b0380881683526001600160c01b038716602084015280861660408401525060806060830152826080830152828460a08401375f60a0848401015260a0601f19601f85011683010190509695505050505050565b6001600160a01b0383168152604060208201525f611237604083018461180d565b5f82601f83011261197d575f80fd5b815161198b6117d582611759565b81815284602083860101111561199f575f80fd5b8160208501602083015e5f918101602001919091529392505050565b5f602082840312156119cb575f80fd5b815167ffffffffffffffff8111156119e1575f80fd5b6112378482850161196e565b5f805f8060808587031215611a00575f80fd5b8451611a0b81611675565b6020860151909450611a1c81611661565b6040860151909350611a2d81611675565b606086015190925067ffffffffffffffff811115611a49575f80fd5b611a558782880161196e565b91505092959194509250565b805162ffffff81168114610df1575f80fd5b8051610df181611675565b5f60c08284031215611a8e575f80fd5b60405160c0810167ffffffffffffffff8282108183111715611ab257611ab2611714565b8160405284519150611ac382611675565b9082526020840151908082168214611ad9575f80fd5b5060208201526040830151611aed81611675565b6040820152611afe60608401611a61565b6060820152611b0f60808401611a73565b6080820152611b2060a08401611a61565b60a08201529392505050565b5f82518060208501845e5f920191825250919050565b5f60208284031215611b52575f80fd5b5051919050565b5f60208284031215611b69575f80fd5b815161184d81611893565b634e487b7160e01b5f52601160045260245ffd5b81810381811115610b9057610b90611b74565b8082018281125f831280158216821582161715611bba57611bba611b74565b505092915050565b5f82611bdc57634e487b7160e01b5f52601260045260245ffd5b500490565b5f60208284031215611bf1575f80fd5b81518060020b811461184d575f80fd5b5f61012083516001600160a01b0380825116855267ffffffffffffffff602083015116602086015280604083015116604086015262ffffff60608301511660608601528060808301511660808601525060a08101519050611c6960a085018262ffffff169052565b506020840151611c7e60c085018260020b9052565b50604084015167ffffffffffffffff1660e084015261010083018190525f818401908152602001611237565b5f8060408385031215611cbb575f80fd5b505080516020909101519092909150565b80820180821115610b9057610b90611b74565b8082028115828204841417610b9057610b90611b74565b5f7f80000000000000000000000000000000000000000000000000000000000000008203611d2657611d26611b74565b505f0390565b5f8160020b627fffff198103611d4457611d44611b74565b5f039291505056fea26469706673582212203d102bafa2cceb63221cf5fed2d181aa828f35df49d2c386bc2aab4b700b2a3064736f6c63430008190033",
  "devdoc": {
    "errors": {
      "OwnableInvalidOwner(address)": [
        {
          "details": "The owner is not a valid owner account. (eg. `address(0)`)"
        }
      ],
      "OwnableUnauthorizedAccount(address)": [
        {
          "details": "The caller account is not authorized to perform an operation."
        }
      ],
      "SafeCastOverflowedUintDowncast(uint8,uint256)": [
        {
          "details": "Value doesn't fit in an uint of `bits` size."
        }
      ],
      "SafeCastOverflowedUintToInt(uint256)": [
        {
          "details": "An uint value doesn't fit in an int of `bits` size."
        }
      ]
    },
    "kind": "dev",
    "methods": {
      "acceptOwnership()": {
        "details": "The new owner accepts the ownership transfer."
      },
      "owner()": {
        "details": "Returns the address of the current owner."
      },
      "pendingOwner()": {
        "details": "Returns the address of the pending owner."
      },
      "renounceOwnership()": {
        "details": "Leaves the contract without owner. It will not be possible to call `onlyOwner` functions. Can only be called by the current owner. NOTE: Renouncing ownership will leave the contract without an owner, thereby disabling any functionality that is only available to the owner."
      },
      "transferOwnership(address)": {
        "details": "Starts the ownership transfer of the contract to a new account. Replaces the pending transfer if there is one. Can only be called by the current owner."
      }
    },
    "version": 1
  },
  "userdoc": {
    "errors": {
      "ERC20TransferFailed()": [
        {
          "notice": "Thrown when an ERC20 transfer fails"
        }
      ],
      "NativeTransferFailed()": [
        {
          "notice": "Thrown when a native transfer fails"
        }
      ]
    },
    "kind": "user",
    "methods": {},
    "version": 1
  },
  "storageLayout": {
    "storage": [
      {
        "astId": 8,
        "contract": "src/Arbitrage.sol:Arbitrage",
        "label": "_owner",
        "offset": 0,
        "slot": "0",
        "type": "t_address"
      },
      {
        "astId": 156,
        "contract": "src/Arbitrage.sol:Arbitrage",
        "label": "_pendingOwner",
        "offset": 0,
        "slot": "1",
        "type": "t_address"
      },
      {
        "astId": 4290,
        "contract": "src/Arbitrage.sol:Arbitrage",
        "label": "isOperator",
        "offset": 0,
        "slot": "2",
        "type": "t_mapping(t_address,t_bool)"
      }
    ],
    "types": {
      "t_address": {
        "encoding": "inplace",
        "label": "address",
        "numberOfBytes": "20"
      },
      "t_bool": {
        "encoding": "inplace",
        "label": "bool",
        "numberOfBytes": "1"
      },
      "t_mapping(t_address,t_bool)": {
        "encoding": "mapping",
        "key": "t_address",
        "label": "mapping(address => bool)",
        "numberOfBytes": "32",
        "value": "t_bool"
      }
    }
  }
}