{
  "address": "0x4Dfa49B9A519C626E265FDc181D6D4D4FD6fE645",
  "abi": [
    {
      "inputs": [
        {
          "internalType": "contract IBookManager",
          "name": "bookManager_",
          "type": "address"
        }
      ],
      "stateMutability": "nonpayable",
      "type": "constructor"
    },
    {
      "inputs": [
        {
          "internalType": "address",
          "name": "target",
          "type": "address"
        }
      ],
      "name": "AddressEmptyCode",
      "type": "error"
    },
    {
      "inputs": [
        {
          "internalType": "address",
          "name": "implementation",
          "type": "address"
        }
      ],
      "name": "ERC1967InvalidImplementation",
      "type": "error"
    },
    {
      "inputs": [],
      "name": "ERC1967NonPayable",
      "type": "error"
    },
    {
      "inputs": [],
      "name": "FailedCall",
      "type": "error"
    },
    {
      "inputs": [],
      "name": "InvalidInitialization",
      "type": "error"
    },
    {
      "inputs": [],
      "name": "InvalidTick",
      "type": "error"
    },
    {
      "inputs": [],
      "name": "NotInitializing",
      "type": "error"
    },
    {
      "inputs": [
        {
          "internalType": "address",
          "name": "owner",
          "type": "address"
        }
      ],
      "name": "OwnableInvalidOwner",
      "type": "error"
    },
    {
      "inputs": [
        {
          "internalType": "address",
          "name": "account",
          "type": "address"
        }
      ],
      "name": "OwnableUnauthorizedAccount",
      "type": "error"
    },
    {
      "inputs": [
        {
          "internalType": "uint256",
          "name": "value",
          "type": "uint256"
        }
      ],
      "name": "SafeCastOverflowedUintToInt",
      "type": "error"
    },
    {
      "inputs": [],
      "name": "UUPSUnauthorizedCallContext",
      "type": "error"
    },
    {
      "inputs": [
        {
          "internalType": "bytes32",
          "name": "slot",
          "type": "bytes32"
        }
      ],
      "name": "UUPSUnsupportedProxiableUUID",
      "type": "error"
    },
    {
      "anonymous": false,
      "inputs": [
        {
          "indexed": false,
          "internalType": "uint64",
          "name": "version",
          "type": "uint64"
        }
      ],
      "name": "Initialized",
      "type": "event"
    },
    {
      "anonymous": false,
      "inputs": [
        {
          "indexed": true,
          "internalType": "address",
          "name": "previousOwner",
          "type": "address"
        },
        {
          "indexed": true,
          "internalType": "address",
          "name": "newOwner",
          "type": "address"
        }
      ],
      "name": "OwnershipTransferStarted",
      "type": "event"
    },
    {
      "anonymous": false,
      "inputs": [
        {
          "indexed": true,
          "internalType": "address",
          "name": "previousOwner",
          "type": "address"
        },
        {
          "indexed": true,
          "internalType": "address",
          "name": "newOwner",
          "type": "address"
        }
      ],
      "name": "OwnershipTransferred",
      "type": "event"
    },
    {
      "anonymous": false,
      "inputs": [
        {
          "indexed": true,
          "internalType": "address",
          "name": "implementation",
          "type": "address"
        }
      ],
      "name": "Upgraded",
      "type": "event"
    },
    {
      "inputs": [],
      "name": "UPGRADE_INTERFACE_VERSION",
      "outputs": [
        {
          "internalType": "string",
          "name": "",
          "type": "string"
        }
      ],
      "stateMutability": "view",
      "type": "function"
    },
    {
      "inputs": [
        {
          "internalType": "address",
          "name": "owner",
          "type": "address"
        }
      ],
      "name": "__BookViewer_init",
      "outputs": [],
      "stateMutability": "nonpayable",
      "type": "function"
    },
    {
      "inputs": [],
      "name": "acceptOwnership",
      "outputs": [],
      "stateMutability": "nonpayable",
      "type": "function"
    },
    {
      "inputs": [],
      "name": "bookManager",
      "outputs": [
        {
          "internalType": "contract IBookManager",
          "name": "",
          "type": "address"
        }
      ],
      "stateMutability": "view",
      "type": "function"
    },
    {
      "inputs": [
        {
          "components": [
            {
              "internalType": "BookId",
              "name": "id",
              "type": "uint192"
            },
            {
              "internalType": "uint256",
              "name": "limitPrice",
              "type": "uint256"
            },
            {
              "internalType": "uint256",
              "name": "quoteAmount",
              "type": "uint256"
            },
            {
              "internalType": "uint256",
              "name": "maxBaseAmount",
              "type": "uint256"
            },
            {
              "internalType": "bytes",
              "name": "hookData",
              "type": "bytes"
            }
          ],
          "internalType": "struct IController.TakeOrderParams",
          "name": "params",
          "type": "tuple"
        }
      ],
      "name": "getExpectedInput",
      "outputs": [
        {
          "internalType": "uint256",
          "name": "takenQuoteAmount",
          "type": "uint256"
        },
        {
          "internalType": "uint256",
          "name": "spentBaseAmount",
          "type": "uint256"
        }
      ],
      "stateMutability": "view",
      "type": "function"
    },
    {
      "inputs": [
        {
          "components": [
            {
              "internalType": "BookId",
              "name": "id",
              "type": "uint192"
            },
            {
              "internalType": "uint256",
              "name": "limitPrice",
              "type": "uint256"
            },
            {
              "internalType": "uint256",
              "name": "baseAmount",
              "type": "uint256"
            },
            {
              "internalType": "uint256",
              "name": "minQuoteAmount",
              "type": "uint256"
            },
            {
              "internalType": "bytes",
              "name": "hookData",
              "type": "bytes"
            }
          ],
          "internalType": "struct IController.SpendOrderParams",
          "name": "params",
          "type": "tuple"
        }
      ],
      "name": "getExpectedOutput",
      "outputs": [
        {
          "internalType": "uint256",
          "name": "takenQuoteAmount",
          "type": "uint256"
        },
        {
          "internalType": "uint256",
          "name": "spentBaseAmount",
          "type": "uint256"
        }
      ],
      "stateMutability": "view",
      "type": "function"
    },
    {
      "inputs": [
        {
          "internalType": "BookId",
          "name": "id",
          "type": "uint192"
        },
        {
          "internalType": "Tick",
          "name": "tick",
          "type": "int24"
        },
        {
          "internalType": "uint256",
          "name": "n",
          "type": "uint256"
        }
      ],
      "name": "getLiquidity",
      "outputs": [
        {
          "components": [
            {
              "internalType": "Tick",
              "name": "tick",
              "type": "int24"
            },
            {
              "internalType": "uint64",
              "name": "depth",
              "type": "uint64"
            }
          ],
          "internalType": "struct IBookViewer.Liquidity[]",
          "name": "liquidity",
          "type": "tuple[]"
        }
      ],
      "stateMutability": "view",
      "type": "function"
    },
    {
      "inputs": [],
      "name": "owner",
      "outputs": [
        {
          "internalType": "address",
          "name": "",
          "type": "address"
        }
      ],
      "stateMutability": "view",
      "type": "function"
    },
    {
      "inputs": [],
      "name": "pendingOwner",
      "outputs": [
        {
          "internalType": "address",
          "name": "",
          "type": "address"
        }
      ],
      "stateMutability": "view",
      "type": "function"
    },
    {
      "inputs": [],
      "name": "proxiableUUID",
      "outputs": [
        {
          "internalType": "bytes32",
          "name": "",
          "type": "bytes32"
        }
      ],
      "stateMutability": "view",
      "type": "function"
    },
    {
      "inputs": [],
      "name": "renounceOwnership",
      "outputs": [],
      "stateMutability": "nonpayable",
      "type": "function"
    },
    {
      "inputs": [
        {
          "internalType": "address",
          "name": "newOwner",
          "type": "address"
        }
      ],
      "name": "transferOwnership",
      "outputs": [],
      "stateMutability": "nonpayable",
      "type": "function"
    },
    {
      "inputs": [
        {
          "internalType": "address",
          "name": "newImplementation",
          "type": "address"
        },
        {
          "internalType": "bytes",
          "name": "data",
          "type": "bytes"
        }
      ],
      "name": "upgradeToAndCall",
      "outputs": [],
      "stateMutability": "payable",
      "type": "function"
    }
  ],
  "transactionHash": "0xf144629cf4c8e6820df93a592f38aaa6fe6d3f90f5696929fbeca77c2397224e",
  "args": [
    "0x382CCccbD3b142D7DA063bF68cd0c89634767F76"
  ],
  "numDeployments": 1,
  "solcInputHash": "799ea93859bcbd8fb7e92ac887ce3b48",
  "bytecode": "0x60c060405230608052348015610013575f80fd5b506040516121db3803806121db833981016040819052610032916100dd565b338061005757604051631e4fbdf760e01b81525f600482015260240160405180910390fd5b61006081610072565b506001600160a01b031660a05261010a565b600180546001600160a01b031916905561008b8161008e565b50565b5f80546001600160a01b038381166001600160a01b0319831681178455604051919092169283917f8be0079c531659141344cd1fd0a4f28419497f9722a3daafe3b4186f6b6457e09190a35050565b5f602082840312156100ed575f80fd5b81516001600160a01b0381168114610103575f80fd5b9392505050565b60805160a05161204061019b5f395f818161013b015281816102f3015281816103880152818161042c0152818161058c015281816106d90152818161078301528181610818015281816108bc015281816109fc01528181610b5d01528181610dec01528181610e9501528181610f66015261102101525f81816115ee0152818161161701526117c001526120405ff3fe6080604052600436106100ce575f3560e01c8063694d8a291161007c5780638da5cb5b116100575780638da5cb5b1461021f578063ad3cb1cc1461023b578063e30c397814610290578063f2fde38b146102ad575f80fd5b8063694d8a29146101cb578063715018a6146101f757806379ba50971461020b575f80fd5b80634f1ef286116100ac5780634f1ef2861461017557806350a216c61461018a57806352d1902d146101a9575f80fd5b80630202121a146100d2578063130391b61461010b5780633f322bc91461012a575b5f80fd5b3480156100dd575f80fd5b506100f16100ec366004611c66565b6102cc565b604080519283526020830191909152015b60405180910390f35b348015610116575f80fd5b506100f1610125366004611c66565b61075c565b348015610135575f80fd5b5061015d7f000000000000000000000000000000000000000000000000000000000000000081565b6040516001600160a01b039091168152602001610102565b610188610183366004611cb4565b610bd9565b005b348015610195575f80fd5b506101886101a4366004611d01565b610bf8565b3480156101b4575f80fd5b506101bd610d33565b604051908152602001610102565b3480156101d6575f80fd5b506101ea6101e5366004611d2a565b610d61565b6040516101029190611d66565b348015610202575f80fd5b506101886110a5565b348015610216575f80fd5b506101886110b8565b34801561022a575f80fd5b505f546001600160a01b031661015d565b348015610246575f80fd5b506102836040518060400160405280600581526020017f352e302e3000000000000000000000000000000000000000000000000000000081525081565b6040516101029190611dc1565b34801561029b575f80fd5b506001546001600160a01b031661015d565b3480156102b8575f80fd5b506101886102c7366004611d01565b611101565b8051604051639b22917d60e01b81526001600160c01b0390911660048201525f90819081907f00000000000000000000000000000000000000000000000000000000000000006001600160a01b031690639b22917d9060240160c060405180830381865afa158015610340573d5f803e3d5ffd5b505050506040513d601f19601f820116820180604052508101906103649190611e1f565b845160405163fcc8fc9b60e01b81526001600160c01b0390911660048201529091507f00000000000000000000000000000000000000000000000000000000000000006001600160a01b03169063fcc8fc9b90602401602060405180830381865afa1580156103d5573d5f803e3d5ffd5b505050506040513d601f19601f820116820180604052508101906103f99190611ec2565b1561040957505f93849350915050565b835160405163cdc92f2d60e01b81526001600160c01b0390911660048201525f907f00000000000000000000000000000000000000000000000000000000000000006001600160a01b03169063cdc92f2d90602401602060405180830381865afa158015610479573d5f803e3d5ffd5b505050506040513d601f19601f8201168201806040525081019061049d9190611ee1565b90505b846040015183111580156104bb5750627fffff19600282900b135b15610755576104cc8160020b61117e565b856020015111610755575f6104ea8360a0015162ffffff1660171c90565b156104fd57838660400151039050610524565b610521848760400151035f8560a0015162ffffff166114469092919063ffffffff16565b90505b602083015167ffffffffffffffff16610542600284900b835f611493565b8161054f5761054f611efc565b049050805f0361055f5750610755565b8551604051630835177160e31b81526001600160c01b039091166004820152600283900b60248201525f907f00000000000000000000000000000000000000000000000000000000000000006001600160a01b0316906341a8bb8890604401602060405180830381865afa1580156105d9573d5f803e3d5ffd5b505050506040513d601f19601f820116820180604052508101906105fd9190611f10565b67ffffffffffffffff1690505f846020015167ffffffffffffffff168383116106265782610628565b835b0290505f61063c600286900b8360016114df565b90506106518660a0015162ffffff1660171c90565b156106745760a086015161066b9062ffffff16835f611501565b82039150610696565b60a08601516106899062ffffff16825f611501565b61069282611581565b0190505b805f036106a65750505050610755565b885160405163285e76b760e21b81526001600160c01b039091166004820152600286900b602482015297820197968101967f00000000000000000000000000000000000000000000000000000000000000006001600160a01b03169063a179dadc90604401602060405180830381865afa158015610726573d5f803e3d5ffd5b505050506040513d601f19601f8201168201806040525081019061074a9190611ee1565b9450505050506104a0565b5050915091565b8051604051639b22917d60e01b81526001600160c01b0390911660048201525f90819081907f00000000000000000000000000000000000000000000000000000000000000006001600160a01b031690639b22917d9060240160c060405180830381865afa1580156107d0573d5f803e3d5ffd5b505050506040513d601f19601f820116820180604052508101906107f49190611e1f565b845160405163fcc8fc9b60e01b81526001600160c01b0390911660048201529091507f00000000000000000000000000000000000000000000000000000000000000006001600160a01b03169063fcc8fc9b90602401602060405180830381865afa158015610865573d5f803e3d5ffd5b505050506040513d601f19601f820116820180604052508101906108899190611ec2565b1561089957505f93849350915050565b835160405163cdc92f2d60e01b81526001600160c01b0390911660048201525f907f00000000000000000000000000000000000000000000000000000000000000006001600160a01b03169063cdc92f2d90602401602060405180830381865afa158015610909573d5f803e3d5ffd5b505050506040513d601f19601f8201168201806040525081019061092d9190611ee1565b90505b627fffff19600282900b13156107555761094c8160020b61117e565b856020015111610755575f61096a8360a0015162ffffff1660171c90565b1561099b576109948587604001510360018560a0015162ffffff166114469092919063ffffffff16565b90506109a5565b8486604001510390505b602083015167ffffffffffffffff168082049082061515600116019050805f036109cf5750610755565b8551604051630835177160e31b81526001600160c01b039091166004820152600283900b60248201525f907f00000000000000000000000000000000000000000000000000000000000000006001600160a01b0316906341a8bb8890604401602060405180830381865afa158015610a49573d5f803e3d5ffd5b505050506040513d601f19601f82011682018060405250810190610a6d9190611f10565b67ffffffffffffffff1690505f846020015167ffffffffffffffff16838311610a965782610a98565b835b0290505f610aac600286900b8360016114df565b9050610ac18660a0015162ffffff1660171c90565b15610ae45760a0860151610adb9062ffffff16835f611501565b82039150610b06565b60a0860151610af99062ffffff16825f611501565b610b0282611581565b0190505b815f03610b165750505050610755565b604089015197820197968101968810610b325750505050610755565b885160405163285e76b760e21b81526001600160c01b039091166004820152600286900b60248201527f00000000000000000000000000000000000000000000000000000000000000006001600160a01b03169063a179dadc90604401602060405180830381865afa158015610baa573d5f803e3d5ffd5b505050506040513d601f19601f82011682018060405250810190610bce9190611ee1565b945050505050610930565b610be16115e3565b610bea8261169a565b610bf482826116a2565b5050565b7ff0c57e16840df040f15088dc2f81fe391c3923bec73e23a9662efc9c229c6a00805468010000000000000000810460ff16159067ffffffffffffffff165f81158015610c425750825b90505f8267ffffffffffffffff166001148015610c5e5750303b155b905081158015610c6c575080155b15610ca3576040517ff92ee8a900000000000000000000000000000000000000000000000000000000815260040160405180910390fd5b845467ffffffffffffffff191660011785558315610cd757845468ff00000000000000001916680100000000000000001785555b610ce08661178f565b8315610d2b57845468ff000000000000000019168555604051600181527fc7f505b2f371ae2175ee4913f4499e1f2633a7b5936321eed1cdaeb6115181d29060200160405180910390a15b505050505050565b5f610d3c6117b5565b507f360894a13ba1a3210667c828492db98dca3e2076cc3735a920a3ca505d382bbc90565b60608167ffffffffffffffff811115610d7c57610d7c611b1d565b604051908082528060200260200182016040528015610dc057816020015b604080518082019091525f8082526020820152815260200190600190039081610d9a5790505b50604051630835177160e31b81526001600160c01b0386166004820152600285900b60248201529091507f00000000000000000000000000000000000000000000000000000000000000006001600160a01b0316906341a8bb8890604401602060405180830381865afa158015610e39573d5f803e3d5ffd5b505050506040513d601f19601f82011682018060405250810190610e5d9190611f10565b67ffffffffffffffff165f03610f095760405163285e76b760e21b81526001600160c01b0385166004820152600284900b60248201527f00000000000000000000000000000000000000000000000000000000000000006001600160a01b03169063a179dadc90604401602060405180830381865afa158015610ee2573d5f803e3d5ffd5b505050506040513d601f19601f82011682018060405250810190610f069190611ee1565b92505b5f5b8281101561109c5762800000600285900b011561109c57604080518082018252600286900b8082529151630835177160e31b81526001600160c01b038816600482015260248101929092529060208201906001600160a01b037f000000000000000000000000000000000000000000000000000000000000000016906341a8bb8890604401602060405180830381865afa158015610fab573d5f803e3d5ffd5b505050506040513d601f19601f82011682018060405250810190610fcf9190611f10565b67ffffffffffffffff16815250828281518110610fee57610fee611f29565b602090810291909101015260405163285e76b760e21b81526001600160c01b0386166004820152600285900b60248201527f00000000000000000000000000000000000000000000000000000000000000006001600160a01b03169063a179dadc90604401602060405180830381865afa15801561106e573d5f803e3d5ffd5b505050506040513d601f19601f820116820180604052508101906110929190611ee1565b9350600101610f0b565b81529392505050565b6110ad6117fe565b6110b65f61178f565b565b60015433906001600160a01b031681146110f55760405163118cdaa760e01b81526001600160a01b03821660048201526024015b60405180910390fd5b6110fe8161178f565b50565b6111096117fe565b600180546001600160a01b03831673ffffffffffffffffffffffffffffffffffffffff1990911681179091556111465f546001600160a01b031690565b6001600160a01b03167f38d16b8cac22d99fc7c124b9cd0de2d3fa1faef420bfe791d8c362d765e2270060405160405180910390a350565b5f6111888261182a565b815f600282900b811361119b57816111a4565b6111a482611f51565b62ffffff81169150600116156111c8576bfff97272373d413259a4699092506111d9565b6c0100000000000000000000000092505b60028116156111f85760606bfff2e50f5f656932ef12357c8402901c92505b60048116156112175760606bffe5caca7e10e4e61c3624ea8402901c92505b60088116156112365760606bffcb9843d60f6159c9db58838402901c92505b60108116156112555760606bff973b41fa98c081472e68968402901c92505b60208116156112745760606bff2ea16466c96a3843ec78b38402901c92505b60408116156112935760606bfe5dee046a99a2a811c461f18402901c92505b60808116156112b25760606bfcbe86c7900a88aedcffc83b8402901c92505b6101008116156112d25760606bf987a7253ac413176f2b074c8402901c92505b6102008116156112f25760606bf3392b0822b70005940c7a398402901c92505b6104008116156113125760606be7159475a2c29b7443b29c7f8402901c92505b6108008116156113325760606bd097f3bdfd2022b8845ad8f78402901c92505b6110008116156113525760606ba9f746462d870fdf8a65dc1f8402901c92505b6120008116156113725760606b70d869a156d2a1b890bb3df68402901c92505b6140008116156113925760606b31be135f97d08fd9812315058402901c92505b6180008116156113b25760606b09aa508b5b7a84e1c677de548402901c92505b620100008116156113d25760606a5d6af8dedb81196699c3298402901c92505b620200008116156113f1576060692216e584f5fa1ea926048402901c92505b6204000081161561140e57606067048a170391f7dc428402901c92505b5f8260020b131561143f5761143c837801000000000000000000000000000000000000000000000000611f71565b92505b5050919050565b5f6207a11f19627fffff85160181831561146057815f0391505b81620f4240019050611489620f42408661147a9190611f90565b82810615158616908390040190565b9695505050505050565b5f6114d56114a38560020b61117e565b6114ad9085611f90565b6bffffffffffffffffffffffff8116151584166c010000000000000000000000009091040190565b90505b9392505050565b5f6114d5606084901b6114f48660020b61117e565b8082061515851691040190565b5f6207a11f19627fffff851601600281900b8212828161152357825f03611525565b825b62ffffff1690505f61155e61153a8389611f90565b620f424088611550578581830615151691040190565b808206151586151691040190565b9050826115735761156e81611fa7565b611575565b805b98975050505050505050565b5f7f7fffffffffffffffffffffffffffffffffffffffffffffffffffffffffffffff8211156115df576040517f24775e06000000000000000000000000000000000000000000000000000000008152600481018390526024016110ec565b5090565b306001600160a01b037f000000000000000000000000000000000000000000000000000000000000000016148061167c57507f00000000000000000000000000000000000000000000000000000000000000006001600160a01b03166116707f360894a13ba1a3210667c828492db98dca3e2076cc3735a920a3ca505d382bbc546001600160a01b031690565b6001600160a01b031614155b156110b65760405163703e46dd60e11b815260040160405180910390fd5b6110fe6117fe565b816001600160a01b03166352d1902d6040518163ffffffff1660e01b8152600401602060405180830381865afa9250505080156116fc575060408051601f3d908101601f191682019092526116f991810190611fdd565b60015b61172457604051634c9c8ce360e01b81526001600160a01b03831660048201526024016110ec565b7f360894a13ba1a3210667c828492db98dca3e2076cc3735a920a3ca505d382bbc8114611780576040517faa1d49a4000000000000000000000000000000000000000000000000000000008152600481018290526024016110ec565b61178a8383611886565b505050565b6001805473ffffffffffffffffffffffffffffffffffffffff191690556110fe816118db565b306001600160a01b037f000000000000000000000000000000000000000000000000000000000000000016146110b65760405163703e46dd60e11b815260040160405180910390fd5b5f546001600160a01b031633146110b65760405163118cdaa760e01b81523360048201526024016110ec565b6207ffff600282900b138061184f57506118466207ffff611f51565b60020b8160020b125b156110fe576040517fce8ef7fc00000000000000000000000000000000000000000000000000000000815260040160405180910390fd5b61188f82611937565b6040516001600160a01b038316907fbc7cd75a20ee27fd9adebab32041f755214dbc6bffa90cc0225b39da2e5c2d3b905f90a28051156118d35761178a82826119ba565b610bf4611a2e565b5f80546001600160a01b0383811673ffffffffffffffffffffffffffffffffffffffff19831681178455604051919092169283917f8be0079c531659141344cd1fd0a4f28419497f9722a3daafe3b4186f6b6457e09190a35050565b806001600160a01b03163b5f0361196c57604051634c9c8ce360e01b81526001600160a01b03821660048201526024016110ec565b7f360894a13ba1a3210667c828492db98dca3e2076cc3735a920a3ca505d382bbc805473ffffffffffffffffffffffffffffffffffffffff19166001600160a01b0392909216919091179055565b60605f80846001600160a01b0316846040516119d69190611ff4565b5f60405180830381855af49150503d805f8114611a0e576040519150601f19603f3d011682016040523d82523d5f602084013e611a13565b606091505b5091509150611a23858383611a66565b925050505b92915050565b34156110b6576040517fb398979f00000000000000000000000000000000000000000000000000000000815260040160405180910390fd5b606082611a7b57611a7682611adb565b6114d8565b8151158015611a9257506001600160a01b0384163b155b15611ad4576040517f9996b3150000000000000000000000000000000000000000000000000000000081526001600160a01b03851660048201526024016110ec565b50806114d8565b805115611aeb5780518082602001fd5b6040517fd6bda27500000000000000000000000000000000000000000000000000000000815260040160405180910390fd5b634e487b7160e01b5f52604160045260245ffd5b80356001600160c01b0381168114611b47575f80fd5b919050565b5f82601f830112611b5b575f80fd5b813567ffffffffffffffff80821115611b7657611b76611b1d565b604051601f8301601f19908116603f01168101908282118183101715611b9e57611b9e611b1d565b81604052838152866020858801011115611bb6575f80fd5b836020870160208301375f602085830101528094505050505092915050565b5f60a08284031215611be5575f80fd5b60405160a0810167ffffffffffffffff8282108183111715611c0957611c09611b1d565b81604052829350611c1985611b31565b83526020850135602084015260408501356040840152606085013560608401526080850135915080821115611c4c575f80fd5b50611c5985828601611b4c565b6080830152505092915050565b5f60208284031215611c76575f80fd5b813567ffffffffffffffff811115611c8c575f80fd5b611c9884828501611bd5565b949350505050565b6001600160a01b03811681146110fe575f80fd5b5f8060408385031215611cc5575f80fd5b8235611cd081611ca0565b9150602083013567ffffffffffffffff811115611ceb575f80fd5b611cf785828601611b4c565b9150509250929050565b5f60208284031215611d11575f80fd5b81356114d881611ca0565b8060020b81146110fe575f80fd5b5f805f60608486031215611d3c575f80fd5b611d4584611b31565b92506020840135611d5581611d1c565b929592945050506040919091013590565b602080825282518282018190525f919060409081850190868401855b82811015611db4578151805160020b855286015167ffffffffffffffff16868501529284019290850190600101611d82565b5091979650505050505050565b602081525f82518060208401528060208501604085015e5f604082850101526040601f19601f83011684010191505092915050565b805167ffffffffffffffff81168114611b47575f80fd5b805162ffffff81168114611b47575f80fd5b5f60c08284031215611e2f575f80fd5b60405160c0810181811067ffffffffffffffff82111715611e5257611e52611b1d565b6040528251611e6081611ca0565b8152611e6e60208401611df6565b60208201526040830151611e8181611ca0565b6040820152611e9260608401611e0d565b60608201526080830151611ea581611ca0565b6080820152611eb660a08401611e0d565b60a08201529392505050565b5f60208284031215611ed2575f80fd5b815180151581146114d8575f80fd5b5f60208284031215611ef1575f80fd5b81516114d881611d1c565b634e487b7160e01b5f52601260045260245ffd5b5f60208284031215611f20575f80fd5b6114d882611df6565b634e487b7160e01b5f52603260045260245ffd5b634e487b7160e01b5f52601160045260245ffd5b5f8160020b627fffff198103611f6957611f69611f3d565b5f0392915050565b5f82611f8b57634e487b7160e01b5f52601260045260245ffd5b500490565b8082028115828204841417611a2857611a28611f3d565b5f7f80000000000000000000000000000000000000000000000000000000000000008203611fd757611fd7611f3d565b505f0390565b5f60208284031215611fed575f80fd5b5051919050565b5f82518060208501845e5f92019182525091905056fea2646970667358221220837ae3fbdf959e20c0d82d2161d9c6d88a455d0332b4f90a8395bad1c19d363c64736f6c63430008190033",
  "devdoc": {
    "errors": {
      "AddressEmptyCode(address)": [
        {
          "details": "There's no code at `target` (it is not a contract)."
        }
      ],
      "ERC1967InvalidImplementation(address)": [
        {
          "details": "The `implementation` of the proxy is invalid."
        }
      ],
      "ERC1967NonPayable()": [
        {
          "details": "An upgrade function sees `msg.value > 0` that may be lost."
        }
      ],
      "FailedCall()": [
        {
          "details": "A call to an address target failed. The target may have reverted."
        }
      ],
      "InvalidInitialization()": [
        {
          "details": "The contract is already initialized."
        }
      ],
      "NotInitializing()": [
        {
          "details": "The contract is not initializing."
        }
      ],
      "OwnableInvalidOwner(address)": [
        {
          "details": "The owner is not a valid owner account. (eg. `address(0)`)"
        }
      ],
      "OwnableUnauthorizedAccount(address)": [
        {
          "details": "The caller account is not authorized to perform an operation."
        }
      ],
      "SafeCastOverflowedUintToInt(uint256)": [
        {
          "details": "An uint value doesn't fit in an int of `bits` size."
        }
      ],
      "UUPSUnauthorizedCallContext()": [
        {
          "details": "The call is from an unauthorized context."
        }
      ],
      "UUPSUnsupportedProxiableUUID(bytes32)": [
        {
          "details": "The storage `slot` is unsupported as a UUID."
        }
      ]
    },
    "events": {
      "Initialized(uint64)": {
        "details": "Triggered when the contract has been initialized or reinitialized."
      },
      "Upgraded(address)": {
        "details": "Emitted when the implementation is upgraded."
      }
    },
    "kind": "dev",
    "methods": {
      "acceptOwnership()": {
        "details": "The new owner accepts the ownership transfer."
      },
      "getExpectedInput((uint192,uint256,uint256,uint256,bytes))": {
        "params": {
          "params": "The parameters of the take order"
        },
        "returns": {
          "spentBaseAmount": "The expected spend base amount",
          "takenQuoteAmount": "The expected taken quote amount"
        }
      },
      "getExpectedOutput((uint192,uint256,uint256,uint256,bytes))": {
        "params": {
          "params": "The parameters of the spend order"
        },
        "returns": {
          "spentBaseAmount": "The expected spend base amount",
          "takenQuoteAmount": "The expected taken quote amount"
        }
      },
      "owner()": {
        "details": "Returns the address of the current owner."
      },
      "pendingOwner()": {
        "details": "Returns the address of the pending owner."
      },
      "proxiableUUID()": {
        "details": "Implementation of the ERC-1822 {proxiableUUID} function. This returns the storage slot used by the implementation. It is used to validate the implementation's compatibility when performing an upgrade. IMPORTANT: A proxy pointing at a proxiable contract should not be considered proxiable itself, because this risks bricking a proxy that upgrades to it, by delegating to itself until out of gas. Thus it is critical that this function revert if invoked through a proxy. This is guaranteed by the `notDelegated` modifier."
      },
      "renounceOwnership()": {
        "details": "Leaves the contract without owner. It will not be possible to call `onlyOwner` functions. Can only be called by the current owner. NOTE: Renouncing ownership will leave the contract without an owner, thereby disabling any functionality that is only available to the owner."
      },
      "transferOwnership(address)": {
        "details": "Starts the ownership transfer of the contract to a new account. Replaces the pending transfer if there is one. Can only be called by the current owner."
      },
      "upgradeToAndCall(address,bytes)": {
        "custom:oz-upgrades-unsafe-allow-reachable": "delegatecall",
        "details": "Upgrade the implementation of the proxy to `newImplementation`, and subsequently execute the function call encoded in `data`. Calls {_authorizeUpgrade}. Emits an {Upgraded} event."
      }
    },
    "stateVariables": {
      "bookManager": {
        "return": "The instance of the book manager",
        "returns": {
          "_0": "The instance of the book manager"
        }
      }
    },
    "version": 1
  },
  "userdoc": {
    "kind": "user",
    "methods": {
      "bookManager()": {
        "notice": "Returns the book manager"
      },
      "getExpectedInput((uint192,uint256,uint256,uint256,bytes))": {
        "notice": "Returns the expected input for a take order"
      },
      "getExpectedOutput((uint192,uint256,uint256,uint256,bytes))": {
        "notice": "Returns the expected output for a spend order"
      }
    },
    "version": 1
  },
  "storageLayout": {
    "storage": [
      {
        "astId": 8,
        "contract": "src/BookViewer.sol:BookViewer",
        "label": "_owner",
        "offset": 0,
        "slot": "0",
        "type": "t_address"
      },
      {
        "astId": 156,
        "contract": "src/BookViewer.sol:BookViewer",
        "label": "_pendingOwner",
        "offset": 0,
        "slot": "1",
        "type": "t_address"
      }
    ],
    "types": {
      "t_address": {
        "encoding": "inplace",
        "label": "address",
        "numberOfBytes": "20"
      }
    }
  }
}