{
  "address": "0x43D614B1bA4bA469fAEAa4557AEAFdec039b8795",
  "abi": [
    {
      "inputs": [
        {
          "internalType": "address",
          "name": "bookManager_",
          "type": "address"
        }
      ],
      "stateMutability": "nonpayable",
      "type": "constructor"
    },
    {
      "inputs": [
        {
          "internalType": "address",
          "name": "target",
          "type": "address"
        }
      ],
      "name": "AddressEmptyCode",
      "type": "error"
    },
    {
      "inputs": [],
      "name": "ControllerSlippage",
      "type": "error"
    },
    {
      "inputs": [],
      "name": "Deadline",
      "type": "error"
    },
    {
      "inputs": [],
      "name": "ERC20TransferFailed",
      "type": "error"
    },
    {
      "inputs": [],
      "name": "FailedCall",
      "type": "error"
    },
    {
      "inputs": [
        {
          "internalType": "uint256",
          "name": "balance",
          "type": "uint256"
        },
        {
          "internalType": "uint256",
          "name": "needed",
          "type": "uint256"
        }
      ],
      "name": "InsufficientBalance",
      "type": "error"
    },
    {
      "inputs": [],
      "name": "InvalidAccess",
      "type": "error"
    },
    {
      "inputs": [],
      "name": "InvalidAction",
      "type": "error"
    },
    {
      "inputs": [],
      "name": "InvalidLength",
      "type": "error"
    },
    {
      "inputs": [],
      "name": "InvalidPrice",
      "type": "error"
    },
    {
      "inputs": [],
      "name": "InvalidTick",
      "type": "error"
    },
    {
      "inputs": [],
      "name": "NativeTransferFailed",
      "type": "error"
    },
    {
      "inputs": [],
      "name": "ReentrancyGuardReentrantCall",
      "type": "error"
    },
    {
      "inputs": [
        {
          "internalType": "uint8",
          "name": "bits",
          "type": "uint8"
        },
        {
          "internalType": "uint256",
          "name": "value",
          "type": "uint256"
        }
      ],
      "name": "SafeCastOverflowedUintDowncast",
      "type": "error"
    },
    {
      "inputs": [
        {
          "internalType": "address",
          "name": "token",
          "type": "address"
        }
      ],
      "name": "SafeERC20FailedOperation",
      "type": "error"
    },
    {
      "inputs": [],
      "name": "bookManager",
      "outputs": [
        {
          "internalType": "contract IBookManager",
          "name": "",
          "type": "address"
        }
      ],
      "stateMutability": "view",
      "type": "function"
    },
    {
      "inputs": [
        {
          "components": [
            {
              "internalType": "OrderId",
              "name": "id",
              "type": "uint256"
            },
            {
              "internalType": "uint256",
              "name": "leftQuoteAmount",
              "type": "uint256"
            },
            {
              "internalType": "bytes",
              "name": "hookData",
              "type": "bytes"
            }
          ],
          "internalType": "struct IController.CancelOrderParams[]",
          "name": "orderParamsList",
          "type": "tuple[]"
        },
        {
          "internalType": "address[]",
          "name": "tokensToSettle",
          "type": "address[]"
        },
        {
          "components": [
            {
              "internalType": "uint256",
              "name": "tokenId",
              "type": "uint256"
            },
            {
              "components": [
                {
                  "internalType": "uint256",
                  "name": "deadline",
                  "type": "uint256"
                },
                {
                  "internalType": "uint8",
                  "name": "v",
                  "type": "uint8"
                },
                {
                  "internalType": "bytes32",
                  "name": "r",
                  "type": "bytes32"
                },
                {
                  "internalType": "bytes32",
                  "name": "s",
                  "type": "bytes32"
                }
              ],
              "internalType": "struct IController.PermitSignature",
              "name": "signature",
              "type": "tuple"
            }
          ],
          "internalType": "struct IController.ERC721PermitParams[]",
          "name": "permitParamsList",
          "type": "tuple[]"
        },
        {
          "internalType": "uint64",
          "name": "deadline",
          "type": "uint64"
        }
      ],
      "name": "cancel",
      "outputs": [],
      "stateMutability": "nonpayable",
      "type": "function"
    },
    {
      "inputs": [
        {
          "components": [
            {
              "internalType": "OrderId",
              "name": "id",
              "type": "uint256"
            },
            {
              "internalType": "bytes",
              "name": "hookData",
              "type": "bytes"
            }
          ],
          "internalType": "struct IController.ClaimOrderParams[]",
          "name": "orderParamsList",
          "type": "tuple[]"
        },
        {
          "internalType": "address[]",
          "name": "tokensToSettle",
          "type": "address[]"
        },
        {
          "components": [
            {
              "internalType": "uint256",
              "name": "tokenId",
              "type": "uint256"
            },
            {
              "components": [
                {
                  "internalType": "uint256",
                  "name": "deadline",
                  "type": "uint256"
                },
                {
                  "internalType": "uint8",
                  "name": "v",
                  "type": "uint8"
                },
                {
                  "internalType": "bytes32",
                  "name": "r",
                  "type": "bytes32"
                },
                {
                  "internalType": "bytes32",
                  "name": "s",
                  "type": "bytes32"
                }
              ],
              "internalType": "struct IController.PermitSignature",
              "name": "signature",
              "type": "tuple"
            }
          ],
          "internalType": "struct IController.ERC721PermitParams[]",
          "name": "permitParamsList",
          "type": "tuple[]"
        },
        {
          "internalType": "uint64",
          "name": "deadline",
          "type": "uint64"
        }
      ],
      "name": "claim",
      "outputs": [],
      "stateMutability": "nonpayable",
      "type": "function"
    },
    {
      "inputs": [
        {
          "internalType": "enum IController.Action[]",
          "name": "actionList",
          "type": "uint8[]"
        },
        {
          "internalType": "bytes[]",
          "name": "paramsDataList",
          "type": "bytes[]"
        },
        {
          "internalType": "address[]",
          "name": "tokensToSettle",
          "type": "address[]"
        },
        {
          "components": [
            {
              "internalType": "address",
              "name": "token",
              "type": "address"
            },
            {
              "internalType": "uint256",
              "name": "permitAmount",
              "type": "uint256"
            },
            {
              "components": [
                {
                  "internalType": "uint256",
                  "name": "deadline",
                  "type": "uint256"
                },
                {
                  "internalType": "uint8",
                  "name": "v",
                  "type": "uint8"
                },
                {
                  "internalType": "bytes32",
                  "name": "r",
                  "type": "bytes32"
                },
                {
                  "internalType": "bytes32",
                  "name": "s",
                  "type": "bytes32"
                }
              ],
              "internalType": "struct IController.PermitSignature",
              "name": "signature",
              "type": "tuple"
            }
          ],
          "internalType": "struct IController.ERC20PermitParams[]",
          "name": "erc20PermitParamsList",
          "type": "tuple[]"
        },
        {
          "components": [
            {
              "internalType": "uint256",
              "name": "tokenId",
              "type": "uint256"
            },
            {
              "components": [
                {
                  "internalType": "uint256",
                  "name": "deadline",
                  "type": "uint256"
                },
                {
                  "internalType": "uint8",
                  "name": "v",
                  "type": "uint8"
                },
                {
                  "internalType": "bytes32",
                  "name": "r",
                  "type": "bytes32"
                },
                {
                  "internalType": "bytes32",
                  "name": "s",
                  "type": "bytes32"
                }
              ],
              "internalType": "struct IController.PermitSignature",
              "name": "signature",
              "type": "tuple"
            }
          ],
          "internalType": "struct IController.ERC721PermitParams[]",
          "name": "erc721PermitParamsList",
          "type": "tuple[]"
        },
        {
          "internalType": "uint64",
          "name": "deadline",
          "type": "uint64"
        }
      ],
      "name": "execute",
      "outputs": [
        {
          "internalType": "OrderId[]",
          "name": "ids",
          "type": "uint256[]"
        }
      ],
      "stateMutability": "payable",
      "type": "function"
    },
    {
      "inputs": [
        {
          "internalType": "uint256",
          "name": "price",
          "type": "uint256"
        }
      ],
      "name": "fromPrice",
      "outputs": [
        {
          "internalType": "Tick",
          "name": "",
          "type": "int24"
        }
      ],
      "stateMutability": "pure",
      "type": "function"
    },
    {
      "inputs": [
        {
          "internalType": "BookId",
          "name": "id",
          "type": "uint192"
        },
        {
          "internalType": "Tick",
          "name": "tick",
          "type": "int24"
        }
      ],
      "name": "getDepth",
      "outputs": [
        {
          "internalType": "uint256",
          "name": "",
          "type": "uint256"
        }
      ],
      "stateMutability": "view",
      "type": "function"
    },
    {
      "inputs": [
        {
          "internalType": "BookId",
          "name": "id",
          "type": "uint192"
        }
      ],
      "name": "getHighestPrice",
      "outputs": [
        {
          "internalType": "uint256",
          "name": "",
          "type": "uint256"
        }
      ],
      "stateMutability": "view",
      "type": "function"
    },
    {
      "inputs": [
        {
          "internalType": "OrderId",
          "name": "orderId",
          "type": "uint256"
        }
      ],
      "name": "getOrder",
      "outputs": [
        {
          "internalType": "address",
          "name": "provider",
          "type": "address"
        },
        {
          "internalType": "uint256",
          "name": "price",
          "type": "uint256"
        },
        {
          "internalType": "uint256",
          "name": "openAmount",
          "type": "uint256"
        },
        {
          "internalType": "uint256",
          "name": "claimableAmount",
          "type": "uint256"
        }
      ],
      "stateMutability": "view",
      "type": "function"
    },
    {
      "inputs": [
        {
          "components": [
            {
              "internalType": "BookId",
              "name": "takeBookId",
              "type": "uint192"
            },
            {
              "internalType": "BookId",
              "name": "makeBookId",
              "type": "uint192"
            },
            {
              "internalType": "uint256",
              "name": "limitPrice",
              "type": "uint256"
            },
            {
              "internalType": "Tick",
              "name": "tick",
              "type": "int24"
            },
            {
              "internalType": "uint256",
              "name": "quoteAmount",
              "type": "uint256"
            },
            {
              "internalType": "address",
              "name": "provider",
              "type": "address"
            },
            {
              "internalType": "bytes",
              "name": "takeHookData",
              "type": "bytes"
            },
            {
              "internalType": "bytes",
              "name": "makeHookData",
              "type": "bytes"
            }
          ],
          "internalType": "struct IController.LimitOrderParams[]",
          "name": "orderParamsList",
          "type": "tuple[]"
        },
        {
          "internalType": "address[]",
          "name": "tokensToSettle",
          "type": "address[]"
        },
        {
          "components": [
            {
              "internalType": "address",
              "name": "token",
              "type": "address"
            },
            {
              "internalType": "uint256",
              "name": "permitAmount",
              "type": "uint256"
            },
            {
              "components": [
                {
                  "internalType": "uint256",
                  "name": "deadline",
                  "type": "uint256"
                },
                {
                  "internalType": "uint8",
                  "name": "v",
                  "type": "uint8"
                },
                {
                  "internalType": "bytes32",
                  "name": "r",
                  "type": "bytes32"
                },
                {
                  "internalType": "bytes32",
                  "name": "s",
                  "type": "bytes32"
                }
              ],
              "internalType": "struct IController.PermitSignature",
              "name": "signature",
              "type": "tuple"
            }
          ],
          "internalType": "struct IController.ERC20PermitParams[]",
          "name": "permitParamsList",
          "type": "tuple[]"
        },
        {
          "internalType": "uint64",
          "name": "deadline",
          "type": "uint64"
        }
      ],
      "name": "limit",
      "outputs": [
        {
          "internalType": "OrderId[]",
          "name": "ids",
          "type": "uint256[]"
        }
      ],
      "stateMutability": "payable",
      "type": "function"
    },
    {
      "inputs": [
        {
          "internalType": "address",
          "name": "sender",
          "type": "address"
        },
        {
          "internalType": "bytes",
          "name": "data",
          "type": "bytes"
        }
      ],
      "name": "lockAcquired",
      "outputs": [
        {
          "internalType": "bytes",
          "name": "returnData",
          "type": "bytes"
        }
      ],
      "stateMutability": "nonpayable",
      "type": "function"
    },
    {
      "inputs": [
        {
          "components": [
            {
              "internalType": "BookId",
              "name": "id",
              "type": "uint192"
            },
            {
              "internalType": "Tick",
              "name": "tick",
              "type": "int24"
            },
            {
              "internalType": "uint256",
              "name": "quoteAmount",
              "type": "uint256"
            },
            {
              "internalType": "address",
              "name": "provider",
              "type": "address"
            },
            {
              "internalType": "bytes",
              "name": "hookData",
              "type": "bytes"
            }
          ],
          "internalType": "struct IController.MakeOrderParams[]",
          "name": "orderParamsList",
          "type": "tuple[]"
        },
        {
          "internalType": "address[]",
          "name": "tokensToSettle",
          "type": "address[]"
        },
        {
          "components": [
            {
              "internalType": "address",
              "name": "token",
              "type": "address"
            },
            {
              "internalType": "uint256",
              "name": "permitAmount",
              "type": "uint256"
            },
            {
              "components": [
                {
                  "internalType": "uint256",
                  "name": "deadline",
                  "type": "uint256"
                },
                {
                  "internalType": "uint8",
                  "name": "v",
                  "type": "uint8"
                },
                {
                  "internalType": "bytes32",
                  "name": "r",
                  "type": "bytes32"
                },
                {
                  "internalType": "bytes32",
                  "name": "s",
                  "type": "bytes32"
                }
              ],
              "internalType": "struct IController.PermitSignature",
              "name": "signature",
              "type": "tuple"
            }
          ],
          "internalType": "struct IController.ERC20PermitParams[]",
          "name": "permitParamsList",
          "type": "tuple[]"
        },
        {
          "internalType": "uint64",
          "name": "deadline",
          "type": "uint64"
        }
      ],
      "name": "make",
      "outputs": [
        {
          "internalType": "OrderId[]",
          "name": "ids",
          "type": "uint256[]"
        }
      ],
      "stateMutability": "payable",
      "type": "function"
    },
    {
      "inputs": [
        {
          "components": [
            {
              "components": [
                {
                  "internalType": "Currency",
                  "name": "base",
                  "type": "address"
                },
                {
                  "internalType": "uint64",
                  "name": "unitSize",
                  "type": "uint64"
                },
                {
                  "internalType": "Currency",
                  "name": "quote",
                  "type": "address"
                },
                {
                  "internalType": "FeePolicy",
                  "name": "makerPolicy",
                  "type": "uint24"
                },
                {
                  "internalType": "contract IHooks",
                  "name": "hooks",
                  "type": "address"
                },
                {
                  "internalType": "FeePolicy",
                  "name": "takerPolicy",
                  "type": "uint24"
                }
              ],
              "internalType": "struct IBookManager.BookKey",
              "name": "key",
              "type": "tuple"
            },
            {
              "internalType": "bytes",
              "name": "hookData",
              "type": "bytes"
            }
          ],
          "internalType": "struct IController.OpenBookParams[]",
          "name": "openBookParamsList",
          "type": "tuple[]"
        },
        {
          "internalType": "uint64",
          "name": "deadline",
          "type": "uint64"
        }
      ],
      "name": "open",
      "outputs": [],
      "stateMutability": "nonpayable",
      "type": "function"
    },
    {
      "inputs": [
        {
          "components": [
            {
              "internalType": "BookId",
              "name": "id",
              "type": "uint192"
            },
            {
              "internalType": "uint256",
              "name": "limitPrice",
              "type": "uint256"
            },
            {
              "internalType": "uint256",
              "name": "baseAmount",
              "type": "uint256"
            },
            {
              "internalType": "uint256",
              "name": "minQuoteAmount",
              "type": "uint256"
            },
            {
              "internalType": "bytes",
              "name": "hookData",
              "type": "bytes"
            }
          ],
          "internalType": "struct IController.SpendOrderParams[]",
          "name": "orderParamsList",
          "type": "tuple[]"
        },
        {
          "internalType": "address[]",
          "name": "tokensToSettle",
          "type": "address[]"
        },
        {
          "components": [
            {
              "internalType": "address",
              "name": "token",
              "type": "address"
            },
            {
              "internalType": "uint256",
              "name": "permitAmount",
              "type": "uint256"
            },
            {
              "components": [
                {
                  "internalType": "uint256",
                  "name": "deadline",
                  "type": "uint256"
                },
                {
                  "internalType": "uint8",
                  "name": "v",
                  "type": "uint8"
                },
                {
                  "internalType": "bytes32",
                  "name": "r",
                  "type": "bytes32"
                },
                {
                  "internalType": "bytes32",
                  "name": "s",
                  "type": "bytes32"
                }
              ],
              "internalType": "struct IController.PermitSignature",
              "name": "signature",
              "type": "tuple"
            }
          ],
          "internalType": "struct IController.ERC20PermitParams[]",
          "name": "permitParamsList",
          "type": "tuple[]"
        },
        {
          "internalType": "uint64",
          "name": "deadline",
          "type": "uint64"
        }
      ],
      "name": "spend",
      "outputs": [],
      "stateMutability": "payable",
      "type": "function"
    },
    {
      "inputs": [
        {
          "components": [
            {
              "internalType": "BookId",
              "name": "id",
              "type": "uint192"
            },
            {
              "internalType": "uint256",
              "name": "limitPrice",
              "type": "uint256"
            },
            {
              "internalType": "uint256",
              "name": "quoteAmount",
              "type": "uint256"
            },
            {
              "internalType": "uint256",
              "name": "maxBaseAmount",
              "type": "uint256"
            },
            {
              "internalType": "bytes",
              "name": "hookData",
              "type": "bytes"
            }
          ],
          "internalType": "struct IController.TakeOrderParams[]",
          "name": "orderParamsList",
          "type": "tuple[]"
        },
        {
          "internalType": "address[]",
          "name": "tokensToSettle",
          "type": "address[]"
        },
        {
          "components": [
            {
              "internalType": "address",
              "name": "token",
              "type": "address"
            },
            {
              "internalType": "uint256",
              "name": "permitAmount",
              "type": "uint256"
            },
            {
              "components": [
                {
                  "internalType": "uint256",
                  "name": "deadline",
                  "type": "uint256"
                },
                {
                  "internalType": "uint8",
                  "name": "v",
                  "type": "uint8"
                },
                {
                  "internalType": "bytes32",
                  "name": "r",
                  "type": "bytes32"
                },
                {
                  "internalType": "bytes32",
                  "name": "s",
                  "type": "bytes32"
                }
              ],
              "internalType": "struct IController.PermitSignature",
              "name": "signature",
              "type": "tuple"
            }
          ],
          "internalType": "struct IController.ERC20PermitParams[]",
          "name": "permitParamsList",
          "type": "tuple[]"
        },
        {
          "internalType": "uint64",
          "name": "deadline",
          "type": "uint64"
        }
      ],
      "name": "take",
      "outputs": [],
      "stateMutability": "payable",
      "type": "function"
    },
    {
      "inputs": [
        {
          "internalType": "Tick",
          "name": "tick",
          "type": "int24"
        }
      ],
      "name": "toPrice",
      "outputs": [
        {
          "internalType": "uint256",
          "name": "",
          "type": "uint256"
        }
      ],
      "stateMutability": "pure",
      "type": "function"
    },
    {
      "stateMutability": "payable",
      "type": "receive"
    }
  ],
  "transactionHash": "0x7f0274b77e31a7a35d5f4100c97c3c37c85cddc350eb55ad4e2ba05ec02e5bcc",
  "args": [
    "0xBe84BD49aAf710Cc11FA9675c79D107af8552f17"
  ],
  "numDeployments": 1,
  "solcInputHash": "96ce17356cc9352388fa5de4fcce2f50",
  "bytecode": "0x60a0604052348015600e575f80fd5b506040516158c13803806158c1833981016040819052602b91603b565b6001600160a01b03166080526066565b5f60208284031215604a575f80fd5b81516001600160a01b0381168114605f575f80fd5b9392505050565b60805161573261018f5f395f818161019a015281816104ea01528181610751015281816107f0015281816109d401528181610cc301528181610d5401528181610e1e01528181610f79015281816111e6015281816115a30152818161196e01528181611a3101528181611d0a01528181611d9201528181611e720152818161203c015281816120df0152818161217a015281816122e0015281816123e40152818161247d0152818161251f015281816126950152818161279c0152818161285b015281816128fc0152818161297601528181612a3201528181612b2d01528181612ba501528181612bfd01528181612c8e01528181612d4801528181612df201528181612e6d01528181612ee701528181612f7801528181612fed01526135e801526157325ff3fe6080604052600436106100e7575f3560e01c80635083585811610087578063a183a10411610057578063a183a10414610295578063b305b94c146102b4578063c0e8e89a146102c7578063d09ef241146102da575f80fd5b806350835858146102255780637658ab05146102445780638feb85b714610257578063a04c796b14610276575f80fd5b80631ae45a12116100c25780631ae45a121461015c5780633f322bc91461018957806341a8bb88146101d4578063483f9f2f146101f3575f80fd5b806308b2c1d8146100f257806309ae2c131461011b57806315c7afb414610130575f80fd5b366100ee57005b5f80fd5b610105610100366004613e65565b610323565b6040516101129190613f0a565b60405180910390f35b61012e610129366004613e65565b61058e565b005b34801561013b575f80fd5b5061014f61014a366004614065565b6107db565b604051610112919061411f565b348015610167575f80fd5b5061017b610176366004614150565b610c97565b604051908152602001610112565b348015610194575f80fd5b506101bc7f000000000000000000000000000000000000000000000000000000000000000081565b6040516001600160a01b039091168152602001610112565b3480156101df575f80fd5b5061017b6101ee366004614184565b610d34565b3480156101fe575f80fd5b5061021261020d3660046141bb565b610ea1565b60405160029190910b8152602001610112565b348015610230575f80fd5b5061017b61023f3660046141d2565b610eab565b61010561025236600461422d565b610eb8565b348015610262575f80fd5b5061012e610271366004614321565b611025565b348015610281575f80fd5b5061012e610290366004614321565b61126e565b3480156102a0575f80fd5b5061012e6102af3660046143a2565b6113ed565b6101056102c2366004613e65565b611628565b61012e6102d5366004613e65565b6117ab565b3480156102e5575f80fd5b506102f96102f43660046141bb565b61192c565b604080516001600160a01b0390951685526020850193909352918301526060820152608001610112565b606081806001600160401b03164211156103505760405163637910d560e11b815260040160405180910390fd5b848461035c8282611b4d565b895f816001600160401b0381111561037657610376613f6c565b60405190808252806020026020018201604052801561039f578160200160208202803683370190505b5090505f826001600160401b038111156103bb576103bb613f6c565b6040519080825280602002602001820160405280156103ee57816020015b60608152602001906001900390816103d95790505b5090505f5b838110156104a657600283828151811061040f5761040f6143f4565b6020026020010190600681111561042857610428614408565b9081600681111561043b5761043b614408565b9052508e8e82818110610450576104506143f4565b9050602002810190610462919061441c565b60405160200161047291906144a3565b604051602081830303815290604052828281518110610493576104936143f4565b60209081029190910101526001016103f3565b505f3383838f8f6040516020016104c195949392919061467b565b60408051601f19818403018152908290526313942f3360e31b825291505f906001600160a01b037f00000000000000000000000000000000000000000000000000000000000000001690639ca179989061052190309086906004016146c3565b5f604051808303815f875af115801561053c573d5f803e3d5ffd5b505050506040513d5f823e601f3d908101601f191682016040526105639190810190614731565b9050808060200190518101906105799190614784565b98505050505050505050979650505050505050565b80806001600160401b03164211156105b95760405163637910d560e11b815260040160405180910390fd5b83836105c58282611b4d565b885f816001600160401b038111156105df576105df613f6c565b604051908082528060200260200182016040528015610608578160200160208202803683370190505b5090505f826001600160401b0381111561062457610624613f6c565b60405190808252806020026020018201604052801561065757816020015b60608152602001906001900390816106425790505b5090505f5b8381101561070f576003838281518110610678576106786143f4565b6020026020010190600681111561069157610691614408565b908160068111156106a4576106a4614408565b9052508d8d828181106106b9576106b96143f4565b90506020028101906106cb9190614804565b6040516020016106db919061487a565b6040516020818303038152906040528282815181106106fc576106fc6143f4565b602090810291909101015260010161065c565b505f3383838e8e60405160200161072a95949392919061467b565b60408051601f19818403018152908290526313942f3360e31b825291506001600160a01b037f00000000000000000000000000000000000000000000000000000000000000001690639ca179989061078890309085906004016146c3565b5f604051808303815f875af11580156107a3573d5f803e3d5ffd5b505050506040513d5f823e601f3d908101601f191682016040526107ca9190810190614731565b505050505050505050505050505050565b60606107e5611c54565b336001600160a01b037f00000000000000000000000000000000000000000000000000000000000000001614158061082657506001600160a01b0383163014155b1561085d576040517fc0185c6400000000000000000000000000000000000000000000000000000000815260040160405180910390fd5b5f805f8085806020019051810190610875919061498d565b8251939750919550935091505f816001600160401b0381111561089a5761089a613f6c565b6040519080825280602002602001820160405280156108c3578160200160208202803683370190505b5090505f805b83811015610c52575f8782815181106108e4576108e46143f4565b602002602001015190505f600681111561090057610900614408565b81600681111561091257610912614408565b036109515761094c87838151811061092c5761092c6143f4565b60200260200101518060200190518101906109479190614b40565b611cd3565b610c49565b600181600681111561096557610965614408565b03610a5d575f6109a0888481518110610980576109806143f4565b602002602001015180602001905181019061099b9190614bcf565b611d6d565b90508015610a57576040516323b872dd60e01b81523060048201526001600160a01b038b81166024830152604482018390527f000000000000000000000000000000000000000000000000000000000000000016906323b872dd906064015f604051808303815f87803b158015610a15575f80fd5b505af1158015610a27573d5f803e3d5ffd5b5050505080858580610a3890614c8d565b965081518110610a4a57610a4a6143f4565b6020026020010181815250505b50610c49565b6002816006811115610a7157610a71614408565b03610aac575f6109a0888481518110610a8c57610a8c6143f4565b6020026020010151806020019051810190610aa79190614ca5565b611f4a565b6003816006811115610ac057610ac0614408565b03610b0157610afa878381518110610ada57610ada6143f4565b6020026020010151806020019051810190610af59190614dff565b612015565b5050610c49565b6004816006811115610b1557610b15614408565b03610b4f57610afa878381518110610b2f57610b2f6143f4565b6020026020010151806020019051810190610b4a9190614dff565b6123b3565b6005816006811115610b6357610b63614408565b03610bb3575f878381518110610b7b57610b7b6143f4565b6020026020010151806020019051810190610b969190614e30565b9050610ba5815f01518b612769565b15610a5757610a57816128c5565b6006816006811115610bc757610bc7614408565b03610c17575f878381518110610bdf57610bdf6143f4565b6020026020010151806020019051810190610bfa9190614e86565b9050610c09815f01518b612769565b15610a5757610a5781612973565b6040517f4a7f394f00000000000000000000000000000000000000000000000000000000815260040160405180910390fd5b506001016108c9565b50610c5d8785612b05565b80825281604051602001610c719190613f0a565b604051602081830303815290604052975050505050505050610c9161320e565b92915050565b60405163cdc92f2d60e01b81526001600160c01b03821660048201525f90610c91906001600160a01b037f0000000000000000000000000000000000000000000000000000000000000000169063cdc92f2d90602401602060405180830381865afa158015610d08573d5f803e3d5ffd5b505050506040513d601f19601f82011682018060405250810190610d2c9190614f01565b60020b613233565b604051639b22917d60e01b81526001600160c01b03831660048201525f907f00000000000000000000000000000000000000000000000000000000000000006001600160a01b031690639b22917d9060240160c060405180830381865afa158015610da1573d5f803e3d5ffd5b505050506040513d601f19601f82011682018060405250810190610dc59190614f1c565b602001516040517f41a8bb880000000000000000000000000000000000000000000000000000000081526001600160c01b0385166004820152600284900b60248201526001600160401b03909116906001600160a01b037f000000000000000000000000000000000000000000000000000000000000000016906341a8bb8890604401602060405180830381865afa158015610e63573d5f803e3d5ffd5b505050506040513d601f19601f82011682018060405250810190610e879190614f36565b6001600160401b0316610e9a9190614f51565b9392505050565b5f610c91826134f1565b5f610c918260020b613233565b606081806001600160401b0316421115610ee55760405163637910d560e11b815260040160405180910390fd5b8b8a14610f1e576040517f947d5a8400000000000000000000000000000000000000000000000000000000815260040160405180910390fd5b610f288787611b4d565b610f3285856135a6565b5f338e8e8e8e8e8e604051602001610f509796959493929190614f68565b60408051601f19818403018152908290526313942f3360e31b825291505f906001600160a01b037f00000000000000000000000000000000000000000000000000000000000000001690639ca1799890610fb090309086906004016146c3565b5f604051808303815f875af1158015610fcb573d5f803e3d5ffd5b505050506040513d5f823e601f3d908101601f19168201604052610ff29190810190614731565b905080515f1461101357808060200190518101906110109190614784565b93505b5050509b9a5050505050505050505050565b80806001600160401b03164211156110505760405163637910d560e11b815260040160405180910390fd5b61105a84846135a6565b865f816001600160401b0381111561107457611074613f6c565b60405190808252806020026020018201604052801561109d578160200160208202803683370190505b5090505f826001600160401b038111156110b9576110b9613f6c565b6040519080825280602002602001820160405280156110ec57816020015b60608152602001906001900390816110d75790505b5090505f5b838110156111a457600583828151811061110d5761110d6143f4565b6020026020010190600681111561112657611126614408565b9081600681111561113957611139614408565b9052508b8b8281811061114e5761114e6143f4565b90506020028101906111609190615037565b604051602001611170919061504b565b604051602081830303815290604052828281518110611191576111916143f4565b60209081029190910101526001016110f1565b505f3383838c8c6040516020016111bf95949392919061467b565b60408051601f19818403018152908290526313942f3360e31b825291506001600160a01b037f00000000000000000000000000000000000000000000000000000000000000001690639ca179989061121d90309085906004016146c3565b5f604051808303815f875af1158015611238573d5f803e3d5ffd5b505050506040513d5f823e601f3d908101601f1916820160405261125f9190810190614731565b50505050505050505050505050565b80806001600160401b03164211156112995760405163637910d560e11b815260040160405180910390fd5b6112a384846135a6565b865f816001600160401b038111156112bd576112bd613f6c565b6040519080825280602002602001820160405280156112e6578160200160208202803683370190505b5090505f826001600160401b0381111561130257611302613f6c565b60405190808252806020026020018201604052801561133557816020015b60608152602001906001900390816113205790505b5090505f5b838110156111a4576006838281518110611356576113566143f4565b6020026020010190600681111561136f5761136f614408565b9081600681111561138257611382614408565b9052508b8b82818110611397576113976143f4565b90506020028101906113a99190615078565b6040516020016113b9919061508c565b6040516020818303038152906040528282815181106113da576113da6143f4565b602090810291909101015260010161133a565b80806001600160401b03164211156114185760405163637910d560e11b815260040160405180910390fd5b825f816001600160401b0381111561143257611432613f6c565b60405190808252806020026020018201604052801561145b578160200160208202803683370190505b5090505f826001600160401b0381111561147757611477613f6c565b6040519080825280602002602001820160405280156114aa57816020015b60608152602001906001900390816114955790505b5090505f5b83811015611561575f8382815181106114ca576114ca6143f4565b602002602001019060068111156114e3576114e3614408565b908160068111156114f6576114f6614408565b90525087878281811061150b5761150b6143f4565b905060200281019061151d91906150c3565b60405160200161152d91906150e2565b60405160208183030381529060405282828151811061154e5761154e6143f4565b60209081029190910101526001016114af565b5060605f3384848460405160200161157c94939291906151a9565b60408051601f19818403018152908290526313942f3360e31b825291506001600160a01b037f00000000000000000000000000000000000000000000000000000000000000001690639ca17998906115da90309085906004016146c3565b5f604051808303815f875af11580156115f5573d5f803e3d5ffd5b505050506040513d5f823e601f3d908101601f1916820160405261161c9190810190614731565b50505050505050505050565b606081806001600160401b03164211156116555760405163637910d560e11b815260040160405180910390fd5b84846116618282611b4d565b895f816001600160401b0381111561167b5761167b613f6c565b6040519080825280602002602001820160405280156116a4578160200160208202803683370190505b5090505f826001600160401b038111156116c0576116c0613f6c565b6040519080825280602002602001820160405280156116f357816020015b60608152602001906001900390816116de5790505b5090505f5b838110156104a6576001838281518110611714576117146143f4565b6020026020010190600681111561172d5761172d614408565b9081600681111561174057611740614408565b9052508e8e82818110611755576117556143f4565b90506020028101906117679190614804565b6040516020016117779190615227565b604051602081830303815290604052828281518110611798576117986143f4565b60209081029190910101526001016116f8565b80806001600160401b03164211156117d65760405163637910d560e11b815260040160405180910390fd5b83836117e28282611b4d565b885f816001600160401b038111156117fc576117fc613f6c565b604051908082528060200260200182016040528015611825578160200160208202803683370190505b5090505f826001600160401b0381111561184157611841613f6c565b60405190808252806020026020018201604052801561187457816020015b606081526020019060019003908161185f5790505b5090505f5b8381101561070f576004838281518110611895576118956143f4565b602002602001019060068111156118ae576118ae614408565b908160068111156118c1576118c1614408565b9052508d8d828181106118d6576118d66143f4565b90506020028101906118e89190614804565b6040516020016118f8919061487a565b604051602081830303815290604052828281518110611919576119196143f4565b6020908102919091010152600101611879565b5f8080808080604087901c62ffffff602889901c16604051639b22917d60e01b81526001600160c01b038316600482015291935091505f906001600160a01b037f00000000000000000000000000000000000000000000000000000000000000001690639b22917d9060240160c060405180830381865afa1580156119b3573d5f803e3d5ffd5b505050506040513d601f19601f820116820180604052508101906119d79190614f1c565b60208101519091506001600160401b03166119f5600284900b613233565b6040517fd09ef241000000000000000000000000000000000000000000000000000000008152600481018b90529097505f906001600160a01b037f0000000000000000000000000000000000000000000000000000000000000000169063d09ef24190602401606060405180830381865afa158015611a76573d5f803e3d5ffd5b505050506040513d601f19601f82011682018060405250810190611a9a91906152a8565b80516020820151909a50909150611aba906001600160401b031683614f51565b6060840151604083015191985090611aeb90611adf906001600160401b031685614f51565b600287900b905f6136d5565b9650611afc8162ffffff1660171c90565b611b40575f611b1162ffffff831689836136ff565b90505f8113611b3257611b23816152fa565b611b2d9089615330565b611b3c565b611b3c8189615343565b9750505b5050505050509193509193565b5f5b81811015611c4f575f838383818110611b6a57611b6a6143f4565b905060c00201803603810190611b8091906153c7565b60408101515190915015611c465780516020808301516040808501518051938101518183015160609092015192517fd505accf0000000000000000000000000000000000000000000000000000000081523360048201523060248201526044810194909452606484019490945260ff909316608483015260a482019290925260c48101919091526001600160a01b039091169063d505accf9060e4015f604051808303815f87803b158015611c33575f80fd5b505af1925050508015611c44575060015b505b50600101611b4f565b505050565b7f8e94fed44239eb2314ab7a406345e6c5a8f0ccedf3b600de3d004e672c33abf45c15611cad576040517f3ee5aeb500000000000000000000000000000000000000000000000000000000815260040160405180910390fd5b60017f8e94fed44239eb2314ab7a406345e6c5a8f0ccedf3b600de3d004e672c33abf45d565b805160208201516040517ffefc7c510000000000000000000000000000000000000000000000000000000081526001600160a01b037f0000000000000000000000000000000000000000000000000000000000000000169263fefc7c5192611d3d92600401615403565b5f604051808303815f87803b158015611d54575f80fd5b505af1158015611d66573d5f803e3d5ffd5b5050505050565b8051604051639b22917d60e01b81526001600160c01b0390911660048201525f9081907f00000000000000000000000000000000000000000000000000000000000000006001600160a01b031690639b22917d9060240160c060405180830381865afa158015611ddf573d5f803e3d5ffd5b505050506040513d601f19601f82011682018060405250810190611e039190614f1c565b90505f83604001519050611e20826060015162ffffff1660171c90565b15611e3d576060820151611e3a9062ffffff16825f61377f565b90505b5f611e5f83602001516001600160401b031683611e5a919061548e565b6137cc565b90506001600160401b03811615611f42577f00000000000000000000000000000000000000000000000000000000000000006001600160a01b0316631dbef4886040518060800160405280868152602001886020015160020b8152602001846001600160401b0316815260200188606001516001600160a01b031681525087608001516040518363ffffffff1660e01b8152600401611eff9291906154ad565b60408051808303815f875af1158015611f1a573d5f803e3d5ffd5b505050506040513d601f19601f82011682018060405250810190611f3e919061555b565b5093505b505050919050565b5f805f611f946040518060a00160405280865f01516001600160c01b0316815260200186604001518152602001866080015181526020015f81526020018660c001518152506123b3565b915091508084608001818151611faa9190615343565b905250811561200e5761200b6040518060a0016040528086602001516001600160c01b03168152602001866060015160020b8152602001866080015181526020018660a001516001600160a01b031681526020018660e00151815250611d6d565b92505b5050919050565b8051604051639b22917d60e01b81526001600160c01b0390911660048201525f90819081907f00000000000000000000000000000000000000000000000000000000000000006001600160a01b031690639b22917d9060240160c060405180830381865afa158015612089573d5f803e3d5ffd5b505050506040513d601f19601f820116820180604052508101906120ad9190614f1c565b90505b8284604001511180156121525750835160405163fcc8fc9b60e01b81526001600160c01b0390911660048201527f00000000000000000000000000000000000000000000000000000000000000006001600160a01b03169063fcc8fc9b90602401602060405180830381865afa15801561212c573d5f803e3d5ffd5b505050506040513d601f19601f82011682018060405250810190612150919061557d565b155b1561238857835160405163cdc92f2d60e01b81526001600160c01b0390911660048201525f907f00000000000000000000000000000000000000000000000000000000000000006001600160a01b03169063cdc92f2d90602401602060405180830381865afa1580156121c7573d5f803e3d5ffd5b505050506040513d601f19601f820116820180604052508101906121eb9190614f01565b90506121f98160020b613233565b8560200151111561220a5750612388565b5f61221e8360a0015162ffffff1660171c90565b1561224f576122488587604001510360018560a0015162ffffff1661377f9092919063ffffffff16565b9050612259565b8486604001510390505b60208301516001600160401b03168082049082061515600116019050805f03612283575050612388565b6001600160401b0381111561229c57506001600160401b035b60408051606081018252848152600284900b60208201526001600160401b03831681830152608088015191516303b9500b60e41b81525f9283926001600160a01b037f00000000000000000000000000000000000000000000000000000000000000001692633b9500b092612314929160040161559c565b60408051808303815f875af115801561232f573d5f803e3d5ffd5b505050506040513d601f19601f82011682018060405250810190612353919061555b565b91509150815f036123675750505050612388565b6123718288615330565b965061237d8187615330565b9550505050506120b0565b81846060015110156123ad57604051630f271b5560e41b815260040160405180910390fd5b50915091565b8051604051639b22917d60e01b81526001600160c01b0390911660048201525f908190819081906001600160a01b037f00000000000000000000000000000000000000000000000000000000000000001690639b22917d9060240160c060405180830381865afa158015612429573d5f803e3d5ffd5b505050506040513d601f19601f8201168201806040525081019061244d9190614f1c565b90505b846040015183101561273d57845160405163fcc8fc9b60e01b81526001600160c01b0390911660048201527f00000000000000000000000000000000000000000000000000000000000000006001600160a01b03169063fcc8fc9b90602401602060405180830381865afa1580156124ca573d5f803e3d5ffd5b505050506040513d601f19601f820116820180604052508101906124ee919061557d565b156124fc576001935061273d565b845160405163cdc92f2d60e01b81526001600160c01b0390911660048201525f907f00000000000000000000000000000000000000000000000000000000000000006001600160a01b03169063cdc92f2d90602401602060405180830381865afa15801561256c573d5f803e3d5ffd5b505050506040513d601f19601f820116820180604052508101906125909190614f01565b905061259e8160020b613233565b866020015111156125b357600194505061273d565b5f6125c78360a0015162ffffff1660171c90565b156125da57848760400151039050612601565b6125fe858860400151035f8560a0015162ffffff1661377f9092919063ffffffff16565b90505b60208301516001600160401b031661261e600284900b835f613823565b612628919061548e565b9050805f0361263857505061273d565b6001600160401b0381111561265157506001600160401b035b60408051606081018252848152600284900b60208201526001600160401b03831681830152608089015191516303b9500b60e41b81525f9283926001600160a01b037f00000000000000000000000000000000000000000000000000000000000000001692633b9500b0926126c9929160040161559c565b60408051808303815f875af11580156126e4573d5f803e3d5ffd5b505050506040513d601f19601f82011682018060405250810190612708919061555b565b91509150805f0361271c575050505061273d565b6127268287615330565b95506127328188615330565b965050505050612450565b818560600151111561276257604051630f271b5560e41b815260040160405180910390fd5b5050915091565b6040517f6352211e000000000000000000000000000000000000000000000000000000008152600481018390525f9083907f00000000000000000000000000000000000000000000000000000000000000006001600160a01b031690636352211e90602401602060405180830381865afa925050508015612807575060408051601f3d908101601f1916820190925261280491810190615636565b60015b612814575f915050610c91565b6040517f2f584a6d0000000000000000000000000000000000000000000000000000000081526001600160a01b0382811660048301528581166024830152604482018490527f00000000000000000000000000000000000000000000000000000000000000001690632f584a6d906064015f6040518083038186803b15801561289b575f80fd5b505afa9250505080156128ac575060015b6128ba575f92505050610c91565b600192505050610c91565b805160208201516040517f38926b6d0000000000000000000000000000000000000000000000000000000081526001600160a01b037f000000000000000000000000000000000000000000000000000000000000000016926338926b6d9261292f92600401615651565b6020604051808303815f875af115801561294b573d5f803e3d5ffd5b505050506040513d601f19601f8201168201806040525081019061296f9190615669565b5050565b5f7f00000000000000000000000000000000000000000000000000000000000000006001600160a01b0316639b22917d6129b0845f015160401c90565b6040517fffffffff0000000000000000000000000000000000000000000000000000000060e084901b1681526001600160c01b03909116600482015260240160c060405180830381865afa158015612a0a573d5f803e3d5ffd5b505050506040513d601f19601f82011682018060405250810190612a2e9190614f1c565b90507f00000000000000000000000000000000000000000000000000000000000000006001600160a01b03166314d6a9eb6040518060400160405280855f01518152602001612a9385602001516001600160401b03168760200151611e5a919061548e565b6001600160401b031681525084604001516040518363ffffffff1660e01b8152600401612ac1929190615680565b6020604051808303815f875af1925050508015612afb575060408051601f3d908101601f19168201909252612af891810190615669565b60015b1561296f57505050565b60405163258473db60e21b81523060048201525f602482018190529081906001600160a01b037f00000000000000000000000000000000000000000000000000000000000000001690639611cf6c90604401602060405180830381865afa158015612b72573d5f803e3d5ffd5b505050506040513d601f19601f82011682018060405250810190612b969190615669565b90505f811215612c6957612bde7f0000000000000000000000000000000000000000000000000000000000000000612bcd836152fa565b6001600160a01b0385169190613865565b604051636a256b2960e01b81526001600160a01b0383811660048301527f00000000000000000000000000000000000000000000000000000000000000001690636a256b29906024016020604051808303815f875af1158015612c43573d5f803e3d5ffd5b505050506040513d601f19601f82011682018060405250810190612c679190615669565b505b60405163258473db60e21b81523060048201526001600160a01b0383811660248301527f00000000000000000000000000000000000000000000000000000000000000001690639611cf6c90604401602060405180830381865afa158015612cd3573d5f803e3d5ffd5b505050506040513d601f19601f82011682018060405250810190612cf79190615669565b90505f811315612da0576040517fd9caed120000000000000000000000000000000000000000000000000000000081526001600160a01b0383811660048301528581166024830152604482018390527f0000000000000000000000000000000000000000000000000000000000000000169063d9caed12906064015f604051808303815f87803b158015612d89575f80fd5b505af1158015612d9b573d5f803e3d5ffd5b505050505b82515f5b818110156131f3575f858281518110612dbf57612dbf6143f4565b602090810291909101015160405163258473db60e21b81523060048201526001600160a01b0380831660248301529192507f000000000000000000000000000000000000000000000000000000000000000090911690639611cf6c90604401602060405180830381865afa158015612e39573d5f803e3d5ffd5b505050506040513d601f19601f82011682018060405250810190612e5d9190615669565b93505f841215612f5357612ec8877f0000000000000000000000000000000000000000000000000000000000000000612e95876152fa565b898681518110612ea757612ea76143f4565b60200260200101516001600160a01b0316613934909392919063ffffffff16565b604051636a256b2960e01b81526001600160a01b0382811660048301527f00000000000000000000000000000000000000000000000000000000000000001690636a256b29906024016020604051808303815f875af1158015612f2d573d5f803e3d5ffd5b505050506040513d601f19601f82011682018060405250810190612f519190615669565b505b60405163258473db60e21b81523060048201526001600160a01b0382811660248301527f00000000000000000000000000000000000000000000000000000000000000001690639611cf6c90604401602060405180830381865afa158015612fbd573d5f803e3d5ffd5b505050506040513d601f19601f82011682018060405250810190612fe19190615669565b93505f8413156130b3577f00000000000000000000000000000000000000000000000000000000000000006001600160a01b031663d9caed1287848151811061302c5761302c6143f4565b60209081029190910101516040517fffffffff0000000000000000000000000000000000000000000000000000000060e084901b1681526001600160a01b039182166004820152908a166024820152604481018790526064015f604051808303815f87803b15801561309c575f80fd5b505af11580156130ae573d5f803e3d5ffd5b505050505b5f8683815181106130c6576130c66143f4565b60209081029190910101516040517f70a082310000000000000000000000000000000000000000000000000000000081523060048201526001600160a01b03909116906370a0823190602401602060405180830381865afa15801561312d573d5f803e3d5ffd5b505050506040513d601f19601f820116820180604052508101906131519190615669565b905080156131e95786838151811061316b5761316b6143f4565b602090810291909101015160405163a9059cbb60e01b81526001600160a01b038a81166004830152602482018490529091169063a9059cbb906044016020604051808303815f875af11580156131c3573d5f803e3d5ffd5b505050506040513d601f19601f820116820180604052508101906131e7919061557d565b505b5050600101612da4565b504715611d6657611d666001600160a01b0384168647613865565b5f7f8e94fed44239eb2314ab7a406345e6c5a8f0ccedf3b600de3d004e672c33abf45d565b5f61323d826139a3565b815f600282900b81136132505781613259565b613259826156ac565b62ffffff811691506001161561327d576bfff97272373d413259a46990925061328e565b6c0100000000000000000000000092505b60028116156132ad5760606bfff2e50f5f656932ef12357c8402901c92505b60048116156132cc5760606bffe5caca7e10e4e61c3624ea8402901c92505b60088116156132eb5760606bffcb9843d60f6159c9db58838402901c92505b601081161561330a5760606bff973b41fa98c081472e68968402901c92505b60208116156133295760606bff2ea16466c96a3843ec78b38402901c92505b60408116156133485760606bfe5dee046a99a2a811c461f18402901c92505b60808116156133675760606bfcbe86c7900a88aedcffc83b8402901c92505b6101008116156133875760606bf987a7253ac413176f2b074c8402901c92505b6102008116156133a75760606bf3392b0822b70005940c7a398402901c92505b6104008116156133c75760606be7159475a2c29b7443b29c7f8402901c92505b6108008116156133e75760606bd097f3bdfd2022b8845ad8f78402901c92505b6110008116156134075760606ba9f746462d870fdf8a65dc1f8402901c92505b6120008116156134275760606b70d869a156d2a1b890bb3df68402901c92505b6140008116156134475760606b31be135f97d08fd9812315058402901c92505b6180008116156134675760606b09aa508b5b7a84e1c677de548402901c92505b620100008116156134875760606a5d6af8dedb81196699c3298402901c92505b620200008116156134a6576060692216e584f5fa1ea926048402901c92505b620400008116156134c357606067048a170391f7dc428402901c92505b5f8260020b131561200e5761200b83780100000000000000000000000000000000000000000000000061548e565b5f81750c6c1313451aab317fb9b67e11777e9a5a6ccdb2ebae811180613519575062149bbb81105b1561354f576040517ebfc92100000000000000000000000000000000000000000000000000000000815260040160405180910390fd5b5f70010000000000000000000000000000000061356b85613a02565b6527107fff743402816135805761358061547a565b0590508361358d82613233565b111561359d575f190191506135a0565b91505b50919050565b5f5b81811015611c4f575f8383838181106135c3576135c36143f4565b905060a002016020018036038101906135dc91906156cc565b8051909150156136cc577f00000000000000000000000000000000000000000000000000000000000000006001600160a01b0316637ac2ff7b30868686818110613628576136286143f4565b865160208801516040808a015160608b015191517fffffffff0000000000000000000000000000000000000000000000000000000060e08b901b1681526001600160a01b03909816600489015260a090940295909501356024870152604486019190915260ff16606485015260848401525060a482015260c4015f604051808303815f87803b1580156136b9575f80fd5b505af19250505080156136ca575060015b505b506001016135a8565b5f6136f7606084901b6136ea8660020b613233565b8082061515851691040190565b949350505050565b5f6207a11f19627fffff851601600281900b8212828161372157825f03613723565b825b62ffffff1690505f61375c6137388389614f51565b620f42408861374e578581830615151691040190565b808206151586151691040190565b9050826137715761376c816152fa565b613773565b805b98975050505050505050565b5f6207a11f19627fffff85160181831561379957815f0391505b81620f42400190506137c2620f4240866137b39190614f51565b82810615158616908390040190565b9695505050505050565b5f6001600160401b0382111561381f57604080517f6dfcc6500000000000000000000000000000000000000000000000000000000081526004810191909152602481018390526044015b60405180910390fd5b5090565b5f6136f76138338560020b613233565b61383d9085614f51565b6bffffffffffffffffffffffff8116151584166c010000000000000000000000009091040190565b5f6001600160a01b0384166138ba575f805f8085875af19050806138b5576040517ff4b3b1bc00000000000000000000000000000000000000000000000000000000815260040160405180910390fd5b61392e565b60405163a9059cbb60e01b81526001600160a01b038416600482015282602482015260205f6044835f895af13d15601f3d1160015f51141617169150508061392e576040517ff27f64e400000000000000000000000000000000000000000000000000000000815260040160405180910390fd5b50505050565b604080516001600160a01b0385811660248301528416604482015260648082018490528251808303909101815260849091019091526020810180517bffffffffffffffffffffffffffffffffffffffffffffffffffffffff166323b872dd60e01b17905261392e908590613c1b565b6207ffff600282900b13806139c857506139bf6207ffff6156ac565b60020b8160020b125b156139ff576040517fce8ef7fc00000000000000000000000000000000000000000000000000000000815260040160405180910390fd5b50565b6fffffffffffffffffffffffffffffffff811160071b81811c6001600160401b031060061b1781811c63ffffffff1060051b1781811c61ffff1060041b1781811c60ff1060031b175f8213613a5e57631615e6385f526004601cfd5b7103782dace9d90000000000000000000000007ff8f9f9faf9fdfafbf9fdfcfdfafbfcfef9fafdfafcfcfbfefafafcfbffffffff6f8421084210842108cc6318c6db6d54be84841c1c601f161a90911891821b609f90811c6c465772b2bbbb5f824b15207a3081018102606090811d6d0388eaa27412d5aca026815d636e018202811d6d0df99ac502031bf953eff472fdcc018202811d6d13cdffb29d51d99322bdff5f2211018202811d6d0a0f742023def783a307a986912e018202811d6d01920d8043ca89b5239253284e42018202811d6c0b7a86d7375468fac667a0a527016c29508e458543d8aa4df2abee7883018302821d6d0139601a2efabe717e604cbb4894018302821d6d02247f7a7b6594320649aa03aba1018302821d6c8c3f38e95a6b1ff2ab1c3b343619018302821d6d02384773bdf1ac5676facced60901901830290911d6cb9a025d814b29c212b8b1a07cd19019091027ffffffffffffffff5f6af8f7b3396644f18e157960000000000000000000000000105711340daa0d5f769dba1915cef59f0815a5506029290037d0267a36c0c95b3975ab3ee5b203a7614a3f75373f047d803ae7b6687f2b302919091010590565b5f613c2f6001600160a01b03841683613c95565b905080515f14158015613c53575080806020019051810190613c51919061557d565b155b15611c4f576040517f5274afe70000000000000000000000000000000000000000000000000000000081526001600160a01b0384166004820152602401613816565b6060610e9a83835f845f80856001600160a01b03168486604051613cb991906156e6565b5f6040518083038185875af1925050503d805f8114613cf3576040519150601f19603f3d011682016040523d82523d5f602084013e613cf8565b606091505b50915091506137c2868383606082613d1857613d1382613d78565b610e9a565b8151158015613d2f57506001600160a01b0384163b155b15613d71576040517f9996b3150000000000000000000000000000000000000000000000000000000081526001600160a01b0385166004820152602401613816565b5080610e9a565b805115613d885780518082602001fd5b6040517fd6bda27500000000000000000000000000000000000000000000000000000000815260040160405180910390fd5b5f8083601f840112613dca575f80fd5b5081356001600160401b03811115613de0575f80fd5b6020830191508360208260051b8501011115613dfa575f80fd5b9250929050565b5f8083601f840112613e11575f80fd5b5081356001600160401b03811115613e27575f80fd5b60208301915083602060c083028501011115613dfa575f80fd5b6001600160401b03811681146139ff575f80fd5b8035613e6081613e41565b919050565b5f805f805f805f6080888a031215613e7b575f80fd5b87356001600160401b0380821115613e91575f80fd5b613e9d8b838c01613dba565b909950975060208a0135915080821115613eb5575f80fd5b613ec18b838c01613dba565b909750955060408a0135915080821115613ed9575f80fd5b50613ee68a828b01613e01565b9094509250506060880135613efa81613e41565b8091505092959891949750929550565b602080825282518282018190525f9190848201906040850190845b81811015613f4157835183529284019291840191600101613f25565b50909695505050505050565b6001600160a01b03811681146139ff575f80fd5b8035613e6081613f4d565b634e487b7160e01b5f52604160045260245ffd5b604080519081016001600160401b0381118282101715613fa257613fa2613f6c565b60405290565b60405160a081016001600160401b0381118282101715613fa257613fa2613f6c565b60405161010081016001600160401b0381118282101715613fa257613fa2613f6c565b604051606081016001600160401b0381118282101715613fa257613fa2613f6c565b604051601f8201601f191681016001600160401b038111828210171561403757614037613f6c565b604052919050565b5f6001600160401b0382111561405757614057613f6c565b50601f01601f191660200190565b5f8060408385031215614076575f80fd5b823561408181613f4d565b915060208301356001600160401b0381111561409b575f80fd5b8301601f810185136140ab575f80fd5b80356140be6140b98261403f565b61400f565b8181528660208385010111156140d2575f80fd5b816020840160208301375f602083830101528093505050509250929050565b5f81518084528060208401602086015e5f602082860101526020601f19601f83011685010191505092915050565b602081525f610e9a60208301846140f1565b6001600160c01b03811681146139ff575f80fd5b8035613e6081614131565b5f60208284031215614160575f80fd5b8135610e9a81614131565b8060020b81146139ff575f80fd5b8035613e608161416b565b5f8060408385031215614195575f80fd5b82356141a081614131565b915060208301356141b08161416b565b809150509250929050565b5f602082840312156141cb575f80fd5b5035919050565b5f602082840312156141e2575f80fd5b8135610e9a8161416b565b5f8083601f8401126141fd575f80fd5b5081356001600160401b03811115614213575f80fd5b60208301915083602060a083028501011115613dfa575f80fd5b5f805f805f805f805f805f60c08c8e031215614247575f80fd5b6001600160401b03808d35111561425c575f80fd5b6142698e8e358f01613dba565b909c509a5060208d013581101561427e575f80fd5b61428e8e60208f01358f01613dba565b909a50985060408d01358110156142a3575f80fd5b6142b38e60408f01358f01613dba565b909850965060608d01358110156142c8575f80fd5b6142d88e60608f01358f01613e01565b909650945060808d01358110156142ed575f80fd5b506142fe8d60808e01358e016141ed565b909350915061430f60a08d01613e55565b90509295989b509295989b9093969950565b5f805f805f805f6080888a031215614337575f80fd5b87356001600160401b038082111561434d575f80fd5b6143598b838c01613dba565b909950975060208a0135915080821115614371575f80fd5b61437d8b838c01613dba565b909750955060408a0135915080821115614395575f80fd5b50613ee68a828b016141ed565b5f805f604084860312156143b4575f80fd5b83356001600160401b038111156143c9575f80fd5b6143d586828701613dba565b90945092505060208401356143e981613e41565b809150509250925092565b634e487b7160e01b5f52603260045260245ffd5b634e487b7160e01b5f52602160045260245ffd5b5f823560fe19833603018112614430575f80fd5b9190910192915050565b5f808335601e1984360301811261444f575f80fd5b83016020810192503590506001600160401b0381111561446d575f80fd5b803603821315613dfa575f80fd5b81835281816020850137505f828201602090810191909152601f909101601f19169091010190565b602081525f82356144b381614131565b6001600160c01b0381166020840152506144cf60208401614145565b6001600160c01b038116604084015250604083013560608301526144f560608401614179565b614504608084018260020b9052565b50608083013560a083015261451b60a08401613f61565b6001600160a01b03811660c08401525061453860c084018461443a565b6101008060e08601526145506101208601838561447b565b925061455f60e087018761443a565b868503601f190183880152925061457784848361447b565b979650505050505050565b5f6007821061459f57634e487b7160e01b5f52602160045260245ffd5b50815260200190565b5f815180845260208085019450602084015f5b838110156145dc576145ce878351614582565b9650908201906001016145bb565b509495945050505050565b5f8282518085526020808601955060208260051b840101602086015f5b8481101561463257601f198684030189526146208383516140f1565b98840198925090830190600101614604565b5090979650505050505050565b8183525f60208085019450825f5b858110156145dc57813561466081613f4d565b6001600160a01b03168752958201959082019060010161464d565b6001600160a01b0386168152608060208201525f61469c60808301876145a8565b82810360408401526146ae81876145e7565b9050828103606084015261377381858761463f565b6001600160a01b0383168152604060208201525f6136f760408301846140f1565b5f82601f8301126146f3575f80fd5b81516147016140b98261403f565b818152846020838601011115614715575f80fd5b8160208501602083015e5f918101602001919091529392505050565b5f60208284031215614741575f80fd5b81516001600160401b03811115614756575f80fd5b6136f7848285016146e4565b5f6001600160401b0382111561477a5761477a613f6c565b5060051b60200190565b5f6020808385031215614795575f80fd5b82516001600160401b038111156147aa575f80fd5b8301601f810185136147ba575f80fd5b80516147c86140b982614762565b81815260059190911b820183019083810190878311156147e6575f80fd5b928401925b82841015614577578351825292840192908401906147eb565b5f8235609e19833603018112614430575f80fd5b5f813561482481614131565b6001600160c01b03811684525060208201356020840152604082013560408401526060820135606084015261485c608083018361443a565b60a0608086015261487160a08601828461447b565b95945050505050565b602081525f610e9a6020830184614818565b600781106139ff575f80fd5b5f82601f8301126148a7575f80fd5b815160206148b76140b983614762565b82815260059290921b840181019181810190868411156148d5575f80fd5b8286015b848110156149125780516001600160401b038111156148f6575f80fd5b6149048986838b01016146e4565b8452509183019183016148d9565b509695505050505050565b8051613e6081613f4d565b5f82601f830112614937575f80fd5b815160206149476140b983614762565b8083825260208201915060208460051b870101935086841115614968575f80fd5b602086015b8481101561491257805161498081613f4d565b835291830191830161496d565b5f805f80608085870312156149a0575f80fd5b84516149ab81613f4d565b809450506020808601516001600160401b03808211156149c9575f80fd5b818801915088601f8301126149dc575f80fd5b81516149ea6140b982614762565b81815260059190911b8301840190848101908b831115614a08575f80fd5b938501935b82851015614a2f578451614a208161488c565b82529385019390850190614a0d565b60408b01519098509450505080831115614a47575f80fd5b614a5389848a01614898565b94506060880151925080831115614a68575f80fd5b5050614a7687828801614928565b91505092959194509250565b62ffffff811681146139ff575f80fd5b5f60c08284031215614aa2575f80fd5b60405160c081018181106001600160401b0382111715614ac457614ac4613f6c565b80604052508091508251614ad781613f4d565b81526020830151614ae781613e41565b60208201526040830151614afa81613f4d565b60408201526060830151614b0d81614a82565b60608201526080830151614b2081613f4d565b608082015260a0830151614b3381614a82565b60a0919091015292915050565b5f60208284031215614b50575f80fd5b81516001600160401b0380821115614b66575f80fd5b9083019060e08286031215614b79575f80fd5b614b81613f80565b614b8b8684614a92565b815260c083015182811115614b9e575f80fd5b614baa878286016146e4565b60208301525095945050505050565b8051613e6081614131565b8051613e608161416b565b5f60208284031215614bdf575f80fd5b81516001600160401b0380821115614bf5575f80fd5b9083019060a08286031215614c08575f80fd5b614c10613fa8565b8251614c1b81614131565b81526020830151614c2b8161416b565b6020820152604083810151908201526060830151614c4881613f4d565b6060820152608083015182811115614c5e575f80fd5b614c6a878286016146e4565b60808301525095945050505050565b634e487b7160e01b5f52601160045260245ffd5b5f60018201614c9e57614c9e614c79565b5060010190565b5f60208284031215614cb5575f80fd5b81516001600160401b0380821115614ccb575f80fd5b908301906101008286031215614cdf575f80fd5b614ce7613fca565b614cf083614bb9565b8152614cfe60208401614bb9565b602082015260408301516040820152614d1960608401614bc4565b606082015260808301516080820152614d3460a0840161491d565b60a082015260c083015182811115614d4a575f80fd5b614d56878286016146e4565b60c08301525060e083015182811115614d6d575f80fd5b614d79878286016146e4565b60e08301525095945050505050565b5f60a08284031215614d98575f80fd5b614da0613fa8565b90508151614dad81614131565b8082525060208201516020820152604082015160408201526060820151606082015260808201516001600160401b03811115614de7575f80fd5b614df3848285016146e4565b60808301525092915050565b5f60208284031215614e0f575f80fd5b81516001600160401b03811115614e24575f80fd5b6136f784828501614d88565b5f60208284031215614e40575f80fd5b81516001600160401b0380821115614e56575f80fd5b9083019060408286031215614e69575f80fd5b614e71613f80565b82518152602083015182811115614b9e575f80fd5b5f60208284031215614e96575f80fd5b81516001600160401b0380821115614eac575f80fd5b9083019060608286031215614ebf575f80fd5b614ec7613fed565b8251815260208301516020820152604083015182811115614ee6575f80fd5b614ef2878286016146e4565b60408301525095945050505050565b5f60208284031215614f11575f80fd5b8151610e9a8161416b565b5f60c08284031215614f2c575f80fd5b610e9a8383614a92565b5f60208284031215614f46575f80fd5b8151610e9a81613e41565b8082028115828204841417610c9157610c91614c79565b6001600160a01b0388168152608060208083018290529082018790525f90889060a08401835b8a811015614fba578335614fa18161488c565b614fab8382614582565b94840194925050600101614f8e565b5084810360408601528781528181019250600588901b81018201895f5b8a81101561501157838303601f19018652614ff2828d61443a565b614ffd85828461447b565b978701979450505090840190600101614fd7565b5050858103606087015261502681888a61463f565b9d9c50505050505050505050505050565b5f8235603e19833603018112614430575f80fd5b60208152813560208201525f615064602084018461443a565b60408085015261487160608501828461447b565b5f8235605e19833603018112614430575f80fd5b6020815281356020820152602082013560408201525f6150af604084018461443a565b60608085015261487160808501828461447b565b5f823560de19833603018112614430575f80fd5b8035613e6081614a82565b602081525f82356150f281613f4d565b6001600160a01b0380821660208501526020850135915061511282613e41565b6001600160401b03821660408501526040850135915061513182613f4d565b1660608381019190915283013561514781614a82565b62ffffff811660808401525061515f60808401613f61565b6001600160a01b03811660a08401525061517b60a084016150d7565b62ffffff811660c08401525061519460c084018461443a565b60e0808501526148716101008501828461447b565b5f6001600160a01b0380871683526020608060208501526151cd60808501886145a8565b84810360408601526151df81886145e7565b8581036060870152865180825260208089019350909101905f5b818110156152175783518616835292840192918401916001016151f9565b50909a9950505050505050505050565b602081525f823561523781614131565b6001600160c01b03811660208401525060208301356152558161416b565b8060020b60408401525060408301356060830152606083013561527781613f4d565b6001600160a01b038116608084015250615294608084018461443a565b60a08085015261487160c08501828461447b565b5f606082840312156152b8575f80fd5b6152c0613fed565b82516152cb81613f4d565b815260208301516152db81613e41565b602082015260408301516152ee81613e41565b60408201529392505050565b5f7f8000000000000000000000000000000000000000000000000000000000000000820361532a5761532a614c79565b505f0390565b80820180821115610c9157610c91614c79565b81810381811115610c9157610c91614c79565b5f60808284031215615366575f80fd5b604051608081018181106001600160401b038211171561538857615388613f6c565b60405282358152905080602083013560ff811681146153a5575f80fd5b8060208301525060408301356040820152606083013560608201525092915050565b5f60c082840312156153d7575f80fd5b6153df613fed565b82356153ea81613f4d565b8152602083810135908201526152ee8460408501615356565b61546581846001600160a01b038082511683526001600160401b036020830151166020840152806040830151166040840152606082015162ffffff80821660608601528260808501511660808601528060a08501511660a08601525050505050565b60e060c08201525f6136f760e08301846140f1565b634e487b7160e01b5f52601260045260245ffd5b5f826154a857634e487b7160e01b5f52601260045260245ffd5b500490565b5f6101406155148386516001600160a01b038082511683526001600160401b036020830151166020840152806040830151166040840152606082015162ffffff80821660608601528260808501511660808601528060a08501511660a08601525050505050565b602085015160020b60c08401526001600160401b0360408601511660e08401526001600160a01b0360608601511661010084015280610120840152614871818401856140f1565b5f806040838503121561556c575f80fd5b505080516020909101519092909150565b5f6020828403121561558d575f80fd5b81518015158114610e9a575f80fd5b5f6101206156038386516001600160a01b038082511683526001600160401b036020830151166020840152806040830151166040840152606082015162ffffff80821660608601528260808501511660808601528060a08501511660a08601525050505050565b602085015160020b60c08401526001600160401b0360408601511660e084015280610100840152614871818401856140f1565b5f60208284031215615646575f80fd5b8151610e9a81613f4d565b828152604060208201525f6136f760408301846140f1565b5f60208284031215615679575f80fd5b5051919050565b825181526001600160401b036020840151166020820152606060408201525f6136f760608301846140f1565b5f8160020b627fffff1981036156c4576156c4614c79565b5f0392915050565b5f608082840312156156dc575f80fd5b610e9a8383615356565b5f82518060208501845e5f92019182525091905056fea2646970667358221220695b7382ae71968185190383baefebda3eb5205067faf3aab5eed2732445c2ed64736f6c63430008190033",
  "devdoc": {
    "errors": {
      "AddressEmptyCode(address)": [
        {
          "details": "There's no code at `target` (it is not a contract)."
        }
      ],
      "FailedCall()": [
        {
          "details": "A call to an address target failed. The target may have reverted."
        }
      ],
      "InsufficientBalance(uint256,uint256)": [
        {
          "details": "The ETH balance of the account is not enough to perform the operation."
        }
      ],
      "SafeCastOverflowedUintDowncast(uint8,uint256)": [
        {
          "details": "Value doesn't fit in an uint of `bits` size."
        }
      ],
      "SafeERC20FailedOperation(address)": [
        {
          "details": "An operation with an ERC-20 token failed."
        }
      ]
    },
    "kind": "dev",
    "methods": {
      "cancel((uint256,uint256,bytes)[],address[],(uint256,(uint256,uint8,bytes32,bytes32))[],uint64)": {
        "details": "IMPORTANT: The caller must provide `tokensToSettle` to receive appropriate tokens after execution.",
        "params": {
          "deadline": "The deadline for the actions",
          "orderParamsList": "The list of actions to cancel",
          "permitParamsList": "The parameters of the permits",
          "tokensToSettle": "The tokens to settle"
        }
      },
      "claim((uint256,bytes)[],address[],(uint256,(uint256,uint8,bytes32,bytes32))[],uint64)": {
        "details": "IMPORTANT: The caller must provide `tokensToSettle` to receive appropriate tokens after execution.",
        "params": {
          "deadline": "The deadline for the actions",
          "orderParamsList": "The list of actions to claim",
          "permitParamsList": "The parameters of the permits",
          "tokensToSettle": "The tokens to settle"
        }
      },
      "execute(uint8[],bytes[],address[],(address,uint256,(uint256,uint8,bytes32,bytes32))[],(uint256,(uint256,uint8,bytes32,bytes32))[],uint64)": {
        "details": "IMPORTANT: The caller must provide `tokensToSettle` to receive appropriate tokens after execution.",
        "params": {
          "actionList": "The list of actions to execute",
          "deadline": "The deadline for the actions",
          "erc20PermitParamsList": "The parameters of the ERC20 permits",
          "erc721PermitParamsList": "The parameters of the ERC721 permits",
          "paramsDataList": "The parameters of the actions",
          "tokensToSettle": "The tokens to settle"
        },
        "returns": {
          "ids": "The ids of the orders"
        }
      },
      "fromPrice(uint256)": {
        "params": {
          "price": "The price to convert"
        },
        "returns": {
          "_0": "The tick"
        }
      },
      "getDepth(uint192,int24)": {
        "params": {
          "id": "The id of the book",
          "tick": "The tick of the book"
        },
        "returns": {
          "_0": "The depth of the book in quote amount"
        }
      },
      "getHighestPrice(uint192)": {
        "params": {
          "id": "The id of the book"
        },
        "returns": {
          "_0": "The highest price of the book with 2**96 precision"
        }
      },
      "getOrder(uint256)": {
        "params": {
          "orderId": "The id of the order"
        },
        "returns": {
          "claimableAmount": "The claimable base amount of the order",
          "openAmount": "The open quote amount of the order",
          "price": "The price of the order with 2**96 precision",
          "provider": "The provider of the order"
        }
      },
      "make((uint192,int24,uint256,address,bytes)[],address[],(address,uint256,(uint256,uint8,bytes32,bytes32))[],uint64)": {
        "details": "IMPORTANT: The caller must provide `tokensToSettle` to receive appropriate tokens after execution.",
        "params": {
          "deadline": "The deadline for the actions",
          "orderParamsList": "The list of actions to make",
          "permitParamsList": "The parameters of the permits",
          "tokensToSettle": "The tokens to settle"
        },
        "returns": {
          "ids": "The ids of the orders"
        }
      },
      "open(((address,uint64,address,uint24,address,uint24),bytes)[],uint64)": {
        "params": {
          "deadline": "The deadline for the action",
          "openBookParamsList": "The parameters of the open book action"
        }
      },
      "spend((uint192,uint256,uint256,uint256,bytes)[],address[],(address,uint256,(uint256,uint8,bytes32,bytes32))[],uint64)": {
        "details": "IMPORTANT: The caller must provide `tokensToSettle` to receive appropriate tokens after execution.",
        "params": {
          "deadline": "The deadline for the actions",
          "orderParamsList": "The list of actions to spend",
          "permitParamsList": "The parameters of the permits",
          "tokensToSettle": "The tokens to settle"
        }
      },
      "take((uint192,uint256,uint256,uint256,bytes)[],address[],(address,uint256,(uint256,uint8,bytes32,bytes32))[],uint64)": {
        "details": "IMPORTANT: The caller must provide `tokensToSettle` to receive appropriate tokens after execution.",
        "params": {
          "deadline": "The deadline for the actions",
          "orderParamsList": "The list of actions to take",
          "permitParamsList": "The parameters of the permits",
          "tokensToSettle": "The tokens to settle"
        }
      },
      "toPrice(int24)": {
        "params": {
          "tick": "The tick to convert"
        },
        "returns": {
          "_0": "The price with 2**96 precision"
        }
      }
    },
    "stateVariables": {
      "bookManager": {
        "return": "The instance of the book manager",
        "returns": {
          "_0": "The instance of the book manager"
        }
      }
    },
    "version": 1
  },
  "userdoc": {
    "errors": {
      "ERC20TransferFailed()": [
        {
          "notice": "Thrown when an ERC20 transfer fails"
        }
      ],
      "NativeTransferFailed()": [
        {
          "notice": "Thrown when a native transfer fails"
        }
      ]
    },
    "kind": "user",
    "methods": {
      "bookManager()": {
        "notice": "Returns the book manager"
      },
      "cancel((uint256,uint256,bytes)[],address[],(uint256,(uint256,uint8,bytes32,bytes32))[],uint64)": {
        "notice": "Cancels a list of orders"
      },
      "claim((uint256,bytes)[],address[],(uint256,(uint256,uint8,bytes32,bytes32))[],uint64)": {
        "notice": "Claims a list of orders"
      },
      "execute(uint8[],bytes[],address[],(address,uint256,(uint256,uint8,bytes32,bytes32))[],(uint256,(uint256,uint8,bytes32,bytes32))[],uint64)": {
        "notice": "Executes a list of actions"
      },
      "fromPrice(uint256)": {
        "notice": "Converts a price to a tick"
      },
      "getDepth(uint192,int24)": {
        "notice": "Returns the depth of a book"
      },
      "getHighestPrice(uint192)": {
        "notice": "Returns the highest price of a book"
      },
      "getOrder(uint256)": {
        "notice": "Returns the details of an order"
      },
      "make((uint192,int24,uint256,address,bytes)[],address[],(address,uint256,(uint256,uint8,bytes32,bytes32))[],uint64)": {
        "notice": "Makes a list of orders"
      },
      "open(((address,uint64,address,uint24,address,uint24),bytes)[],uint64)": {
        "notice": "Opens a book"
      },
      "spend((uint192,uint256,uint256,uint256,bytes)[],address[],(address,uint256,(uint256,uint8,bytes32,bytes32))[],uint64)": {
        "notice": "Spends to take a list of orders"
      },
      "take((uint192,uint256,uint256,uint256,bytes)[],address[],(address,uint256,(uint256,uint8,bytes32,bytes32))[],uint64)": {
        "notice": "Takes a list of orders"
      },
      "toPrice(int24)": {
        "notice": "Converts a tick to a price"
      }
    },
    "version": 1
  },
  "storageLayout": {
    "storage": [],
    "types": null
  }
}